{
  "_format": "hh-sol-artifact-1",
  "contractName": "PolysportNFT",
  "sourceName": "contracts/PolysportNFT.sol",
  "abi": [
    {
      "inputs": [
        {
          "internalType": "string",
          "name": "_baseUri",
          "type": "string"
        },
        {
          "internalType": "uint256",
          "name": "_grades",
          "type": "uint256"
        },
        {
          "internalType": "uint256[]",
          "name": "_cost",
          "type": "uint256[]"
        },
        {
          "internalType": "uint256[]",
          "name": "_nativeCost",
          "type": "uint256[]"
        },
        {
          "internalType": "address payable",
          "name": "_saleWallet",
          "type": "address"
        },
        {
          "internalType": "address",
          "name": "_paymentToken",
          "type": "address"
        }
      ],
      "stateMutability": "nonpayable",
      "type": "constructor"
    },
    {
      "inputs": [],
      "name": "ERC721EnumerableForbiddenBatchMint",
      "type": "error"
    },
    {
      "inputs": [
        {
          "internalType": "address",
          "name": "sender",
          "type": "address"
        },
        {
          "internalType": "uint256",
          "name": "tokenId",
          "type": "uint256"
        },
        {
          "internalType": "address",
          "name": "owner",
          "type": "address"
        }
      ],
      "name": "ERC721IncorrectOwner",
      "type": "error"
    },
    {
      "inputs": [
        {
          "internalType": "address",
          "name": "operator",
          "type": "address"
        },
        {
          "internalType": "uint256",
          "name": "tokenId",
          "type": "uint256"
        }
      ],
      "name": "ERC721InsufficientApproval",
      "type": "error"
    },
    {
      "inputs": [
        {
          "internalType": "address",
          "name": "approver",
          "type": "address"
        }
      ],
      "name": "ERC721InvalidApprover",
      "type": "error"
    },
    {
      "inputs": [
        {
          "internalType": "address",
          "name": "operator",
          "type": "address"
        }
      ],
      "name": "ERC721InvalidOperator",
      "type": "error"
    },
    {
      "inputs": [
        {
          "internalType": "address",
          "name": "owner",
          "type": "address"
        }
      ],
      "name": "ERC721InvalidOwner",
      "type": "error"
    },
    {
      "inputs": [
        {
          "internalType": "address",
          "name": "receiver",
          "type": "address"
        }
      ],
      "name": "ERC721InvalidReceiver",
      "type": "error"
    },
    {
      "inputs": [
        {
          "internalType": "address",
          "name": "sender",
          "type": "address"
        }
      ],
      "name": "ERC721InvalidSender",
      "type": "error"
    },
    {
      "inputs": [
        {
          "internalType": "uint256",
          "name": "tokenId",
          "type": "uint256"
        }
      ],
      "name": "ERC721NonexistentToken",
      "type": "error"
    },
    {
      "inputs": [
        {
          "internalType": "address",
          "name": "owner",
          "type": "address"
        },
        {
          "internalType": "uint256",
          "name": "index",
          "type": "uint256"
        }
      ],
      "name": "ERC721OutOfBoundsIndex",
      "type": "error"
    },
    {
      "inputs": [
        {
          "internalType": "address",
          "name": "owner",
          "type": "address"
        }
      ],
      "name": "OwnableInvalidOwner",
      "type": "error"
    },
    {
      "inputs": [
        {
          "internalType": "address",
          "name": "account",
          "type": "address"
        }
      ],
      "name": "OwnableUnauthorizedAccount",
      "type": "error"
    },
    {
      "inputs": [],
      "name": "ReentrancyGuardReentrantCall",
      "type": "error"
    },
    {
      "anonymous": false,
      "inputs": [
        {
          "indexed": true,
          "internalType": "address",
          "name": "owner",
          "type": "address"
        },
        {
          "indexed": true,
          "internalType": "address",
          "name": "approved",
          "type": "address"
        },
        {
          "indexed": true,
          "internalType": "uint256",
          "name": "tokenId",
          "type": "uint256"
        }
      ],
      "name": "Approval",
      "type": "event"
    },
    {
      "anonymous": false,
      "inputs": [
        {
          "indexed": true,
          "internalType": "address",
          "name": "owner",
          "type": "address"
        },
        {
          "indexed": true,
          "internalType": "address",
          "name": "operator",
          "type": "address"
        },
        {
          "indexed": false,
          "internalType": "bool",
          "name": "approved",
          "type": "bool"
        }
      ],
      "name": "ApprovalForAll",
      "type": "event"
    },
    {
      "anonymous": false,
      "inputs": [
        {
          "indexed": true,
          "internalType": "address",
          "name": "owner",
          "type": "address"
        },
        {
          "indexed": true,
          "internalType": "uint256",
          "name": "id",
          "type": "uint256"
        }
      ],
      "name": "NFTBurned",
      "type": "event"
    },
    {
      "anonymous": false,
      "inputs": [
        {
          "indexed": true,
          "internalType": "address",
          "name": "purchaser",
          "type": "address"
        },
        {
          "indexed": true,
          "internalType": "uint256",
          "name": "id",
          "type": "uint256"
        },
        {
          "indexed": true,
          "internalType": "uint256",
          "name": "grade",
          "type": "uint256"
        }
      ],
      "name": "NFTMinted",
      "type": "event"
    },
    {
      "anonymous": false,
      "inputs": [
        {
          "indexed": true,
          "internalType": "address",
          "name": "previousOwner",
          "type": "address"
        },
        {
          "indexed": true,
          "internalType": "address",
          "name": "newOwner",
          "type": "address"
        }
      ],
      "name": "OwnershipTransferred",
      "type": "event"
    },
    {
      "anonymous": false,
      "inputs": [
        {
          "indexed": true,
          "internalType": "address",
          "name": "from",
          "type": "address"
        },
        {
          "indexed": true,
          "internalType": "address",
          "name": "to",
          "type": "address"
        },
        {
          "indexed": true,
          "internalType": "uint256",
          "name": "tokenId",
          "type": "uint256"
        }
      ],
      "name": "Transfer",
      "type": "event"
    },
    {
      "inputs": [
        {
          "internalType": "address",
          "name": "to",
          "type": "address"
        },
        {
          "internalType": "uint256",
          "name": "tokenId",
          "type": "uint256"
        }
      ],
      "name": "approve",
      "outputs": [],
      "stateMutability": "nonpayable",
      "type": "function"
    },
    {
      "inputs": [
        {
          "internalType": "address",
          "name": "owner",
          "type": "address"
        }
      ],
      "name": "balanceOf",
      "outputs": [
        {
          "internalType": "uint256",
          "name": "",
          "type": "uint256"
        }
      ],
      "stateMutability": "view",
      "type": "function"
    },
    {
      "inputs": [],
      "name": "baseUri",
      "outputs": [
        {
          "internalType": "string",
          "name": "",
          "type": "string"
        }
      ],
      "stateMutability": "view",
      "type": "function"
    },
    {
      "inputs": [
        {
          "internalType": "uint256",
          "name": "tokenId",
          "type": "uint256"
        }
      ],
      "name": "burn",
      "outputs": [],
      "stateMutability": "nonpayable",
      "type": "function"
    },
    {
      "inputs": [
        {
          "internalType": "uint256",
          "name": "",
          "type": "uint256"
        }
      ],
      "name": "cost",
      "outputs": [
        {
          "internalType": "uint256",
          "name": "",
          "type": "uint256"
        }
      ],
      "stateMutability": "view",
      "type": "function"
    },
    {
      "inputs": [
        {
          "internalType": "uint256",
          "name": "tokenId",
          "type": "uint256"
        }
      ],
      "name": "getApproved",
      "outputs": [
        {
          "internalType": "address",
          "name": "",
          "type": "address"
        }
      ],
      "stateMutability": "view",
      "type": "function"
    },
    {
      "inputs": [
        {
          "internalType": "address",
          "name": "owner",
          "type": "address"
        },
        {
          "internalType": "address",
          "name": "operator",
          "type": "address"
        }
      ],
      "name": "isApprovedForAll",
      "outputs": [
        {
          "internalType": "bool",
          "name": "",
          "type": "bool"
        }
      ],
      "stateMutability": "view",
      "type": "function"
    },
    {
      "inputs": [
        {
          "internalType": "uint256",
          "name": "_mintAmount",
          "type": "uint256"
        },
        {
          "internalType": "uint256",
          "name": "_grade",
          "type": "uint256"
        }
      ],
      "name": "mint",
      "outputs": [],
      "stateMutability": "nonpayable",
      "type": "function"
    },
    {
      "inputs": [
        {
          "internalType": "uint256",
          "name": "_mintAmount",
          "type": "uint256"
        },
        {
          "internalType": "uint256",
          "name": "_grade",
          "type": "uint256"
        }
      ],
      "name": "mintWithNative",
      "outputs": [],
      "stateMutability": "payable",
      "type": "function"
    },
    {
      "inputs": [],
      "name": "name",
      "outputs": [
        {
          "internalType": "string",
          "name": "",
          "type": "string"
        }
      ],
      "stateMutability": "view",
      "type": "function"
    },
    {
      "inputs": [
        {
          "internalType": "uint256",
          "name": "",
          "type": "uint256"
        }
      ],
      "name": "nativeCost",
      "outputs": [
        {
          "internalType": "uint256",
          "name": "",
          "type": "uint256"
        }
      ],
      "stateMutability": "view",
      "type": "function"
    },
    {
      "inputs": [],
      "name": "owner",
      "outputs": [
        {
          "internalType": "address",
          "name": "",
          "type": "address"
        }
      ],
      "stateMutability": "view",
      "type": "function"
    },
    {
      "inputs": [
        {
          "internalType": "uint256",
          "name": "tokenId",
          "type": "uint256"
        }
      ],
      "name": "ownerOf",
      "outputs": [
        {
          "internalType": "address",
          "name": "",
          "type": "address"
        }
      ],
      "stateMutability": "view",
      "type": "function"
    },
    {
      "inputs": [],
      "name": "paymentToken",
      "outputs": [
        {
          "internalType": "address",
          "name": "",
          "type": "address"
        }
      ],
      "stateMutability": "view",
      "type": "function"
    },
    {
      "inputs": [],
      "name": "renounceOwnership",
      "outputs": [],
      "stateMutability": "nonpayable",
      "type": "function"
    },
    {
      "inputs": [
        {
          "internalType": "address",
          "name": "from",
          "type": "address"
        },
        {
          "internalType": "address",
          "name": "to",
          "type": "address"
        },
        {
          "internalType": "uint256",
          "name": "tokenId",
          "type": "uint256"
        }
      ],
      "name": "safeTransferFrom",
      "outputs": [],
      "stateMutability": "nonpayable",
      "type": "function"
    },
    {
      "inputs": [
        {
          "internalType": "address",
          "name": "from",
          "type": "address"
        },
        {
          "internalType": "address",
          "name": "to",
          "type": "address"
        },
        {
          "internalType": "uint256",
          "name": "tokenId",
          "type": "uint256"
        },
        {
          "internalType": "bytes",
          "name": "data",
          "type": "bytes"
        }
      ],
      "name": "safeTransferFrom",
      "outputs": [],
      "stateMutability": "nonpayable",
      "type": "function"
    },
    {
      "inputs": [],
      "name": "saleWallet",
      "outputs": [
        {
          "internalType": "address payable",
          "name": "",
          "type": "address"
        }
      ],
      "stateMutability": "view",
      "type": "function"
    },
    {
      "inputs": [
        {
          "internalType": "address",
          "name": "operator",
          "type": "address"
        },
        {
          "internalType": "bool",
          "name": "approved",
          "type": "bool"
        }
      ],
      "name": "setApprovalForAll",
      "outputs": [],
      "stateMutability": "nonpayable",
      "type": "function"
    },
    {
      "inputs": [
        {
          "internalType": "string",
          "name": "_baseUri",
          "type": "string"
        }
      ],
      "name": "setBaseURI",
      "outputs": [],
      "stateMutability": "nonpayable",
      "type": "function"
    },
    {
      "inputs": [
        {
          "internalType": "uint256",
          "name": "_grade",
          "type": "uint256"
        },
        {
          "internalType": "uint256",
          "name": "_cost",
          "type": "uint256"
        }
      ],
      "name": "setCost",
      "outputs": [],
      "stateMutability": "nonpayable",
      "type": "function"
    },
    {
      "inputs": [
        {
          "internalType": "uint256",
          "name": "_grade",
          "type": "uint256"
        },
        {
          "internalType": "uint256",
          "name": "_nativeCost",
          "type": "uint256"
        }
      ],
      "name": "setNativeCost",
      "outputs": [],
      "stateMutability": "nonpayable",
      "type": "function"
    },
    {
      "inputs": [
        {
          "internalType": "address",
          "name": "_paymentToken",
          "type": "address"
        }
      ],
      "name": "setPaymentToken",
      "outputs": [],
      "stateMutability": "nonpayable",
      "type": "function"
    },
    {
      "inputs": [
        {
          "internalType": "address payable",
          "name": "_saleWallet",
          "type": "address"
        }
      ],
      "name": "setSaleWallet",
      "outputs": [],
      "stateMutability": "nonpayable",
      "type": "function"
    },
    {
      "inputs": [
        {
          "internalType": "bytes4",
          "name": "interfaceId",
          "type": "bytes4"
        }
      ],
      "name": "supportsInterface",
      "outputs": [
        {
          "internalType": "bool",
          "name": "",
          "type": "bool"
        }
      ],
      "stateMutability": "pure",
      "type": "function"
    },
    {
      "inputs": [],
      "name": "symbol",
      "outputs": [
        {
          "internalType": "string",
          "name": "",
          "type": "string"
        }
      ],
      "stateMutability": "view",
      "type": "function"
    },
    {
      "inputs": [
        {
          "internalType": "uint256",
          "name": "index",
          "type": "uint256"
        }
      ],
      "name": "tokenByIndex",
      "outputs": [
        {
          "internalType": "uint256",
          "name": "",
          "type": "uint256"
        }
      ],
      "stateMutability": "view",
      "type": "function"
    },
    {
      "inputs": [],
      "name": "tokenIdCounter",
      "outputs": [
        {
          "internalType": "uint256",
          "name": "",
          "type": "uint256"
        }
      ],
      "stateMutability": "view",
      "type": "function"
    },
    {
      "inputs": [
        {
          "internalType": "address",
          "name": "owner",
          "type": "address"
        },
        {
          "internalType": "uint256",
          "name": "index",
          "type": "uint256"
        }
      ],
      "name": "tokenOfOwnerByIndex",
      "outputs": [
        {
          "internalType": "uint256",
          "name": "",
          "type": "uint256"
        }
      ],
      "stateMutability": "view",
      "type": "function"
    },
    {
      "inputs": [
        {
          "internalType": "uint256",
          "name": "tokenId",
          "type": "uint256"
        }
      ],
      "name": "tokenURI",
      "outputs": [
        {
          "internalType": "string",
          "name": "",
          "type": "string"
        }
      ],
      "stateMutability": "view",
      "type": "function"
    },
    {
      "inputs": [],
      "name": "totalSupply",
      "outputs": [
        {
          "internalType": "uint256",
          "name": "",
          "type": "uint256"
        }
      ],
      "stateMutability": "view",
      "type": "function"
    },
    {
      "inputs": [
        {
          "internalType": "address",
          "name": "from",
          "type": "address"
        },
        {
          "internalType": "address",
          "name": "to",
          "type": "address"
        },
        {
          "internalType": "uint256",
          "name": "tokenId",
          "type": "uint256"
        }
      ],
      "name": "transferFrom",
      "outputs": [],
      "stateMutability": "nonpayable",
      "type": "function"
    },
    {
      "inputs": [
        {
          "internalType": "address",
          "name": "newOwner",
          "type": "address"
        }
      ],
      "name": "transferOwnership",
      "outputs": [],
      "stateMutability": "nonpayable",
      "type": "function"
    }
  ],
  "bytecode": "0x60806040523480156200001157600080fd5b50604051620044c6380380620044c6833981810160405281019062000037919062000694565b6040518060400160405280600981526020017f506f6c7973706f727400000000000000000000000000000000000000000000008152506040518060400160405280600481526020017f504f4c590000000000000000000000000000000000000000000000000000000081525033600073ffffffffffffffffffffffffffffffffffffffff168173ffffffffffffffffffffffffffffffffffffffff1603620001195760006040517f1e4fbdf70000000000000000000000000000000000000000000000000000000081526004016200011091906200079e565b60405180910390fd5b6200012a816200027d60201b60201c565b50600180819055508160029081620001439190620009fc565b508060039081620001559190620009fc565b50505085600d9081620001699190620009fc565b5060005b85811015620001ee578481815181106200018c576200018b62000ae3565b5b6020026020010151600e600083815260200190815260200160002081905550838181518110620001c157620001c062000ae3565b5b6020026020010151600f60008381526020019081526020016000208190555080806001019150506200016d565b5081601060006101000a81548173ffffffffffffffffffffffffffffffffffffffff021916908373ffffffffffffffffffffffffffffffffffffffff16021790555080601160006101000a81548173ffffffffffffffffffffffffffffffffffffffff021916908373ffffffffffffffffffffffffffffffffffffffff16021790555050505050505062000b12565b60008060009054906101000a900473ffffffffffffffffffffffffffffffffffffffff169050816000806101000a81548173ffffffffffffffffffffffffffffffffffffffff021916908373ffffffffffffffffffffffffffffffffffffffff1602179055508173ffffffffffffffffffffffffffffffffffffffff168173ffffffffffffffffffffffffffffffffffffffff167f8be0079c531659141344cd1fd0a4f28419497f9722a3daafe3b4186f6b6457e060405160405180910390a35050565b6000604051905090565b600080fd5b600080fd5b600080fd5b600080fd5b6000601f19601f8301169050919050565b7f4e487b7100000000000000000000000000000000000000000000000000000000600052604160045260246000fd5b620003aa826200035f565b810181811067ffffffffffffffff82111715620003cc57620003cb62000370565b5b80604052505050565b6000620003e162000341565b9050620003ef82826200039f565b919050565b600067ffffffffffffffff82111562000412576200041162000370565b5b6200041d826200035f565b9050602081019050919050565b60005b838110156200044a5780820151818401526020810190506200042d565b60008484015250505050565b60006200046d6200046784620003f4565b620003d5565b9050828152602081018484840111156200048c576200048b6200035a565b5b620004998482856200042a565b509392505050565b600082601f830112620004b957620004b862000355565b5b8151620004cb84826020860162000456565b91505092915050565b6000819050919050565b620004e981620004d4565b8114620004f557600080fd5b50565b6000815190506200050981620004de565b92915050565b600067ffffffffffffffff8211156200052d576200052c62000370565b5b602082029050602081019050919050565b600080fd5b60006200055a62000554846200050f565b620003d5565b9050808382526020820190506020840283018581111562000580576200057f6200053e565b5b835b81811015620005ad5780620005988882620004f8565b84526020840193505060208101905062000582565b5050509392505050565b600082601f830112620005cf57620005ce62000355565b5b8151620005e184826020860162000543565b91505092915050565b600073ffffffffffffffffffffffffffffffffffffffff82169050919050565b60006200061782620005ea565b9050919050565b62000629816200060a565b81146200063557600080fd5b50565b60008151905062000649816200061e565b92915050565b60006200065c82620005ea565b9050919050565b6200066e816200064f565b81146200067a57600080fd5b50565b6000815190506200068e8162000663565b92915050565b60008060008060008060c08789031215620006b457620006b36200034b565b5b600087015167ffffffffffffffff811115620006d557620006d462000350565b5b620006e389828a01620004a1565b9650506020620006f689828a01620004f8565b955050604087015167ffffffffffffffff8111156200071a576200071962000350565b5b6200072889828a01620005b7565b945050606087015167ffffffffffffffff8111156200074c576200074b62000350565b5b6200075a89828a01620005b7565b93505060806200076d89828a0162000638565b92505060a06200078089828a016200067d565b9150509295509295509295565b62000798816200064f565b82525050565b6000602082019050620007b560008301846200078d565b92915050565b600081519050919050565b7f4e487b7100000000000000000000000000000000000000000000000000000000600052602260045260246000fd5b600060028204905060018216806200080e57607f821691505b602082108103620008245762000823620007c6565b5b50919050565b60008190508160005260206000209050919050565b60006020601f8301049050919050565b600082821b905092915050565b6000600883026200088e7fffffffffffffffffffffffffffffffffffffffffffffffffffffffffffffffff826200084f565b6200089a86836200084f565b95508019841693508086168417925050509392505050565b6000819050919050565b6000620008dd620008d7620008d184620004d4565b620008b2565b620004d4565b9050919050565b6000819050919050565b620008f983620008bc565b620009116200090882620008e4565b8484546200085c565b825550505050565b600090565b6200092862000919565b62000935818484620008ee565b505050565b5b818110156200095d57620009516000826200091e565b6001810190506200093b565b5050565b601f821115620009ac5762000976816200082a565b62000981846200083f565b8101602085101562000991578190505b620009a9620009a0856200083f565b8301826200093a565b50505b505050565b600082821c905092915050565b6000620009d160001984600802620009b1565b1980831691505092915050565b6000620009ec8383620009be565b9150826002028217905092915050565b62000a0782620007bb565b67ffffffffffffffff81111562000a235762000a2262000370565b5b62000a2f8254620007f5565b62000a3c82828562000961565b600060209050601f83116001811462000a74576000841562000a5f578287015190505b62000a6b8582620009de565b86555062000adb565b601f19841662000a84866200082a565b60005b8281101562000aae5784890151825560018201915060208501945060208101905062000a87565b8683101562000ace578489015162000aca601f891682620009be565b8355505b6001600288020188555050505b505050505050565b7f4e487b7100000000000000000000000000000000000000000000000000000000600052603260045260246000fd5b6139a48062000b226000396000f3fe6080604052600436106101ee5760003560e01c80636a326ab11161010d578063967f4503116100a0578063a22cb4651161006f578063a22cb46514610700578063b88d4fde14610729578063c87b56dd14610752578063e985e9c51461078f578063f2fde38b146107cc576101ee565b8063967f45031461066557806398bdf6f51461068157806399dcc518146106ac5780639abc8320146106d5576101ee565b80637c4db77d116100dc5780637c4db77d146105a75780638da5cb5b146105d25780639097548d146105fd57806395d89b411461063a576101ee565b80636a326ab11461050157806370a082311461052a578063715018a6146105675780637696e0881461057e576101ee565b80632f745c59116101855780634f6ccce7116101545780634f6ccce71461042157806355f804b31461045e5780636352211e14610487578063663d2269146104c4576101ee565b80632f745c59146103675780633013ce29146103a457806342842e0e146103cf57806342966c68146103f8576101ee565b80630fa8d85c116101c15780630fa8d85c146102c157806318160ddd146102ea5780631b2ef1ca1461031557806323b872dd1461033e576101ee565b806301ffc9a7146101f357806306fdde0314610230578063081812fc1461025b578063095ea7b314610298575b600080fd5b3480156101ff57600080fd5b5061021a600480360381019061021591906129d0565b6107f5565b6040516102279190612a18565b60405180910390f35b34801561023c57600080fd5b50610245610997565b6040516102529190612ac3565b60405180910390f35b34801561026757600080fd5b50610282600480360381019061027d9190612b1b565b610a29565b60405161028f9190612b89565b60405180910390f35b3480156102a457600080fd5b506102bf60048036038101906102ba9190612bd0565b610a45565b005b3480156102cd57600080fd5b506102e860048036038101906102e39190612c10565b610a5b565b005b3480156102f657600080fd5b506102ff610a7f565b60405161030c9190612c5f565b60405180910390f35b34801561032157600080fd5b5061033c60048036038101906103379190612c10565b610a8c565b005b34801561034a57600080fd5b5061036560048036038101906103609190612c7a565b610b43565b005b34801561037357600080fd5b5061038e60048036038101906103899190612bd0565b610c45565b60405161039b9190612c5f565b60405180910390f35b3480156103b057600080fd5b506103b9610cee565b6040516103c69190612b89565b60405180910390f35b3480156103db57600080fd5b506103f660048036038101906103f19190612c7a565b610d14565b005b34801561040457600080fd5b5061041f600480360381019061041a9190612b1b565b610d34565b005b34801561042d57600080fd5b5061044860048036038101906104439190612b1b565b610e10565b6040516104559190612c5f565b60405180910390f35b34801561046a57600080fd5b5061048560048036038101906104809190612e02565b610e86565b005b34801561049357600080fd5b506104ae60048036038101906104a99190612b1b565b610ea1565b6040516104bb9190612b89565b60405180910390f35b3480156104d057600080fd5b506104eb60048036038101906104e69190612b1b565b610eb3565b6040516104f89190612c5f565b60405180910390f35b34801561050d57600080fd5b5061052860048036038101906105239190612e4b565b610ecb565b005b34801561053657600080fd5b50610551600480360381019061054c9190612e4b565b610f17565b60405161055e9190612c5f565b60405180910390f35b34801561057357600080fd5b5061057c610fd1565b005b34801561058a57600080fd5b506105a560048036038101906105a09190612c10565b610fe5565b005b3480156105b357600080fd5b506105bc611009565b6040516105c99190612e99565b60405180910390f35b3480156105de57600080fd5b506105e761102f565b6040516105f49190612b89565b60405180910390f35b34801561060957600080fd5b50610624600480360381019061061f9190612b1b565b611058565b6040516106319190612c5f565b60405180910390f35b34801561064657600080fd5b5061064f611070565b60405161065c9190612ac3565b60405180910390f35b61067f600480360381019061067a9190612c10565b611102565b005b34801561068d57600080fd5b506106966111c6565b6040516106a39190612c5f565b60405180910390f35b3480156106b857600080fd5b506106d360048036038101906106ce9190612ee0565b6111cc565b005b3480156106e157600080fd5b506106ea611218565b6040516106f79190612ac3565b60405180910390f35b34801561070c57600080fd5b5061072760048036038101906107229190612f39565b6112a6565b005b34801561073557600080fd5b50610750600480360381019061074b919061301a565b6112bc565b005b34801561075e57600080fd5b5061077960048036038101906107749190612b1b565b6112d9565b6040516107869190612ac3565b60405180910390f35b34801561079b57600080fd5b506107b660048036038101906107b1919061309d565b611343565b6040516107c39190612a18565b60405180910390f35b3480156107d857600080fd5b506107f360048036038101906107ee9190612e4b565b6113d7565b005b60007f80ac58cd000000000000000000000000000000000000000000000000000000007bffffffffffffffffffffffffffffffffffffffffffffffffffffffff1916827bffffffffffffffffffffffffffffffffffffffffffffffffffffffff191614806108c057507f01ffc9a7000000000000000000000000000000000000000000000000000000007bffffffffffffffffffffffffffffffffffffffffffffffffffffffff1916827bffffffffffffffffffffffffffffffffffffffffffffffffffffffff1916145b8061092857507fcfc7d8a1000000000000000000000000000000000000000000000000000000007bffffffffffffffffffffffffffffffffffffffffffffffffffffffff1916827bffffffffffffffffffffffffffffffffffffffffffffffffffffffff1916145b8061099057507f780e9d63000000000000000000000000000000000000000000000000000000007bffffffffffffffffffffffffffffffffffffffffffffffffffffffff1916827bffffffffffffffffffffffffffffffffffffffffffffffffffffffff1916145b9050919050565b6060600280546109a69061310c565b80601f01602080910402602001604051908101604052809291908181526020018280546109d29061310c565b8015610a1f5780601f106109f457610100808354040283529160200191610a1f565b820191906000526020600020905b815481529060010190602001808311610a0257829003601f168201915b5050505050905090565b6000610a348261145d565b50610a3e826114e5565b9050919050565b610a578282610a52611522565b61152a565b5050565b610a6361153c565b80600f6000848152602001908152602001600020819055505050565b6000600a80549050905090565b60008211610a9957600080fd5b6000600e60008381526020019081526020016000205411610aef576040517f08c379a0000000000000000000000000000000000000000000000000000000008152600401610ae6906131af565b60405180910390fd5b600082600e600084815260200190815260200160002054610b1091906131fe565b905060005b83811015610b3457610b2733846115c3565b8080600101915050610b15565b50610b3e81611643565b505050565b600073ffffffffffffffffffffffffffffffffffffffff168273ffffffffffffffffffffffffffffffffffffffff1603610bb55760006040517f64a0ae92000000000000000000000000000000000000000000000000000000008152600401610bac9190612b89565b60405180910390fd5b6000610bc98383610bc4611522565b61170b565b90508373ffffffffffffffffffffffffffffffffffffffff168173ffffffffffffffffffffffffffffffffffffffff1614610c3f578382826040517f64283d7b000000000000000000000000000000000000000000000000000000008152600401610c3693929190613240565b60405180910390fd5b50505050565b6000610c5083610f17565b8210610c955782826040517fa57d13dc000000000000000000000000000000000000000000000000000000008152600401610c8c929190613277565b60405180910390fd5b600860008473ffffffffffffffffffffffffffffffffffffffff1673ffffffffffffffffffffffffffffffffffffffff168152602001908152602001600020600083815260200190815260200160002054905092915050565b601160009054906101000a900473ffffffffffffffffffffffffffffffffffffffff1681565b610d2f838383604051806020016040528060008152506112bc565b505050565b3373ffffffffffffffffffffffffffffffffffffffff16610d5482611721565b73ffffffffffffffffffffffffffffffffffffffff161480610da957503373ffffffffffffffffffffffffffffffffffffffff16610d91826114e5565b73ffffffffffffffffffffffffffffffffffffffff16145b610db257600080fd5b6000610dbd82611721565b9050610dc88261175e565b818173ffffffffffffffffffffffffffffffffffffffff167fd6a6bcd88cdc4656d5f4e14e7dfbc9bc3f2f9811f8d6b508f3bee7d999d4d41c60405160405180910390a35050565b6000610e1a610a7f565b8210610e60576000826040517fa57d13dc000000000000000000000000000000000000000000000000000000008152600401610e57929190613277565b60405180910390fd5b600a8281548110610e7457610e736132a0565b5b90600052602060002001549050919050565b610e8e61153c565b80600d9081610e9d919061347b565b5050565b6000610eac8261145d565b9050919050565b600f6020528060005260406000206000915090505481565b610ed361153c565b80601160006101000a81548173ffffffffffffffffffffffffffffffffffffffff021916908373ffffffffffffffffffffffffffffffffffffffff16021790555050565b60008073ffffffffffffffffffffffffffffffffffffffff168273ffffffffffffffffffffffffffffffffffffffff1603610f8a5760006040517f89c62b64000000000000000000000000000000000000000000000000000000008152600401610f819190612b89565b60405180910390fd5b600560008373ffffffffffffffffffffffffffffffffffffffff1673ffffffffffffffffffffffffffffffffffffffff168152602001908152602001600020549050919050565b610fd961153c565b610fe360006117e4565b565b610fed61153c565b80600e6000848152602001908152602001600020819055505050565b601060009054906101000a900473ffffffffffffffffffffffffffffffffffffffff1681565b60008060009054906101000a900473ffffffffffffffffffffffffffffffffffffffff16905090565b600e6020528060005260406000206000915090505481565b60606003805461107f9061310c565b80601f01602080910402602001604051908101604052809291908181526020018280546110ab9061310c565b80156110f85780601f106110cd576101008083540402835291602001916110f8565b820191906000526020600020905b8154815290600101906020018083116110db57829003601f168201915b5050505050905090565b6000821161110f57600080fd5b6000600f60008381526020019081526020016000205411611165576040517f08c379a000000000000000000000000000000000000000000000000000000000815260040161115c906135bf565b60405180910390fd5b600082600f60008481526020019081526020016000205461118691906131fe565b90508034101561119557600080fd5b60005b838110156111b7576111aa33846115c3565b8080600101915050611198565b506111c1816118a8565b505050565b600c5481565b6111d461153c565b80601060006101000a81548173ffffffffffffffffffffffffffffffffffffffff021916908373ffffffffffffffffffffffffffffffffffffffff16021790555050565b600d80546112259061310c565b80601f01602080910402602001604051908101604052809291908181526020018280546112519061310c565b801561129e5780601f106112735761010080835404028352916020019161129e565b820191906000526020600020905b81548152906001019060200180831161128157829003601f168201915b505050505081565b6112b86112b1611522565b8383611914565b5050565b6112c7848484610b43565b6112d384848484611a83565b50505050565b60606112e48261145d565b506000600d80546112f49061310c565b905011611310576040518060200160405280600081525061133c565b600d61131b83611c3a565b60405160200161132c9291906136c4565b6040516020818303038152906040525b9050919050565b6000600760008473ffffffffffffffffffffffffffffffffffffffff1673ffffffffffffffffffffffffffffffffffffffff16815260200190815260200160002060008373ffffffffffffffffffffffffffffffffffffffff1673ffffffffffffffffffffffffffffffffffffffff16815260200190815260200160002060009054906101000a900460ff16905092915050565b6113df61153c565b600073ffffffffffffffffffffffffffffffffffffffff168173ffffffffffffffffffffffffffffffffffffffff16036114515760006040517f1e4fbdf70000000000000000000000000000000000000000000000000000000081526004016114489190612b89565b60405180910390fd5b61145a816117e4565b50565b60008061146983611721565b9050600073ffffffffffffffffffffffffffffffffffffffff168173ffffffffffffffffffffffffffffffffffffffff16036114dc57826040517f7e2732890000000000000000000000000000000000000000000000000000000081526004016114d39190612c5f565b60405180910390fd5b80915050919050565b60006006600083815260200190815260200160002060009054906101000a900473ffffffffffffffffffffffffffffffffffffffff169050919050565b600033905090565b6115378383836001611d08565b505050565b611544611522565b73ffffffffffffffffffffffffffffffffffffffff1661156261102f565b73ffffffffffffffffffffffffffffffffffffffff16146115c157611585611522565b6040517f118cdaa70000000000000000000000000000000000000000000000000000000081526004016115b89190612b89565b60405180910390fd5b565b6115cb611ecd565b6000600c5490506001600c546115e191906136f7565b600c819055506115f18382611f13565b81818473ffffffffffffffffffffffffffffffffffffffff167f3a8a89b59a31c39a36febecb987e0657ab7b7c73b60ebacb44dcb9886c2d5c8a60405160405180910390a45061163f611f31565b5050565b601160009054906101000a900473ffffffffffffffffffffffffffffffffffffffff1673ffffffffffffffffffffffffffffffffffffffff166323b872dd33601060009054906101000a900473ffffffffffffffffffffffffffffffffffffffff16846040518463ffffffff1660e01b81526004016116c493929190613780565b6020604051808303816000875af11580156116e3573d6000803e3d6000fd5b505050506040513d601f19601f8201168201806040525081019061170791906137cc565b5050565b6000611718848484611f3a565b90509392505050565b60006004600083815260200190815260200160002060009054906101000a900473ffffffffffffffffffffffffffffffffffffffff169050919050565b600061176d600083600061170b565b9050600073ffffffffffffffffffffffffffffffffffffffff168173ffffffffffffffffffffffffffffffffffffffff16036117e057816040517f7e2732890000000000000000000000000000000000000000000000000000000081526004016117d79190612c5f565b60405180910390fd5b5050565b60008060009054906101000a900473ffffffffffffffffffffffffffffffffffffffff169050816000806101000a81548173ffffffffffffffffffffffffffffffffffffffff021916908373ffffffffffffffffffffffffffffffffffffffff1602179055508173ffffffffffffffffffffffffffffffffffffffff168173ffffffffffffffffffffffffffffffffffffffff167f8be0079c531659141344cd1fd0a4f28419497f9722a3daafe3b4186f6b6457e060405160405180910390a35050565b601060009054906101000a900473ffffffffffffffffffffffffffffffffffffffff1673ffffffffffffffffffffffffffffffffffffffff166108fc829081150290604051600060405180830381858888f19350505050158015611910573d6000803e3d6000fd5b5050565b600073ffffffffffffffffffffffffffffffffffffffff168273ffffffffffffffffffffffffffffffffffffffff160361198557816040517f5b08ba1800000000000000000000000000000000000000000000000000000000815260040161197c9190612b89565b60405180910390fd5b80600760008573ffffffffffffffffffffffffffffffffffffffff1673ffffffffffffffffffffffffffffffffffffffff16815260200190815260200160002060008473ffffffffffffffffffffffffffffffffffffffff1673ffffffffffffffffffffffffffffffffffffffff16815260200190815260200160002060006101000a81548160ff0219169083151502179055508173ffffffffffffffffffffffffffffffffffffffff168373ffffffffffffffffffffffffffffffffffffffff167f17307eab39ab6107e8899845ad3d59bd9653f200f220920489ca2b5937696c3183604051611a769190612a18565b60405180910390a3505050565b60008373ffffffffffffffffffffffffffffffffffffffff163b1115611c34578273ffffffffffffffffffffffffffffffffffffffff1663150b7a02611ac7611522565b8685856040518563ffffffff1660e01b8152600401611ae9949392919061384e565b6020604051808303816000875af1925050508015611b2557506040513d601f19601f82011682018060405250810190611b2291906138af565b60015b611ba9573d8060008114611b55576040519150601f19603f3d011682016040523d82523d6000602084013e611b5a565b606091505b506000815103611ba157836040517f64a0ae92000000000000000000000000000000000000000000000000000000008152600401611b989190612b89565b60405180910390fd5b805181602001fd5b63150b7a0260e01b7bffffffffffffffffffffffffffffffffffffffffffffffffffffffff1916817bffffffffffffffffffffffffffffffffffffffffffffffffffffffff191614611c3257836040517f64a0ae92000000000000000000000000000000000000000000000000000000008152600401611c299190612b89565b60405180910390fd5b505b50505050565b606060006001611c4984612057565b01905060008167ffffffffffffffff811115611c6857611c67612cd7565b5b6040519080825280601f01601f191660200182016040528015611c9a5781602001600182028036833780820191505090505b509050600082602001820190505b600115611cfd578080600190039150507f3031323334353637383961626364656600000000000000000000000000000000600a86061a8153600a8581611cf157611cf06138dc565b5b04945060008503611ca8575b819350505050919050565b8080611d415750600073ffffffffffffffffffffffffffffffffffffffff168273ffffffffffffffffffffffffffffffffffffffff1614155b15611e75576000611d518461145d565b9050600073ffffffffffffffffffffffffffffffffffffffff168373ffffffffffffffffffffffffffffffffffffffff1614158015611dbc57508273ffffffffffffffffffffffffffffffffffffffff168173ffffffffffffffffffffffffffffffffffffffff1614155b8015611dcf5750611dcd8184611343565b155b15611e1157826040517fa9fbf51f000000000000000000000000000000000000000000000000000000008152600401611e089190612b89565b60405180910390fd5b8115611e7357838573ffffffffffffffffffffffffffffffffffffffff168273ffffffffffffffffffffffffffffffffffffffff167f8c5be1e5ebec7d5bd14f71427d1e84f3dd0314c0f7b2291e5b200ac8c7c3b92560405160405180910390a45b505b836006600085815260200190815260200160002060006101000a81548173ffffffffffffffffffffffffffffffffffffffff021916908373ffffffffffffffffffffffffffffffffffffffff16021790555050505050565b600260015403611f09576040517f3ee5aeb500000000000000000000000000000000000000000000000000000000815260040160405180910390fd5b6002600181905550565b611f2d8282604051806020016040528060008152506121aa565b5050565b60018081905550565b600080611f488585856121c6565b9050600073ffffffffffffffffffffffffffffffffffffffff168173ffffffffffffffffffffffffffffffffffffffff1603611f8c57611f87846123e0565b611fcb565b8473ffffffffffffffffffffffffffffffffffffffff168173ffffffffffffffffffffffffffffffffffffffff1614611fca57611fc98185612429565b5b5b600073ffffffffffffffffffffffffffffffffffffffff168573ffffffffffffffffffffffffffffffffffffffff160361200d576120088461258a565b61204c565b8473ffffffffffffffffffffffffffffffffffffffff168173ffffffffffffffffffffffffffffffffffffffff161461204b5761204a858561265b565b5b5b809150509392505050565b600080600090507a184f03e93ff9f4daa797ed6e38ed64bf6a1f01000000000000000083106120b5577a184f03e93ff9f4daa797ed6e38ed64bf6a1f01000000000000000083816120ab576120aa6138dc565b5b0492506040810190505b6d04ee2d6d415b85acef810000000083106120f2576d04ee2d6d415b85acef810000000083816120e8576120e76138dc565b5b0492506020810190505b662386f26fc10000831061212157662386f26fc100008381612117576121166138dc565b5b0492506010810190505b6305f5e100831061214a576305f5e10083816121405761213f6138dc565b5b0492506008810190505b612710831061216f576127108381612165576121646138dc565b5b0492506004810190505b606483106121925760648381612188576121876138dc565b5b0492506002810190505b600a83106121a1576001810190505b80915050919050565b6121b483836126e6565b6121c16000848484611a83565b505050565b6000806121d284611721565b9050600073ffffffffffffffffffffffffffffffffffffffff168373ffffffffffffffffffffffffffffffffffffffff1614612214576122138184866127df565b5b600073ffffffffffffffffffffffffffffffffffffffff168173ffffffffffffffffffffffffffffffffffffffff16146122a557612256600085600080611d08565b6001600560008373ffffffffffffffffffffffffffffffffffffffff1673ffffffffffffffffffffffffffffffffffffffff168152602001908152602001600020600082825403925050819055505b600073ffffffffffffffffffffffffffffffffffffffff168573ffffffffffffffffffffffffffffffffffffffff1614612328576001600560008773ffffffffffffffffffffffffffffffffffffffff1673ffffffffffffffffffffffffffffffffffffffff168152602001908152602001600020600082825401925050819055505b846004600086815260200190815260200160002060006101000a81548173ffffffffffffffffffffffffffffffffffffffff021916908373ffffffffffffffffffffffffffffffffffffffff160217905550838573ffffffffffffffffffffffffffffffffffffffff168273ffffffffffffffffffffffffffffffffffffffff167fddf252ad1be2c89b69c2b068fc378daa952ba7f163c4a11628f55a4df523b3ef60405160405180910390a4809150509392505050565b600a80549050600b600083815260200190815260200160002081905550600a81908060018154018082558091505060019003906000526020600020016000909190919091505550565b600061243483610f17565b9050600060096000848152602001908152602001600020549050818114612519576000600860008673ffffffffffffffffffffffffffffffffffffffff1673ffffffffffffffffffffffffffffffffffffffff168152602001908152602001600020600084815260200190815260200160002054905080600860008773ffffffffffffffffffffffffffffffffffffffff1673ffffffffffffffffffffffffffffffffffffffff168152602001908152602001600020600084815260200190815260200160002081905550816009600083815260200190815260200160002081905550505b6009600084815260200190815260200160002060009055600860008573ffffffffffffffffffffffffffffffffffffffff1673ffffffffffffffffffffffffffffffffffffffff16815260200190815260200160002060008381526020019081526020016000206000905550505050565b60006001600a8054905061259e919061390b565b90506000600b60008481526020019081526020016000205490506000600a83815481106125ce576125cd6132a0565b5b9060005260206000200154905080600a83815481106125f0576125ef6132a0565b5b906000526020600020018190555081600b600083815260200190815260200160002081905550600b600085815260200190815260200160002060009055600a80548061263f5761263e61393f565b5b6001900381819060005260206000200160009055905550505050565b6000600161266884610f17565b612672919061390b565b905081600860008573ffffffffffffffffffffffffffffffffffffffff1673ffffffffffffffffffffffffffffffffffffffff168152602001908152602001600020600083815260200190815260200160002081905550806009600084815260200190815260200160002081905550505050565b600073ffffffffffffffffffffffffffffffffffffffff168273ffffffffffffffffffffffffffffffffffffffff16036127585760006040517f64a0ae9200000000000000000000000000000000000000000000000000000000815260040161274f9190612b89565b60405180910390fd5b60006127668383600061170b565b9050600073ffffffffffffffffffffffffffffffffffffffff168173ffffffffffffffffffffffffffffffffffffffff16146127da5760006040517f73c6ac6e0000000000000000000000000000000000000000000000000000000081526004016127d19190612b89565b60405180910390fd5b505050565b6127ea8383836128a3565b61289e57600073ffffffffffffffffffffffffffffffffffffffff168373ffffffffffffffffffffffffffffffffffffffff160361285f57806040517f7e2732890000000000000000000000000000000000000000000000000000000081526004016128569190612c5f565b60405180910390fd5b81816040517f177e802f000000000000000000000000000000000000000000000000000000008152600401612895929190613277565b60405180910390fd5b505050565b60008073ffffffffffffffffffffffffffffffffffffffff168373ffffffffffffffffffffffffffffffffffffffff161415801561295b57508273ffffffffffffffffffffffffffffffffffffffff168473ffffffffffffffffffffffffffffffffffffffff16148061291c575061291b8484611343565b5b8061295a57508273ffffffffffffffffffffffffffffffffffffffff16612942836114e5565b73ffffffffffffffffffffffffffffffffffffffff16145b5b90509392505050565b6000604051905090565b600080fd5b600080fd5b60007fffffffff0000000000000000000000000000000000000000000000000000000082169050919050565b6129ad81612978565b81146129b857600080fd5b50565b6000813590506129ca816129a4565b92915050565b6000602082840312156129e6576129e561296e565b5b60006129f4848285016129bb565b91505092915050565b60008115159050919050565b612a12816129fd565b82525050565b6000602082019050612a2d6000830184612a09565b92915050565b600081519050919050565b600082825260208201905092915050565b60005b83811015612a6d578082015181840152602081019050612a52565b60008484015250505050565b6000601f19601f8301169050919050565b6000612a9582612a33565b612a9f8185612a3e565b9350612aaf818560208601612a4f565b612ab881612a79565b840191505092915050565b60006020820190508181036000830152612add8184612a8a565b905092915050565b6000819050919050565b612af881612ae5565b8114612b0357600080fd5b50565b600081359050612b1581612aef565b92915050565b600060208284031215612b3157612b3061296e565b5b6000612b3f84828501612b06565b91505092915050565b600073ffffffffffffffffffffffffffffffffffffffff82169050919050565b6000612b7382612b48565b9050919050565b612b8381612b68565b82525050565b6000602082019050612b9e6000830184612b7a565b92915050565b612bad81612b68565b8114612bb857600080fd5b50565b600081359050612bca81612ba4565b92915050565b60008060408385031215612be757612be661296e565b5b6000612bf585828601612bbb565b9250506020612c0685828601612b06565b9150509250929050565b60008060408385031215612c2757612c2661296e565b5b6000612c3585828601612b06565b9250506020612c4685828601612b06565b9150509250929050565b612c5981612ae5565b82525050565b6000602082019050612c746000830184612c50565b92915050565b600080600060608486031215612c9357612c9261296e565b5b6000612ca186828701612bbb565b9350506020612cb286828701612bbb565b9250506040612cc386828701612b06565b9150509250925092565b600080fd5b600080fd5b7f4e487b7100000000000000000000000000000000000000000000000000000000600052604160045260246000fd5b612d0f82612a79565b810181811067ffffffffffffffff82111715612d2e57612d2d612cd7565b5b80604052505050565b6000612d41612964565b9050612d4d8282612d06565b919050565b600067ffffffffffffffff821115612d6d57612d6c612cd7565b5b612d7682612a79565b9050602081019050919050565b82818337600083830152505050565b6000612da5612da084612d52565b612d37565b905082815260208101848484011115612dc157612dc0612cd2565b5b612dcc848285612d83565b509392505050565b600082601f830112612de957612de8612ccd565b5b8135612df9848260208601612d92565b91505092915050565b600060208284031215612e1857612e1761296e565b5b600082013567ffffffffffffffff811115612e3657612e35612973565b5b612e4284828501612dd4565b91505092915050565b600060208284031215612e6157612e6061296e565b5b6000612e6f84828501612bbb565b91505092915050565b6000612e8382612b48565b9050919050565b612e9381612e78565b82525050565b6000602082019050612eae6000830184612e8a565b92915050565b612ebd81612e78565b8114612ec857600080fd5b50565b600081359050612eda81612eb4565b92915050565b600060208284031215612ef657612ef561296e565b5b6000612f0484828501612ecb565b91505092915050565b612f16816129fd565b8114612f2157600080fd5b50565b600081359050612f3381612f0d565b92915050565b60008060408385031215612f5057612f4f61296e565b5b6000612f5e85828601612bbb565b9250506020612f6f85828601612f24565b9150509250929050565b600067ffffffffffffffff821115612f9457612f93612cd7565b5b612f9d82612a79565b9050602081019050919050565b6000612fbd612fb884612f79565b612d37565b905082815260208101848484011115612fd957612fd8612cd2565b5b612fe4848285612d83565b509392505050565b600082601f83011261300157613000612ccd565b5b8135613011848260208601612faa565b91505092915050565b600080600080608085870312156130345761303361296e565b5b600061304287828801612bbb565b945050602061305387828801612bbb565b935050604061306487828801612b06565b925050606085013567ffffffffffffffff81111561308557613084612973565b5b61309187828801612fec565b91505092959194509250565b600080604083850312156130b4576130b361296e565b5b60006130c285828601612bbb565b92505060206130d385828601612bbb565b9150509250929050565b7f4e487b7100000000000000000000000000000000000000000000000000000000600052602260045260246000fd5b6000600282049050600182168061312457607f821691505b602082108103613137576131366130dd565b5b50919050565b7f4e6f7420666f722073616c652077697468207061796d656e7420746f6b656e2060008201527f6174207468697320677261646500000000000000000000000000000000000000602082015250565b6000613199602d83612a3e565b91506131a48261313d565b604082019050919050565b600060208201905081810360008301526131c88161318c565b9050919050565b7f4e487b7100000000000000000000000000000000000000000000000000000000600052601160045260246000fd5b600061320982612ae5565b915061321483612ae5565b925082820261322281612ae5565b91508282048414831517613239576132386131cf565b5b5092915050565b60006060820190506132556000830186612b7a565b6132626020830185612c50565b61326f6040830184612b7a565b949350505050565b600060408201905061328c6000830185612b7a565b6132996020830184612c50565b9392505050565b7f4e487b7100000000000000000000000000000000000000000000000000000000600052603260045260246000fd5b60008190508160005260206000209050919050565b60006020601f8301049050919050565b600082821b905092915050565b6000600883026133317fffffffffffffffffffffffffffffffffffffffffffffffffffffffffffffffff826132f4565b61333b86836132f4565b95508019841693508086168417925050509392505050565b6000819050919050565b600061337861337361336e84612ae5565b613353565b612ae5565b9050919050565b6000819050919050565b6133928361335d565b6133a661339e8261337f565b848454613301565b825550505050565b600090565b6133bb6133ae565b6133c6818484613389565b505050565b5b818110156133ea576133df6000826133b3565b6001810190506133cc565b5050565b601f82111561342f57613400816132cf565b613409846132e4565b81016020851015613418578190505b61342c613424856132e4565b8301826133cb565b50505b505050565b600082821c905092915050565b600061345260001984600802613434565b1980831691505092915050565b600061346b8383613441565b9150826002028217905092915050565b61348482612a33565b67ffffffffffffffff81111561349d5761349c612cd7565b5b6134a7825461310c565b6134b28282856133ee565b600060209050601f8311600181146134e557600084156134d3578287015190505b6134dd858261345f565b865550613545565b601f1984166134f3866132cf565b60005b8281101561351b578489015182556001820191506020850194506020810190506134f6565b868310156135385784890151613534601f891682613441565b8355505b6001600288020188555050505b505050505050565b7f4e6f7420666f722073616c652077697468206e617469766520746f6b656e206160008201527f7420746869732067726164650000000000000000000000000000000000000000602082015250565b60006135a9602c83612a3e565b91506135b48261354d565b604082019050919050565b600060208201905081810360008301526135d88161359c565b9050919050565b600081905092915050565b600081546135f78161310c565b61360181866135df565b9450600182166000811461361c576001811461363157613664565b60ff1983168652811515820286019350613664565b61363a856132cf565b60005b8381101561365c5781548189015260018201915060208101905061363d565b838801955050505b50505092915050565b600061367882612a33565b61368281856135df565b9350613692818560208601612a4f565b80840191505092915050565b7f2e6a736f6e000000000000000000000000000000000000000000000000000000815250565b60006136d082856135ea565b91506136dc828461366d565b91506136e78261369e565b6005820191508190509392505050565b600061370282612ae5565b915061370d83612ae5565b9250828201905080821115613725576137246131cf565b5b92915050565b600061374661374161373c84612b48565b613353565b612b48565b9050919050565b60006137588261372b565b9050919050565b600061376a8261374d565b9050919050565b61377a8161375f565b82525050565b60006060820190506137956000830186612b7a565b6137a26020830185613771565b6137af6040830184612c50565b949350505050565b6000815190506137c681612f0d565b92915050565b6000602082840312156137e2576137e161296e565b5b60006137f0848285016137b7565b91505092915050565b600081519050919050565b600082825260208201905092915050565b6000613820826137f9565b61382a8185613804565b935061383a818560208601612a4f565b61384381612a79565b840191505092915050565b60006080820190506138636000830187612b7a565b6138706020830186612b7a565b61387d6040830185612c50565b818103606083015261388f8184613815565b905095945050505050565b6000815190506138a9816129a4565b92915050565b6000602082840312156138c5576138c461296e565b5b60006138d38482850161389a565b91505092915050565b7f4e487b7100000000000000000000000000000000000000000000000000000000600052601260045260246000fd5b600061391682612ae5565b915061392183612ae5565b9250828203905081811115613939576139386131cf565b5b92915050565b7f4e487b7100000000000000000000000000000000000000000000000000000000600052603160045260246000fdfea2646970667358221220bba72e91f9da6d5765a7b43ee43de208ec1b4801308f57c4778add55f0ce425f64736f6c63430008180033",
  "linkReferences": {},
  "deployedLinkReferences": {}
}