{
  "_format": "hh-sol-artifact-1",
  "contractName": "PolysportNFT",
  "sourceName": "contracts/PolysportNFT.sol",
  "abi": [
    {
      "inputs": [
        {
          "internalType": "string",
          "name": "_baseUri",
          "type": "string"
        },
        {
          "internalType": "uint256",
          "name": "_grades",
          "type": "uint256"
        },
        {
          "internalType": "uint256[]",
          "name": "_cost",
          "type": "uint256[]"
        },
        {
          "internalType": "uint256[]",
          "name": "_nativeCost",
          "type": "uint256[]"
        },
        {
          "internalType": "address payable",
          "name": "_saleWallet",
          "type": "address"
        },
        {
          "internalType": "address",
          "name": "_paymentToken",
          "type": "address"
        }
      ],
      "stateMutability": "nonpayable",
      "type": "constructor"
    },
    {
      "inputs": [],
      "name": "ERC721EnumerableForbiddenBatchMint",
      "type": "error"
    },
    {
      "inputs": [
        {
          "internalType": "address",
          "name": "sender",
          "type": "address"
        },
        {
          "internalType": "uint256",
          "name": "tokenId",
          "type": "uint256"
        },
        {
          "internalType": "address",
          "name": "owner",
          "type": "address"
        }
      ],
      "name": "ERC721IncorrectOwner",
      "type": "error"
    },
    {
      "inputs": [
        {
          "internalType": "address",
          "name": "operator",
          "type": "address"
        },
        {
          "internalType": "uint256",
          "name": "tokenId",
          "type": "uint256"
        }
      ],
      "name": "ERC721InsufficientApproval",
      "type": "error"
    },
    {
      "inputs": [
        {
          "internalType": "address",
          "name": "approver",
          "type": "address"
        }
      ],
      "name": "ERC721InvalidApprover",
      "type": "error"
    },
    {
      "inputs": [
        {
          "internalType": "address",
          "name": "operator",
          "type": "address"
        }
      ],
      "name": "ERC721InvalidOperator",
      "type": "error"
    },
    {
      "inputs": [
        {
          "internalType": "address",
          "name": "owner",
          "type": "address"
        }
      ],
      "name": "ERC721InvalidOwner",
      "type": "error"
    },
    {
      "inputs": [
        {
          "internalType": "address",
          "name": "receiver",
          "type": "address"
        }
      ],
      "name": "ERC721InvalidReceiver",
      "type": "error"
    },
    {
      "inputs": [
        {
          "internalType": "address",
          "name": "sender",
          "type": "address"
        }
      ],
      "name": "ERC721InvalidSender",
      "type": "error"
    },
    {
      "inputs": [
        {
          "internalType": "uint256",
          "name": "tokenId",
          "type": "uint256"
        }
      ],
      "name": "ERC721NonexistentToken",
      "type": "error"
    },
    {
      "inputs": [
        {
          "internalType": "address",
          "name": "owner",
          "type": "address"
        },
        {
          "internalType": "uint256",
          "name": "index",
          "type": "uint256"
        }
      ],
      "name": "ERC721OutOfBoundsIndex",
      "type": "error"
    },
    {
      "inputs": [
        {
          "internalType": "address",
          "name": "owner",
          "type": "address"
        }
      ],
      "name": "OwnableInvalidOwner",
      "type": "error"
    },
    {
      "inputs": [
        {
          "internalType": "address",
          "name": "account",
          "type": "address"
        }
      ],
      "name": "OwnableUnauthorizedAccount",
      "type": "error"
    },
    {
      "inputs": [],
      "name": "ReentrancyGuardReentrantCall",
      "type": "error"
    },
    {
      "anonymous": false,
      "inputs": [
        {
          "indexed": true,
          "internalType": "address",
          "name": "owner",
          "type": "address"
        },
        {
          "indexed": true,
          "internalType": "address",
          "name": "approved",
          "type": "address"
        },
        {
          "indexed": true,
          "internalType": "uint256",
          "name": "tokenId",
          "type": "uint256"
        }
      ],
      "name": "Approval",
      "type": "event"
    },
    {
      "anonymous": false,
      "inputs": [
        {
          "indexed": true,
          "internalType": "address",
          "name": "owner",
          "type": "address"
        },
        {
          "indexed": true,
          "internalType": "address",
          "name": "operator",
          "type": "address"
        },
        {
          "indexed": false,
          "internalType": "bool",
          "name": "approved",
          "type": "bool"
        }
      ],
      "name": "ApprovalForAll",
      "type": "event"
    },
    {
      "anonymous": false,
      "inputs": [
        {
          "indexed": true,
          "internalType": "address",
          "name": "purchaser",
          "type": "address"
        },
        {
          "indexed": true,
          "internalType": "uint256",
          "name": "id",
          "type": "uint256"
        },
        {
          "indexed": true,
          "internalType": "uint256",
          "name": "grade",
          "type": "uint256"
        }
      ],
      "name": "NFTMinted",
      "type": "event"
    },
    {
      "anonymous": false,
      "inputs": [
        {
          "indexed": true,
          "internalType": "address",
          "name": "previousOwner",
          "type": "address"
        },
        {
          "indexed": true,
          "internalType": "address",
          "name": "newOwner",
          "type": "address"
        }
      ],
      "name": "OwnershipTransferred",
      "type": "event"
    },
    {
      "anonymous": false,
      "inputs": [
        {
          "indexed": true,
          "internalType": "address",
          "name": "from",
          "type": "address"
        },
        {
          "indexed": true,
          "internalType": "address",
          "name": "to",
          "type": "address"
        },
        {
          "indexed": true,
          "internalType": "uint256",
          "name": "tokenId",
          "type": "uint256"
        }
      ],
      "name": "Transfer",
      "type": "event"
    },
    {
      "inputs": [
        {
          "internalType": "address",
          "name": "to",
          "type": "address"
        },
        {
          "internalType": "uint256",
          "name": "tokenId",
          "type": "uint256"
        }
      ],
      "name": "approve",
      "outputs": [],
      "stateMutability": "nonpayable",
      "type": "function"
    },
    {
      "inputs": [
        {
          "internalType": "address",
          "name": "owner",
          "type": "address"
        }
      ],
      "name": "balanceOf",
      "outputs": [
        {
          "internalType": "uint256",
          "name": "",
          "type": "uint256"
        }
      ],
      "stateMutability": "view",
      "type": "function"
    },
    {
      "inputs": [],
      "name": "baseUri",
      "outputs": [
        {
          "internalType": "string",
          "name": "",
          "type": "string"
        }
      ],
      "stateMutability": "view",
      "type": "function"
    },
    {
      "inputs": [
        {
          "internalType": "uint256",
          "name": "tokenId",
          "type": "uint256"
        }
      ],
      "name": "burn",
      "outputs": [],
      "stateMutability": "nonpayable",
      "type": "function"
    },
    {
      "inputs": [
        {
          "internalType": "uint256",
          "name": "",
          "type": "uint256"
        }
      ],
      "name": "cost",
      "outputs": [
        {
          "internalType": "uint256",
          "name": "",
          "type": "uint256"
        }
      ],
      "stateMutability": "view",
      "type": "function"
    },
    {
      "inputs": [
        {
          "internalType": "uint256",
          "name": "tokenId",
          "type": "uint256"
        }
      ],
      "name": "getApproved",
      "outputs": [
        {
          "internalType": "address",
          "name": "",
          "type": "address"
        }
      ],
      "stateMutability": "view",
      "type": "function"
    },
    {
      "inputs": [
        {
          "internalType": "address",
          "name": "owner",
          "type": "address"
        },
        {
          "internalType": "address",
          "name": "operator",
          "type": "address"
        }
      ],
      "name": "isApprovedForAll",
      "outputs": [
        {
          "internalType": "bool",
          "name": "",
          "type": "bool"
        }
      ],
      "stateMutability": "view",
      "type": "function"
    },
    {
      "inputs": [
        {
          "internalType": "uint256",
          "name": "_mintAmount",
          "type": "uint256"
        },
        {
          "internalType": "uint256",
          "name": "_grade",
          "type": "uint256"
        }
      ],
      "name": "mint",
      "outputs": [],
      "stateMutability": "nonpayable",
      "type": "function"
    },
    {
      "inputs": [
        {
          "internalType": "uint256",
          "name": "_mintAmount",
          "type": "uint256"
        },
        {
          "internalType": "uint256",
          "name": "_grade",
          "type": "uint256"
        }
      ],
      "name": "mintWithNative",
      "outputs": [],
      "stateMutability": "payable",
      "type": "function"
    },
    {
      "inputs": [],
      "name": "name",
      "outputs": [
        {
          "internalType": "string",
          "name": "",
          "type": "string"
        }
      ],
      "stateMutability": "view",
      "type": "function"
    },
    {
      "inputs": [
        {
          "internalType": "uint256",
          "name": "",
          "type": "uint256"
        }
      ],
      "name": "nativeCost",
      "outputs": [
        {
          "internalType": "uint256",
          "name": "",
          "type": "uint256"
        }
      ],
      "stateMutability": "view",
      "type": "function"
    },
    {
      "inputs": [],
      "name": "owner",
      "outputs": [
        {
          "internalType": "address",
          "name": "",
          "type": "address"
        }
      ],
      "stateMutability": "view",
      "type": "function"
    },
    {
      "inputs": [
        {
          "internalType": "uint256",
          "name": "tokenId",
          "type": "uint256"
        }
      ],
      "name": "ownerOf",
      "outputs": [
        {
          "internalType": "address",
          "name": "",
          "type": "address"
        }
      ],
      "stateMutability": "view",
      "type": "function"
    },
    {
      "inputs": [],
      "name": "paymentToken",
      "outputs": [
        {
          "internalType": "address",
          "name": "",
          "type": "address"
        }
      ],
      "stateMutability": "view",
      "type": "function"
    },
    {
      "inputs": [],
      "name": "renounceOwnership",
      "outputs": [],
      "stateMutability": "nonpayable",
      "type": "function"
    },
    {
      "inputs": [
        {
          "internalType": "address",
          "name": "from",
          "type": "address"
        },
        {
          "internalType": "address",
          "name": "to",
          "type": "address"
        },
        {
          "internalType": "uint256",
          "name": "tokenId",
          "type": "uint256"
        }
      ],
      "name": "safeTransferFrom",
      "outputs": [],
      "stateMutability": "nonpayable",
      "type": "function"
    },
    {
      "inputs": [
        {
          "internalType": "address",
          "name": "from",
          "type": "address"
        },
        {
          "internalType": "address",
          "name": "to",
          "type": "address"
        },
        {
          "internalType": "uint256",
          "name": "tokenId",
          "type": "uint256"
        },
        {
          "internalType": "bytes",
          "name": "data",
          "type": "bytes"
        }
      ],
      "name": "safeTransferFrom",
      "outputs": [],
      "stateMutability": "nonpayable",
      "type": "function"
    },
    {
      "inputs": [],
      "name": "saleWallet",
      "outputs": [
        {
          "internalType": "address payable",
          "name": "",
          "type": "address"
        }
      ],
      "stateMutability": "view",
      "type": "function"
    },
    {
      "inputs": [
        {
          "internalType": "address",
          "name": "operator",
          "type": "address"
        },
        {
          "internalType": "bool",
          "name": "approved",
          "type": "bool"
        }
      ],
      "name": "setApprovalForAll",
      "outputs": [],
      "stateMutability": "nonpayable",
      "type": "function"
    },
    {
      "inputs": [
        {
          "internalType": "string",
          "name": "_baseUri",
          "type": "string"
        }
      ],
      "name": "setBaseURI",
      "outputs": [],
      "stateMutability": "nonpayable",
      "type": "function"
    },
    {
      "inputs": [
        {
          "internalType": "uint256",
          "name": "_grade",
          "type": "uint256"
        },
        {
          "internalType": "uint256",
          "name": "_cost",
          "type": "uint256"
        }
      ],
      "name": "setCost",
      "outputs": [],
      "stateMutability": "nonpayable",
      "type": "function"
    },
    {
      "inputs": [
        {
          "internalType": "uint256",
          "name": "_grade",
          "type": "uint256"
        },
        {
          "internalType": "uint256",
          "name": "_nativeCost",
          "type": "uint256"
        }
      ],
      "name": "setNativeCost",
      "outputs": [],
      "stateMutability": "nonpayable",
      "type": "function"
    },
    {
      "inputs": [
        {
          "internalType": "address",
          "name": "_paymentToken",
          "type": "address"
        }
      ],
      "name": "setPaymentToken",
      "outputs": [],
      "stateMutability": "nonpayable",
      "type": "function"
    },
    {
      "inputs": [
        {
          "internalType": "address payable",
          "name": "_saleWallet",
          "type": "address"
        }
      ],
      "name": "setSaleWallet",
      "outputs": [],
      "stateMutability": "nonpayable",
      "type": "function"
    },
    {
      "inputs": [
        {
          "internalType": "bytes4",
          "name": "interfaceId",
          "type": "bytes4"
        }
      ],
      "name": "supportsInterface",
      "outputs": [
        {
          "internalType": "bool",
          "name": "",
          "type": "bool"
        }
      ],
      "stateMutability": "pure",
      "type": "function"
    },
    {
      "inputs": [],
      "name": "symbol",
      "outputs": [
        {
          "internalType": "string",
          "name": "",
          "type": "string"
        }
      ],
      "stateMutability": "view",
      "type": "function"
    },
    {
      "inputs": [
        {
          "internalType": "uint256",
          "name": "index",
          "type": "uint256"
        }
      ],
      "name": "tokenByIndex",
      "outputs": [
        {
          "internalType": "uint256",
          "name": "",
          "type": "uint256"
        }
      ],
      "stateMutability": "view",
      "type": "function"
    },
    {
      "inputs": [],
      "name": "tokenIdCounter",
      "outputs": [
        {
          "internalType": "uint256",
          "name": "",
          "type": "uint256"
        }
      ],
      "stateMutability": "view",
      "type": "function"
    },
    {
      "inputs": [
        {
          "internalType": "address",
          "name": "owner",
          "type": "address"
        },
        {
          "internalType": "uint256",
          "name": "index",
          "type": "uint256"
        }
      ],
      "name": "tokenOfOwnerByIndex",
      "outputs": [
        {
          "internalType": "uint256",
          "name": "",
          "type": "uint256"
        }
      ],
      "stateMutability": "view",
      "type": "function"
    },
    {
      "inputs": [
        {
          "internalType": "uint256",
          "name": "tokenId",
          "type": "uint256"
        }
      ],
      "name": "tokenURI",
      "outputs": [
        {
          "internalType": "string",
          "name": "",
          "type": "string"
        }
      ],
      "stateMutability": "view",
      "type": "function"
    },
    {
      "inputs": [],
      "name": "totalSupply",
      "outputs": [
        {
          "internalType": "uint256",
          "name": "",
          "type": "uint256"
        }
      ],
      "stateMutability": "view",
      "type": "function"
    },
    {
      "inputs": [
        {
          "internalType": "address",
          "name": "from",
          "type": "address"
        },
        {
          "internalType": "address",
          "name": "to",
          "type": "address"
        },
        {
          "internalType": "uint256",
          "name": "tokenId",
          "type": "uint256"
        }
      ],
      "name": "transferFrom",
      "outputs": [],
      "stateMutability": "nonpayable",
      "type": "function"
    },
    {
      "inputs": [
        {
          "internalType": "address",
          "name": "newOwner",
          "type": "address"
        }
      ],
      "name": "transferOwnership",
      "outputs": [],
      "stateMutability": "nonpayable",
      "type": "function"
    }
  ],
  "bytecode": "0x60806040523480156200001157600080fd5b506040516200447438038062004474833981810160405281019062000037919062000694565b6040518060400160405280600981526020017f506f6c7973706f727400000000000000000000000000000000000000000000008152506040518060400160405280600481526020017f504f4c590000000000000000000000000000000000000000000000000000000081525033600073ffffffffffffffffffffffffffffffffffffffff168173ffffffffffffffffffffffffffffffffffffffff1603620001195760006040517f1e4fbdf70000000000000000000000000000000000000000000000000000000081526004016200011091906200079e565b60405180910390fd5b6200012a816200027d60201b60201c565b50600180819055508160029081620001439190620009fc565b508060039081620001559190620009fc565b50505085600d9081620001699190620009fc565b5060005b85811015620001ee578481815181106200018c576200018b62000ae3565b5b6020026020010151600e600083815260200190815260200160002081905550838181518110620001c157620001c062000ae3565b5b6020026020010151600f60008381526020019081526020016000208190555080806001019150506200016d565b5081601060006101000a81548173ffffffffffffffffffffffffffffffffffffffff021916908373ffffffffffffffffffffffffffffffffffffffff16021790555080601160006101000a81548173ffffffffffffffffffffffffffffffffffffffff021916908373ffffffffffffffffffffffffffffffffffffffff16021790555050505050505062000b12565b60008060009054906101000a900473ffffffffffffffffffffffffffffffffffffffff169050816000806101000a81548173ffffffffffffffffffffffffffffffffffffffff021916908373ffffffffffffffffffffffffffffffffffffffff1602179055508173ffffffffffffffffffffffffffffffffffffffff168173ffffffffffffffffffffffffffffffffffffffff167f8be0079c531659141344cd1fd0a4f28419497f9722a3daafe3b4186f6b6457e060405160405180910390a35050565b6000604051905090565b600080fd5b600080fd5b600080fd5b600080fd5b6000601f19601f8301169050919050565b7f4e487b7100000000000000000000000000000000000000000000000000000000600052604160045260246000fd5b620003aa826200035f565b810181811067ffffffffffffffff82111715620003cc57620003cb62000370565b5b80604052505050565b6000620003e162000341565b9050620003ef82826200039f565b919050565b600067ffffffffffffffff82111562000412576200041162000370565b5b6200041d826200035f565b9050602081019050919050565b60005b838110156200044a5780820151818401526020810190506200042d565b60008484015250505050565b60006200046d6200046784620003f4565b620003d5565b9050828152602081018484840111156200048c576200048b6200035a565b5b620004998482856200042a565b509392505050565b600082601f830112620004b957620004b862000355565b5b8151620004cb84826020860162000456565b91505092915050565b6000819050919050565b620004e981620004d4565b8114620004f557600080fd5b50565b6000815190506200050981620004de565b92915050565b600067ffffffffffffffff8211156200052d576200052c62000370565b5b602082029050602081019050919050565b600080fd5b60006200055a62000554846200050f565b620003d5565b9050808382526020820190506020840283018581111562000580576200057f6200053e565b5b835b81811015620005ad5780620005988882620004f8565b84526020840193505060208101905062000582565b5050509392505050565b600082601f830112620005cf57620005ce62000355565b5b8151620005e184826020860162000543565b91505092915050565b600073ffffffffffffffffffffffffffffffffffffffff82169050919050565b60006200061782620005ea565b9050919050565b62000629816200060a565b81146200063557600080fd5b50565b60008151905062000649816200061e565b92915050565b60006200065c82620005ea565b9050919050565b6200066e816200064f565b81146200067a57600080fd5b50565b6000815190506200068e8162000663565b92915050565b60008060008060008060c08789031215620006b457620006b36200034b565b5b600087015167ffffffffffffffff811115620006d557620006d462000350565b5b620006e389828a01620004a1565b9650506020620006f689828a01620004f8565b955050604087015167ffffffffffffffff8111156200071a576200071962000350565b5b6200072889828a01620005b7565b945050606087015167ffffffffffffffff8111156200074c576200074b62000350565b5b6200075a89828a01620005b7565b93505060806200076d89828a0162000638565b92505060a06200078089828a016200067d565b9150509295509295509295565b62000798816200064f565b82525050565b6000602082019050620007b560008301846200078d565b92915050565b600081519050919050565b7f4e487b7100000000000000000000000000000000000000000000000000000000600052602260045260246000fd5b600060028204905060018216806200080e57607f821691505b602082108103620008245762000823620007c6565b5b50919050565b60008190508160005260206000209050919050565b60006020601f8301049050919050565b600082821b905092915050565b6000600883026200088e7fffffffffffffffffffffffffffffffffffffffffffffffffffffffffffffffff826200084f565b6200089a86836200084f565b95508019841693508086168417925050509392505050565b6000819050919050565b6000620008dd620008d7620008d184620004d4565b620008b2565b620004d4565b9050919050565b6000819050919050565b620008f983620008bc565b620009116200090882620008e4565b8484546200085c565b825550505050565b600090565b6200092862000919565b62000935818484620008ee565b505050565b5b818110156200095d57620009516000826200091e565b6001810190506200093b565b5050565b601f821115620009ac5762000976816200082a565b62000981846200083f565b8101602085101562000991578190505b620009a9620009a0856200083f565b8301826200093a565b50505b505050565b600082821c905092915050565b6000620009d160001984600802620009b1565b1980831691505092915050565b6000620009ec8383620009be565b9150826002028217905092915050565b62000a0782620007bb565b67ffffffffffffffff81111562000a235762000a2262000370565b5b62000a2f8254620007f5565b62000a3c82828562000961565b600060209050601f83116001811462000a74576000841562000a5f578287015190505b62000a6b8582620009de565b86555062000adb565b601f19841662000a84866200082a565b60005b8281101562000aae5784890151825560018201915060208501945060208101905062000a87565b8683101562000ace578489015162000aca601f891682620009be565b8355505b6001600288020188555050505b505050505050565b7f4e487b7100000000000000000000000000000000000000000000000000000000600052603260045260246000fd5b6139528062000b226000396000f3fe6080604052600436106101ee5760003560e01c80636a326ab11161010d578063967f4503116100a0578063a22cb4651161006f578063a22cb46514610700578063b88d4fde14610729578063c87b56dd14610752578063e985e9c51461078f578063f2fde38b146107cc576101ee565b8063967f45031461066557806398bdf6f51461068157806399dcc518146106ac5780639abc8320146106d5576101ee565b80637c4db77d116100dc5780637c4db77d146105a75780638da5cb5b146105d25780639097548d146105fd57806395d89b411461063a576101ee565b80636a326ab11461050157806370a082311461052a578063715018a6146105675780637696e0881461057e576101ee565b80632f745c59116101855780634f6ccce7116101545780634f6ccce71461042157806355f804b31461045e5780636352211e14610487578063663d2269146104c4576101ee565b80632f745c59146103675780633013ce29146103a457806342842e0e146103cf57806342966c68146103f8576101ee565b80630fa8d85c116101c15780630fa8d85c146102c157806318160ddd146102ea5780631b2ef1ca1461031557806323b872dd1461033e576101ee565b806301ffc9a7146101f357806306fdde0314610230578063081812fc1461025b578063095ea7b314610298575b600080fd5b3480156101ff57600080fd5b5061021a6004803603810190610215919061297e565b6107f5565b60405161022791906129c6565b60405180910390f35b34801561023c57600080fd5b50610245610997565b6040516102529190612a71565b60405180910390f35b34801561026757600080fd5b50610282600480360381019061027d9190612ac9565b610a29565b60405161028f9190612b37565b60405180910390f35b3480156102a457600080fd5b506102bf60048036038101906102ba9190612b7e565b610a45565b005b3480156102cd57600080fd5b506102e860048036038101906102e39190612bbe565b610a5b565b005b3480156102f657600080fd5b506102ff610a7f565b60405161030c9190612c0d565b60405180910390f35b34801561032157600080fd5b5061033c60048036038101906103379190612bbe565b610a8c565b005b34801561034a57600080fd5b5061036560048036038101906103609190612c28565b610b43565b005b34801561037357600080fd5b5061038e60048036038101906103899190612b7e565b610c45565b60405161039b9190612c0d565b60405180910390f35b3480156103b057600080fd5b506103b9610cee565b6040516103c69190612b37565b60405180910390f35b3480156103db57600080fd5b506103f660048036038101906103f19190612c28565b610d14565b005b34801561040457600080fd5b5061041f600480360381019061041a9190612ac9565b610d34565b005b34801561042d57600080fd5b5061044860048036038101906104439190612ac9565b610dbe565b6040516104559190612c0d565b60405180910390f35b34801561046a57600080fd5b5061048560048036038101906104809190612db0565b610e34565b005b34801561049357600080fd5b506104ae60048036038101906104a99190612ac9565b610e4f565b6040516104bb9190612b37565b60405180910390f35b3480156104d057600080fd5b506104eb60048036038101906104e69190612ac9565b610e61565b6040516104f89190612c0d565b60405180910390f35b34801561050d57600080fd5b5061052860048036038101906105239190612df9565b610e79565b005b34801561053657600080fd5b50610551600480360381019061054c9190612df9565b610ec5565b60405161055e9190612c0d565b60405180910390f35b34801561057357600080fd5b5061057c610f7f565b005b34801561058a57600080fd5b506105a560048036038101906105a09190612bbe565b610f93565b005b3480156105b357600080fd5b506105bc610fb7565b6040516105c99190612e47565b60405180910390f35b3480156105de57600080fd5b506105e7610fdd565b6040516105f49190612b37565b60405180910390f35b34801561060957600080fd5b50610624600480360381019061061f9190612ac9565b611006565b6040516106319190612c0d565b60405180910390f35b34801561064657600080fd5b5061064f61101e565b60405161065c9190612a71565b60405180910390f35b61067f600480360381019061067a9190612bbe565b6110b0565b005b34801561068d57600080fd5b50610696611174565b6040516106a39190612c0d565b60405180910390f35b3480156106b857600080fd5b506106d360048036038101906106ce9190612e8e565b61117a565b005b3480156106e157600080fd5b506106ea6111c6565b6040516106f79190612a71565b60405180910390f35b34801561070c57600080fd5b5061072760048036038101906107229190612ee7565b611254565b005b34801561073557600080fd5b50610750600480360381019061074b9190612fc8565b61126a565b005b34801561075e57600080fd5b5061077960048036038101906107749190612ac9565b611287565b6040516107869190612a71565b60405180910390f35b34801561079b57600080fd5b506107b660048036038101906107b1919061304b565b6112f1565b6040516107c391906129c6565b60405180910390f35b3480156107d857600080fd5b506107f360048036038101906107ee9190612df9565b611385565b005b60007f80ac58cd000000000000000000000000000000000000000000000000000000007bffffffffffffffffffffffffffffffffffffffffffffffffffffffff1916827bffffffffffffffffffffffffffffffffffffffffffffffffffffffff191614806108c057507f01ffc9a7000000000000000000000000000000000000000000000000000000007bffffffffffffffffffffffffffffffffffffffffffffffffffffffff1916827bffffffffffffffffffffffffffffffffffffffffffffffffffffffff1916145b8061092857507fcfc7d8a1000000000000000000000000000000000000000000000000000000007bffffffffffffffffffffffffffffffffffffffffffffffffffffffff1916827bffffffffffffffffffffffffffffffffffffffffffffffffffffffff1916145b8061099057507f780e9d63000000000000000000000000000000000000000000000000000000007bffffffffffffffffffffffffffffffffffffffffffffffffffffffff1916827bffffffffffffffffffffffffffffffffffffffffffffffffffffffff1916145b9050919050565b6060600280546109a6906130ba565b80601f01602080910402602001604051908101604052809291908181526020018280546109d2906130ba565b8015610a1f5780601f106109f457610100808354040283529160200191610a1f565b820191906000526020600020905b815481529060010190602001808311610a0257829003601f168201915b5050505050905090565b6000610a348261140b565b50610a3e82611493565b9050919050565b610a578282610a526114d0565b6114d8565b5050565b610a636114ea565b80600f6000848152602001908152602001600020819055505050565b6000600a80549050905090565b60008211610a9957600080fd5b6000600e60008381526020019081526020016000205411610aef576040517f08c379a0000000000000000000000000000000000000000000000000000000008152600401610ae69061315d565b60405180910390fd5b600082600e600084815260200190815260200160002054610b1091906131ac565b905060005b83811015610b3457610b273384611571565b8080600101915050610b15565b50610b3e816115f1565b505050565b600073ffffffffffffffffffffffffffffffffffffffff168273ffffffffffffffffffffffffffffffffffffffff1603610bb55760006040517f64a0ae92000000000000000000000000000000000000000000000000000000008152600401610bac9190612b37565b60405180910390fd5b6000610bc98383610bc46114d0565b6116b9565b90508373ffffffffffffffffffffffffffffffffffffffff168173ffffffffffffffffffffffffffffffffffffffff1614610c3f578382826040517f64283d7b000000000000000000000000000000000000000000000000000000008152600401610c36939291906131ee565b60405180910390fd5b50505050565b6000610c5083610ec5565b8210610c955782826040517fa57d13dc000000000000000000000000000000000000000000000000000000008152600401610c8c929190613225565b60405180910390fd5b600860008473ffffffffffffffffffffffffffffffffffffffff1673ffffffffffffffffffffffffffffffffffffffff168152602001908152602001600020600083815260200190815260200160002054905092915050565b601160009054906101000a900473ffffffffffffffffffffffffffffffffffffffff1681565b610d2f8383836040518060200160405280600081525061126a565b505050565b3373ffffffffffffffffffffffffffffffffffffffff16610d54826116cf565b73ffffffffffffffffffffffffffffffffffffffff161480610da957503373ffffffffffffffffffffffffffffffffffffffff16610d9182611493565b73ffffffffffffffffffffffffffffffffffffffff16145b610db257600080fd5b610dbb8161170c565b50565b6000610dc8610a7f565b8210610e0e576000826040517fa57d13dc000000000000000000000000000000000000000000000000000000008152600401610e05929190613225565b60405180910390fd5b600a8281548110610e2257610e2161324e565b5b90600052602060002001549050919050565b610e3c6114ea565b80600d9081610e4b9190613429565b5050565b6000610e5a8261140b565b9050919050565b600f6020528060005260406000206000915090505481565b610e816114ea565b80601160006101000a81548173ffffffffffffffffffffffffffffffffffffffff021916908373ffffffffffffffffffffffffffffffffffffffff16021790555050565b60008073ffffffffffffffffffffffffffffffffffffffff168273ffffffffffffffffffffffffffffffffffffffff1603610f385760006040517f89c62b64000000000000000000000000000000000000000000000000000000008152600401610f2f9190612b37565b60405180910390fd5b600560008373ffffffffffffffffffffffffffffffffffffffff1673ffffffffffffffffffffffffffffffffffffffff168152602001908152602001600020549050919050565b610f876114ea565b610f916000611792565b565b610f9b6114ea565b80600e6000848152602001908152602001600020819055505050565b601060009054906101000a900473ffffffffffffffffffffffffffffffffffffffff1681565b60008060009054906101000a900473ffffffffffffffffffffffffffffffffffffffff16905090565b600e6020528060005260406000206000915090505481565b60606003805461102d906130ba565b80601f0160208091040260200160405190810160405280929190818152602001828054611059906130ba565b80156110a65780601f1061107b576101008083540402835291602001916110a6565b820191906000526020600020905b81548152906001019060200180831161108957829003601f168201915b5050505050905090565b600082116110bd57600080fd5b6000600f60008381526020019081526020016000205411611113576040517f08c379a000000000000000000000000000000000000000000000000000000000815260040161110a9061356d565b60405180910390fd5b600082600f60008481526020019081526020016000205461113491906131ac565b90508034101561114357600080fd5b60005b83811015611165576111583384611571565b8080600101915050611146565b5061116f81611856565b505050565b600c5481565b6111826114ea565b80601060006101000a81548173ffffffffffffffffffffffffffffffffffffffff021916908373ffffffffffffffffffffffffffffffffffffffff16021790555050565b600d80546111d3906130ba565b80601f01602080910402602001604051908101604052809291908181526020018280546111ff906130ba565b801561124c5780601f106112215761010080835404028352916020019161124c565b820191906000526020600020905b81548152906001019060200180831161122f57829003601f168201915b505050505081565b61126661125f6114d0565b83836118c2565b5050565b611275848484610b43565b61128184848484611a31565b50505050565b60606112928261140b565b506000600d80546112a2906130ba565b9050116112be57604051806020016040528060008152506112ea565b600d6112c983611be8565b6040516020016112da929190613672565b6040516020818303038152906040525b9050919050565b6000600760008473ffffffffffffffffffffffffffffffffffffffff1673ffffffffffffffffffffffffffffffffffffffff16815260200190815260200160002060008373ffffffffffffffffffffffffffffffffffffffff1673ffffffffffffffffffffffffffffffffffffffff16815260200190815260200160002060009054906101000a900460ff16905092915050565b61138d6114ea565b600073ffffffffffffffffffffffffffffffffffffffff168173ffffffffffffffffffffffffffffffffffffffff16036113ff5760006040517f1e4fbdf70000000000000000000000000000000000000000000000000000000081526004016113f69190612b37565b60405180910390fd5b61140881611792565b50565b600080611417836116cf565b9050600073ffffffffffffffffffffffffffffffffffffffff168173ffffffffffffffffffffffffffffffffffffffff160361148a57826040517f7e2732890000000000000000000000000000000000000000000000000000000081526004016114819190612c0d565b60405180910390fd5b80915050919050565b60006006600083815260200190815260200160002060009054906101000a900473ffffffffffffffffffffffffffffffffffffffff169050919050565b600033905090565b6114e58383836001611cb6565b505050565b6114f26114d0565b73ffffffffffffffffffffffffffffffffffffffff16611510610fdd565b73ffffffffffffffffffffffffffffffffffffffff161461156f576115336114d0565b6040517f118cdaa70000000000000000000000000000000000000000000000000000000081526004016115669190612b37565b60405180910390fd5b565b611579611e7b565b6000600c5490506001600c5461158f91906136a5565b600c8190555061159f8382611ec1565b81818473ffffffffffffffffffffffffffffffffffffffff167f3a8a89b59a31c39a36febecb987e0657ab7b7c73b60ebacb44dcb9886c2d5c8a60405160405180910390a4506115ed611edf565b5050565b601160009054906101000a900473ffffffffffffffffffffffffffffffffffffffff1673ffffffffffffffffffffffffffffffffffffffff166323b872dd33601060009054906101000a900473ffffffffffffffffffffffffffffffffffffffff16846040518463ffffffff1660e01b81526004016116729392919061372e565b6020604051808303816000875af1158015611691573d6000803e3d6000fd5b505050506040513d601f19601f820116820180604052508101906116b5919061377a565b5050565b60006116c6848484611ee8565b90509392505050565b60006004600083815260200190815260200160002060009054906101000a900473ffffffffffffffffffffffffffffffffffffffff169050919050565b600061171b60008360006116b9565b9050600073ffffffffffffffffffffffffffffffffffffffff168173ffffffffffffffffffffffffffffffffffffffff160361178e57816040517f7e2732890000000000000000000000000000000000000000000000000000000081526004016117859190612c0d565b60405180910390fd5b5050565b60008060009054906101000a900473ffffffffffffffffffffffffffffffffffffffff169050816000806101000a81548173ffffffffffffffffffffffffffffffffffffffff021916908373ffffffffffffffffffffffffffffffffffffffff1602179055508173ffffffffffffffffffffffffffffffffffffffff168173ffffffffffffffffffffffffffffffffffffffff167f8be0079c531659141344cd1fd0a4f28419497f9722a3daafe3b4186f6b6457e060405160405180910390a35050565b601060009054906101000a900473ffffffffffffffffffffffffffffffffffffffff1673ffffffffffffffffffffffffffffffffffffffff166108fc829081150290604051600060405180830381858888f193505050501580156118be573d6000803e3d6000fd5b5050565b600073ffffffffffffffffffffffffffffffffffffffff168273ffffffffffffffffffffffffffffffffffffffff160361193357816040517f5b08ba1800000000000000000000000000000000000000000000000000000000815260040161192a9190612b37565b60405180910390fd5b80600760008573ffffffffffffffffffffffffffffffffffffffff1673ffffffffffffffffffffffffffffffffffffffff16815260200190815260200160002060008473ffffffffffffffffffffffffffffffffffffffff1673ffffffffffffffffffffffffffffffffffffffff16815260200190815260200160002060006101000a81548160ff0219169083151502179055508173ffffffffffffffffffffffffffffffffffffffff168373ffffffffffffffffffffffffffffffffffffffff167f17307eab39ab6107e8899845ad3d59bd9653f200f220920489ca2b5937696c3183604051611a2491906129c6565b60405180910390a3505050565b60008373ffffffffffffffffffffffffffffffffffffffff163b1115611be2578273ffffffffffffffffffffffffffffffffffffffff1663150b7a02611a756114d0565b8685856040518563ffffffff1660e01b8152600401611a9794939291906137fc565b6020604051808303816000875af1925050508015611ad357506040513d601f19601f82011682018060405250810190611ad0919061385d565b60015b611b57573d8060008114611b03576040519150601f19603f3d011682016040523d82523d6000602084013e611b08565b606091505b506000815103611b4f57836040517f64a0ae92000000000000000000000000000000000000000000000000000000008152600401611b469190612b37565b60405180910390fd5b805181602001fd5b63150b7a0260e01b7bffffffffffffffffffffffffffffffffffffffffffffffffffffffff1916817bffffffffffffffffffffffffffffffffffffffffffffffffffffffff191614611be057836040517f64a0ae92000000000000000000000000000000000000000000000000000000008152600401611bd79190612b37565b60405180910390fd5b505b50505050565b606060006001611bf784612005565b01905060008167ffffffffffffffff811115611c1657611c15612c85565b5b6040519080825280601f01601f191660200182016040528015611c485781602001600182028036833780820191505090505b509050600082602001820190505b600115611cab578080600190039150507f3031323334353637383961626364656600000000000000000000000000000000600a86061a8153600a8581611c9f57611c9e61388a565b5b04945060008503611c56575b819350505050919050565b8080611cef5750600073ffffffffffffffffffffffffffffffffffffffff168273ffffffffffffffffffffffffffffffffffffffff1614155b15611e23576000611cff8461140b565b9050600073ffffffffffffffffffffffffffffffffffffffff168373ffffffffffffffffffffffffffffffffffffffff1614158015611d6a57508273ffffffffffffffffffffffffffffffffffffffff168173ffffffffffffffffffffffffffffffffffffffff1614155b8015611d7d5750611d7b81846112f1565b155b15611dbf57826040517fa9fbf51f000000000000000000000000000000000000000000000000000000008152600401611db69190612b37565b60405180910390fd5b8115611e2157838573ffffffffffffffffffffffffffffffffffffffff168273ffffffffffffffffffffffffffffffffffffffff167f8c5be1e5ebec7d5bd14f71427d1e84f3dd0314c0f7b2291e5b200ac8c7c3b92560405160405180910390a45b505b836006600085815260200190815260200160002060006101000a81548173ffffffffffffffffffffffffffffffffffffffff021916908373ffffffffffffffffffffffffffffffffffffffff16021790555050505050565b600260015403611eb7576040517f3ee5aeb500000000000000000000000000000000000000000000000000000000815260040160405180910390fd5b6002600181905550565b611edb828260405180602001604052806000815250612158565b5050565b60018081905550565b600080611ef6858585612174565b9050600073ffffffffffffffffffffffffffffffffffffffff168173ffffffffffffffffffffffffffffffffffffffff1603611f3a57611f358461238e565b611f79565b8473ffffffffffffffffffffffffffffffffffffffff168173ffffffffffffffffffffffffffffffffffffffff1614611f7857611f7781856123d7565b5b5b600073ffffffffffffffffffffffffffffffffffffffff168573ffffffffffffffffffffffffffffffffffffffff1603611fbb57611fb684612538565b611ffa565b8473ffffffffffffffffffffffffffffffffffffffff168173ffffffffffffffffffffffffffffffffffffffff1614611ff957611ff88585612609565b5b5b809150509392505050565b600080600090507a184f03e93ff9f4daa797ed6e38ed64bf6a1f0100000000000000008310612063577a184f03e93ff9f4daa797ed6e38ed64bf6a1f01000000000000000083816120595761205861388a565b5b0492506040810190505b6d04ee2d6d415b85acef810000000083106120a0576d04ee2d6d415b85acef810000000083816120965761209561388a565b5b0492506020810190505b662386f26fc1000083106120cf57662386f26fc1000083816120c5576120c461388a565b5b0492506010810190505b6305f5e10083106120f8576305f5e10083816120ee576120ed61388a565b5b0492506008810190505b612710831061211d5761271083816121135761211261388a565b5b0492506004810190505b6064831061214057606483816121365761213561388a565b5b0492506002810190505b600a831061214f576001810190505b80915050919050565b6121628383612694565b61216f6000848484611a31565b505050565b600080612180846116cf565b9050600073ffffffffffffffffffffffffffffffffffffffff168373ffffffffffffffffffffffffffffffffffffffff16146121c2576121c181848661278d565b5b600073ffffffffffffffffffffffffffffffffffffffff168173ffffffffffffffffffffffffffffffffffffffff161461225357612204600085600080611cb6565b6001600560008373ffffffffffffffffffffffffffffffffffffffff1673ffffffffffffffffffffffffffffffffffffffff168152602001908152602001600020600082825403925050819055505b600073ffffffffffffffffffffffffffffffffffffffff168573ffffffffffffffffffffffffffffffffffffffff16146122d6576001600560008773ffffffffffffffffffffffffffffffffffffffff1673ffffffffffffffffffffffffffffffffffffffff168152602001908152602001600020600082825401925050819055505b846004600086815260200190815260200160002060006101000a81548173ffffffffffffffffffffffffffffffffffffffff021916908373ffffffffffffffffffffffffffffffffffffffff160217905550838573ffffffffffffffffffffffffffffffffffffffff168273ffffffffffffffffffffffffffffffffffffffff167fddf252ad1be2c89b69c2b068fc378daa952ba7f163c4a11628f55a4df523b3ef60405160405180910390a4809150509392505050565b600a80549050600b600083815260200190815260200160002081905550600a81908060018154018082558091505060019003906000526020600020016000909190919091505550565b60006123e283610ec5565b90506000600960008481526020019081526020016000205490508181146124c7576000600860008673ffffffffffffffffffffffffffffffffffffffff1673ffffffffffffffffffffffffffffffffffffffff168152602001908152602001600020600084815260200190815260200160002054905080600860008773ffffffffffffffffffffffffffffffffffffffff1673ffffffffffffffffffffffffffffffffffffffff168152602001908152602001600020600084815260200190815260200160002081905550816009600083815260200190815260200160002081905550505b6009600084815260200190815260200160002060009055600860008573ffffffffffffffffffffffffffffffffffffffff1673ffffffffffffffffffffffffffffffffffffffff16815260200190815260200160002060008381526020019081526020016000206000905550505050565b60006001600a8054905061254c91906138b9565b90506000600b60008481526020019081526020016000205490506000600a838154811061257c5761257b61324e565b5b9060005260206000200154905080600a838154811061259e5761259d61324e565b5b906000526020600020018190555081600b600083815260200190815260200160002081905550600b600085815260200190815260200160002060009055600a8054806125ed576125ec6138ed565b5b6001900381819060005260206000200160009055905550505050565b6000600161261684610ec5565b61262091906138b9565b905081600860008573ffffffffffffffffffffffffffffffffffffffff1673ffffffffffffffffffffffffffffffffffffffff168152602001908152602001600020600083815260200190815260200160002081905550806009600084815260200190815260200160002081905550505050565b600073ffffffffffffffffffffffffffffffffffffffff168273ffffffffffffffffffffffffffffffffffffffff16036127065760006040517f64a0ae920000000000000000000000000000000000000000000000000000000081526004016126fd9190612b37565b60405180910390fd5b6000612714838360006116b9565b9050600073ffffffffffffffffffffffffffffffffffffffff168173ffffffffffffffffffffffffffffffffffffffff16146127885760006040517f73c6ac6e00000000000000000000000000000000000000000000000000000000815260040161277f9190612b37565b60405180910390fd5b505050565b612798838383612851565b61284c57600073ffffffffffffffffffffffffffffffffffffffff168373ffffffffffffffffffffffffffffffffffffffff160361280d57806040517f7e2732890000000000000000000000000000000000000000000000000000000081526004016128049190612c0d565b60405180910390fd5b81816040517f177e802f000000000000000000000000000000000000000000000000000000008152600401612843929190613225565b60405180910390fd5b505050565b60008073ffffffffffffffffffffffffffffffffffffffff168373ffffffffffffffffffffffffffffffffffffffff161415801561290957508273ffffffffffffffffffffffffffffffffffffffff168473ffffffffffffffffffffffffffffffffffffffff1614806128ca57506128c984846112f1565b5b8061290857508273ffffffffffffffffffffffffffffffffffffffff166128f083611493565b73ffffffffffffffffffffffffffffffffffffffff16145b5b90509392505050565b6000604051905090565b600080fd5b600080fd5b60007fffffffff0000000000000000000000000000000000000000000000000000000082169050919050565b61295b81612926565b811461296657600080fd5b50565b60008135905061297881612952565b92915050565b6000602082840312156129945761299361291c565b5b60006129a284828501612969565b91505092915050565b60008115159050919050565b6129c0816129ab565b82525050565b60006020820190506129db60008301846129b7565b92915050565b600081519050919050565b600082825260208201905092915050565b60005b83811015612a1b578082015181840152602081019050612a00565b60008484015250505050565b6000601f19601f8301169050919050565b6000612a43826129e1565b612a4d81856129ec565b9350612a5d8185602086016129fd565b612a6681612a27565b840191505092915050565b60006020820190508181036000830152612a8b8184612a38565b905092915050565b6000819050919050565b612aa681612a93565b8114612ab157600080fd5b50565b600081359050612ac381612a9d565b92915050565b600060208284031215612adf57612ade61291c565b5b6000612aed84828501612ab4565b91505092915050565b600073ffffffffffffffffffffffffffffffffffffffff82169050919050565b6000612b2182612af6565b9050919050565b612b3181612b16565b82525050565b6000602082019050612b4c6000830184612b28565b92915050565b612b5b81612b16565b8114612b6657600080fd5b50565b600081359050612b7881612b52565b92915050565b60008060408385031215612b9557612b9461291c565b5b6000612ba385828601612b69565b9250506020612bb485828601612ab4565b9150509250929050565b60008060408385031215612bd557612bd461291c565b5b6000612be385828601612ab4565b9250506020612bf485828601612ab4565b9150509250929050565b612c0781612a93565b82525050565b6000602082019050612c226000830184612bfe565b92915050565b600080600060608486031215612c4157612c4061291c565b5b6000612c4f86828701612b69565b9350506020612c6086828701612b69565b9250506040612c7186828701612ab4565b9150509250925092565b600080fd5b600080fd5b7f4e487b7100000000000000000000000000000000000000000000000000000000600052604160045260246000fd5b612cbd82612a27565b810181811067ffffffffffffffff82111715612cdc57612cdb612c85565b5b80604052505050565b6000612cef612912565b9050612cfb8282612cb4565b919050565b600067ffffffffffffffff821115612d1b57612d1a612c85565b5b612d2482612a27565b9050602081019050919050565b82818337600083830152505050565b6000612d53612d4e84612d00565b612ce5565b905082815260208101848484011115612d6f57612d6e612c80565b5b612d7a848285612d31565b509392505050565b600082601f830112612d9757612d96612c7b565b5b8135612da7848260208601612d40565b91505092915050565b600060208284031215612dc657612dc561291c565b5b600082013567ffffffffffffffff811115612de457612de3612921565b5b612df084828501612d82565b91505092915050565b600060208284031215612e0f57612e0e61291c565b5b6000612e1d84828501612b69565b91505092915050565b6000612e3182612af6565b9050919050565b612e4181612e26565b82525050565b6000602082019050612e5c6000830184612e38565b92915050565b612e6b81612e26565b8114612e7657600080fd5b50565b600081359050612e8881612e62565b92915050565b600060208284031215612ea457612ea361291c565b5b6000612eb284828501612e79565b91505092915050565b612ec4816129ab565b8114612ecf57600080fd5b50565b600081359050612ee181612ebb565b92915050565b60008060408385031215612efe57612efd61291c565b5b6000612f0c85828601612b69565b9250506020612f1d85828601612ed2565b9150509250929050565b600067ffffffffffffffff821115612f4257612f41612c85565b5b612f4b82612a27565b9050602081019050919050565b6000612f6b612f6684612f27565b612ce5565b905082815260208101848484011115612f8757612f86612c80565b5b612f92848285612d31565b509392505050565b600082601f830112612faf57612fae612c7b565b5b8135612fbf848260208601612f58565b91505092915050565b60008060008060808587031215612fe257612fe161291c565b5b6000612ff087828801612b69565b945050602061300187828801612b69565b935050604061301287828801612ab4565b925050606085013567ffffffffffffffff81111561303357613032612921565b5b61303f87828801612f9a565b91505092959194509250565b600080604083850312156130625761306161291c565b5b600061307085828601612b69565b925050602061308185828601612b69565b9150509250929050565b7f4e487b7100000000000000000000000000000000000000000000000000000000600052602260045260246000fd5b600060028204905060018216806130d257607f821691505b6020821081036130e5576130e461308b565b5b50919050565b7f4e6f7420666f722073616c652077697468207061796d656e7420746f6b656e2060008201527f6174207468697320677261646500000000000000000000000000000000000000602082015250565b6000613147602d836129ec565b9150613152826130eb565b604082019050919050565b600060208201905081810360008301526131768161313a565b9050919050565b7f4e487b7100000000000000000000000000000000000000000000000000000000600052601160045260246000fd5b60006131b782612a93565b91506131c283612a93565b92508282026131d081612a93565b915082820484148315176131e7576131e661317d565b5b5092915050565b60006060820190506132036000830186612b28565b6132106020830185612bfe565b61321d6040830184612b28565b949350505050565b600060408201905061323a6000830185612b28565b6132476020830184612bfe565b9392505050565b7f4e487b7100000000000000000000000000000000000000000000000000000000600052603260045260246000fd5b60008190508160005260206000209050919050565b60006020601f8301049050919050565b600082821b905092915050565b6000600883026132df7fffffffffffffffffffffffffffffffffffffffffffffffffffffffffffffffff826132a2565b6132e986836132a2565b95508019841693508086168417925050509392505050565b6000819050919050565b600061332661332161331c84612a93565b613301565b612a93565b9050919050565b6000819050919050565b6133408361330b565b61335461334c8261332d565b8484546132af565b825550505050565b600090565b61336961335c565b613374818484613337565b505050565b5b818110156133985761338d600082613361565b60018101905061337a565b5050565b601f8211156133dd576133ae8161327d565b6133b784613292565b810160208510156133c6578190505b6133da6133d285613292565b830182613379565b50505b505050565b600082821c905092915050565b6000613400600019846008026133e2565b1980831691505092915050565b600061341983836133ef565b9150826002028217905092915050565b613432826129e1565b67ffffffffffffffff81111561344b5761344a612c85565b5b61345582546130ba565b61346082828561339c565b600060209050601f8311600181146134935760008415613481578287015190505b61348b858261340d565b8655506134f3565b601f1984166134a18661327d565b60005b828110156134c9578489015182556001820191506020850194506020810190506134a4565b868310156134e657848901516134e2601f8916826133ef565b8355505b6001600288020188555050505b505050505050565b7f4e6f7420666f722073616c652077697468206e617469766520746f6b656e206160008201527f7420746869732067726164650000000000000000000000000000000000000000602082015250565b6000613557602c836129ec565b9150613562826134fb565b604082019050919050565b600060208201905081810360008301526135868161354a565b9050919050565b600081905092915050565b600081546135a5816130ba565b6135af818661358d565b945060018216600081146135ca57600181146135df57613612565b60ff1983168652811515820286019350613612565b6135e88561327d565b60005b8381101561360a578154818901526001820191506020810190506135eb565b838801955050505b50505092915050565b6000613626826129e1565b613630818561358d565b93506136408185602086016129fd565b80840191505092915050565b7f2e6a736f6e000000000000000000000000000000000000000000000000000000815250565b600061367e8285613598565b915061368a828461361b565b91506136958261364c565b6005820191508190509392505050565b60006136b082612a93565b91506136bb83612a93565b92508282019050808211156136d3576136d261317d565b5b92915050565b60006136f46136ef6136ea84612af6565b613301565b612af6565b9050919050565b6000613706826136d9565b9050919050565b6000613718826136fb565b9050919050565b6137288161370d565b82525050565b60006060820190506137436000830186612b28565b613750602083018561371f565b61375d6040830184612bfe565b949350505050565b60008151905061377481612ebb565b92915050565b6000602082840312156137905761378f61291c565b5b600061379e84828501613765565b91505092915050565b600081519050919050565b600082825260208201905092915050565b60006137ce826137a7565b6137d881856137b2565b93506137e88185602086016129fd565b6137f181612a27565b840191505092915050565b60006080820190506138116000830187612b28565b61381e6020830186612b28565b61382b6040830185612bfe565b818103606083015261383d81846137c3565b905095945050505050565b60008151905061385781612952565b92915050565b6000602082840312156138735761387261291c565b5b600061388184828501613848565b91505092915050565b7f4e487b7100000000000000000000000000000000000000000000000000000000600052601260045260246000fd5b60006138c482612a93565b91506138cf83612a93565b92508282039050818111156138e7576138e661317d565b5b92915050565b7f4e487b7100000000000000000000000000000000000000000000000000000000600052603160045260246000fdfea2646970667358221220475033f963fb6dc248c92ec074437b17422bff87df5e918a989281f323dd6beb64736f6c63430008180033",
  "linkReferences": {},
  "deployedLinkReferences": {}
}