{
  "_format": "hh-sol-artifact-1",
  "contractName": "PolysportNFT",
  "sourceName": "contracts/PolysportNFT.sol",
  "abi": [
    {
      "inputs": [
        {
          "internalType": "string",
          "name": "_baseUri",
          "type": "string"
        },
        {
          "internalType": "uint256",
          "name": "_cost",
          "type": "uint256"
        },
        {
          "internalType": "uint256",
          "name": "_nativeCost",
          "type": "uint256"
        },
        {
          "internalType": "address payable",
          "name": "_saleWallet",
          "type": "address"
        },
        {
          "internalType": "address",
          "name": "_paymentToken",
          "type": "address"
        }
      ],
      "stateMutability": "nonpayable",
      "type": "constructor"
    },
    {
      "inputs": [],
      "name": "ERC721EnumerableForbiddenBatchMint",
      "type": "error"
    },
    {
      "inputs": [
        {
          "internalType": "address",
          "name": "sender",
          "type": "address"
        },
        {
          "internalType": "uint256",
          "name": "tokenId",
          "type": "uint256"
        },
        {
          "internalType": "address",
          "name": "owner",
          "type": "address"
        }
      ],
      "name": "ERC721IncorrectOwner",
      "type": "error"
    },
    {
      "inputs": [
        {
          "internalType": "address",
          "name": "operator",
          "type": "address"
        },
        {
          "internalType": "uint256",
          "name": "tokenId",
          "type": "uint256"
        }
      ],
      "name": "ERC721InsufficientApproval",
      "type": "error"
    },
    {
      "inputs": [
        {
          "internalType": "address",
          "name": "approver",
          "type": "address"
        }
      ],
      "name": "ERC721InvalidApprover",
      "type": "error"
    },
    {
      "inputs": [
        {
          "internalType": "address",
          "name": "operator",
          "type": "address"
        }
      ],
      "name": "ERC721InvalidOperator",
      "type": "error"
    },
    {
      "inputs": [
        {
          "internalType": "address",
          "name": "owner",
          "type": "address"
        }
      ],
      "name": "ERC721InvalidOwner",
      "type": "error"
    },
    {
      "inputs": [
        {
          "internalType": "address",
          "name": "receiver",
          "type": "address"
        }
      ],
      "name": "ERC721InvalidReceiver",
      "type": "error"
    },
    {
      "inputs": [
        {
          "internalType": "address",
          "name": "sender",
          "type": "address"
        }
      ],
      "name": "ERC721InvalidSender",
      "type": "error"
    },
    {
      "inputs": [
        {
          "internalType": "uint256",
          "name": "tokenId",
          "type": "uint256"
        }
      ],
      "name": "ERC721NonexistentToken",
      "type": "error"
    },
    {
      "inputs": [
        {
          "internalType": "address",
          "name": "owner",
          "type": "address"
        },
        {
          "internalType": "uint256",
          "name": "index",
          "type": "uint256"
        }
      ],
      "name": "ERC721OutOfBoundsIndex",
      "type": "error"
    },
    {
      "inputs": [
        {
          "internalType": "address",
          "name": "owner",
          "type": "address"
        }
      ],
      "name": "OwnableInvalidOwner",
      "type": "error"
    },
    {
      "inputs": [
        {
          "internalType": "address",
          "name": "account",
          "type": "address"
        }
      ],
      "name": "OwnableUnauthorizedAccount",
      "type": "error"
    },
    {
      "inputs": [],
      "name": "ReentrancyGuardReentrantCall",
      "type": "error"
    },
    {
      "anonymous": false,
      "inputs": [
        {
          "indexed": true,
          "internalType": "address",
          "name": "owner",
          "type": "address"
        },
        {
          "indexed": true,
          "internalType": "address",
          "name": "approved",
          "type": "address"
        },
        {
          "indexed": true,
          "internalType": "uint256",
          "name": "tokenId",
          "type": "uint256"
        }
      ],
      "name": "Approval",
      "type": "event"
    },
    {
      "anonymous": false,
      "inputs": [
        {
          "indexed": true,
          "internalType": "address",
          "name": "owner",
          "type": "address"
        },
        {
          "indexed": true,
          "internalType": "address",
          "name": "operator",
          "type": "address"
        },
        {
          "indexed": false,
          "internalType": "bool",
          "name": "approved",
          "type": "bool"
        }
      ],
      "name": "ApprovalForAll",
      "type": "event"
    },
    {
      "anonymous": false,
      "inputs": [
        {
          "indexed": true,
          "internalType": "address",
          "name": "purchaser",
          "type": "address"
        },
        {
          "indexed": true,
          "internalType": "uint256",
          "name": "id",
          "type": "uint256"
        }
      ],
      "name": "NFTMinted",
      "type": "event"
    },
    {
      "anonymous": false,
      "inputs": [
        {
          "indexed": true,
          "internalType": "address",
          "name": "previousOwner",
          "type": "address"
        },
        {
          "indexed": true,
          "internalType": "address",
          "name": "newOwner",
          "type": "address"
        }
      ],
      "name": "OwnershipTransferred",
      "type": "event"
    },
    {
      "anonymous": false,
      "inputs": [
        {
          "indexed": true,
          "internalType": "address",
          "name": "from",
          "type": "address"
        },
        {
          "indexed": true,
          "internalType": "address",
          "name": "to",
          "type": "address"
        },
        {
          "indexed": true,
          "internalType": "uint256",
          "name": "tokenId",
          "type": "uint256"
        }
      ],
      "name": "Transfer",
      "type": "event"
    },
    {
      "inputs": [
        {
          "internalType": "address",
          "name": "to",
          "type": "address"
        },
        {
          "internalType": "uint256",
          "name": "tokenId",
          "type": "uint256"
        }
      ],
      "name": "approve",
      "outputs": [],
      "stateMutability": "nonpayable",
      "type": "function"
    },
    {
      "inputs": [
        {
          "internalType": "address",
          "name": "owner",
          "type": "address"
        }
      ],
      "name": "balanceOf",
      "outputs": [
        {
          "internalType": "uint256",
          "name": "",
          "type": "uint256"
        }
      ],
      "stateMutability": "view",
      "type": "function"
    },
    {
      "inputs": [],
      "name": "baseUri",
      "outputs": [
        {
          "internalType": "string",
          "name": "",
          "type": "string"
        }
      ],
      "stateMutability": "view",
      "type": "function"
    },
    {
      "inputs": [
        {
          "internalType": "uint256",
          "name": "tokenId",
          "type": "uint256"
        }
      ],
      "name": "burn",
      "outputs": [],
      "stateMutability": "nonpayable",
      "type": "function"
    },
    {
      "inputs": [],
      "name": "cost",
      "outputs": [
        {
          "internalType": "uint256",
          "name": "",
          "type": "uint256"
        }
      ],
      "stateMutability": "view",
      "type": "function"
    },
    {
      "inputs": [
        {
          "internalType": "uint256",
          "name": "tokenId",
          "type": "uint256"
        }
      ],
      "name": "getApproved",
      "outputs": [
        {
          "internalType": "address",
          "name": "",
          "type": "address"
        }
      ],
      "stateMutability": "view",
      "type": "function"
    },
    {
      "inputs": [
        {
          "internalType": "address",
          "name": "owner",
          "type": "address"
        },
        {
          "internalType": "address",
          "name": "operator",
          "type": "address"
        }
      ],
      "name": "isApprovedForAll",
      "outputs": [
        {
          "internalType": "bool",
          "name": "",
          "type": "bool"
        }
      ],
      "stateMutability": "view",
      "type": "function"
    },
    {
      "inputs": [
        {
          "internalType": "uint256",
          "name": "_mintAmount",
          "type": "uint256"
        }
      ],
      "name": "mint",
      "outputs": [],
      "stateMutability": "nonpayable",
      "type": "function"
    },
    {
      "inputs": [
        {
          "internalType": "uint256",
          "name": "_mintAmount",
          "type": "uint256"
        }
      ],
      "name": "mintWithNative",
      "outputs": [],
      "stateMutability": "payable",
      "type": "function"
    },
    {
      "inputs": [],
      "name": "name",
      "outputs": [
        {
          "internalType": "string",
          "name": "",
          "type": "string"
        }
      ],
      "stateMutability": "view",
      "type": "function"
    },
    {
      "inputs": [],
      "name": "nativeCost",
      "outputs": [
        {
          "internalType": "uint256",
          "name": "",
          "type": "uint256"
        }
      ],
      "stateMutability": "view",
      "type": "function"
    },
    {
      "inputs": [],
      "name": "owner",
      "outputs": [
        {
          "internalType": "address",
          "name": "",
          "type": "address"
        }
      ],
      "stateMutability": "view",
      "type": "function"
    },
    {
      "inputs": [
        {
          "internalType": "uint256",
          "name": "tokenId",
          "type": "uint256"
        }
      ],
      "name": "ownerOf",
      "outputs": [
        {
          "internalType": "address",
          "name": "",
          "type": "address"
        }
      ],
      "stateMutability": "view",
      "type": "function"
    },
    {
      "inputs": [],
      "name": "paymentToken",
      "outputs": [
        {
          "internalType": "address",
          "name": "",
          "type": "address"
        }
      ],
      "stateMutability": "view",
      "type": "function"
    },
    {
      "inputs": [],
      "name": "renounceOwnership",
      "outputs": [],
      "stateMutability": "nonpayable",
      "type": "function"
    },
    {
      "inputs": [
        {
          "internalType": "address",
          "name": "from",
          "type": "address"
        },
        {
          "internalType": "address",
          "name": "to",
          "type": "address"
        },
        {
          "internalType": "uint256",
          "name": "tokenId",
          "type": "uint256"
        }
      ],
      "name": "safeTransferFrom",
      "outputs": [],
      "stateMutability": "nonpayable",
      "type": "function"
    },
    {
      "inputs": [
        {
          "internalType": "address",
          "name": "from",
          "type": "address"
        },
        {
          "internalType": "address",
          "name": "to",
          "type": "address"
        },
        {
          "internalType": "uint256",
          "name": "tokenId",
          "type": "uint256"
        },
        {
          "internalType": "bytes",
          "name": "data",
          "type": "bytes"
        }
      ],
      "name": "safeTransferFrom",
      "outputs": [],
      "stateMutability": "nonpayable",
      "type": "function"
    },
    {
      "inputs": [],
      "name": "saleWallet",
      "outputs": [
        {
          "internalType": "address payable",
          "name": "",
          "type": "address"
        }
      ],
      "stateMutability": "view",
      "type": "function"
    },
    {
      "inputs": [
        {
          "internalType": "address",
          "name": "operator",
          "type": "address"
        },
        {
          "internalType": "bool",
          "name": "approved",
          "type": "bool"
        }
      ],
      "name": "setApprovalForAll",
      "outputs": [],
      "stateMutability": "nonpayable",
      "type": "function"
    },
    {
      "inputs": [
        {
          "internalType": "string",
          "name": "_baseUri",
          "type": "string"
        }
      ],
      "name": "setBaseURI",
      "outputs": [],
      "stateMutability": "nonpayable",
      "type": "function"
    },
    {
      "inputs": [
        {
          "internalType": "uint256",
          "name": "_cost",
          "type": "uint256"
        }
      ],
      "name": "setCost",
      "outputs": [],
      "stateMutability": "nonpayable",
      "type": "function"
    },
    {
      "inputs": [
        {
          "internalType": "uint256",
          "name": "_nativeCost",
          "type": "uint256"
        }
      ],
      "name": "setNativeCost",
      "outputs": [],
      "stateMutability": "nonpayable",
      "type": "function"
    },
    {
      "inputs": [
        {
          "internalType": "address",
          "name": "_paymentToken",
          "type": "address"
        }
      ],
      "name": "setPaymentToken",
      "outputs": [],
      "stateMutability": "nonpayable",
      "type": "function"
    },
    {
      "inputs": [
        {
          "internalType": "address payable",
          "name": "_saleWallet",
          "type": "address"
        }
      ],
      "name": "setSaleWallet",
      "outputs": [],
      "stateMutability": "nonpayable",
      "type": "function"
    },
    {
      "inputs": [
        {
          "internalType": "bytes4",
          "name": "interfaceId",
          "type": "bytes4"
        }
      ],
      "name": "supportsInterface",
      "outputs": [
        {
          "internalType": "bool",
          "name": "",
          "type": "bool"
        }
      ],
      "stateMutability": "pure",
      "type": "function"
    },
    {
      "inputs": [],
      "name": "symbol",
      "outputs": [
        {
          "internalType": "string",
          "name": "",
          "type": "string"
        }
      ],
      "stateMutability": "view",
      "type": "function"
    },
    {
      "inputs": [
        {
          "internalType": "uint256",
          "name": "index",
          "type": "uint256"
        }
      ],
      "name": "tokenByIndex",
      "outputs": [
        {
          "internalType": "uint256",
          "name": "",
          "type": "uint256"
        }
      ],
      "stateMutability": "view",
      "type": "function"
    },
    {
      "inputs": [],
      "name": "tokenIdCounter",
      "outputs": [
        {
          "internalType": "uint256",
          "name": "",
          "type": "uint256"
        }
      ],
      "stateMutability": "view",
      "type": "function"
    },
    {
      "inputs": [
        {
          "internalType": "address",
          "name": "owner",
          "type": "address"
        },
        {
          "internalType": "uint256",
          "name": "index",
          "type": "uint256"
        }
      ],
      "name": "tokenOfOwnerByIndex",
      "outputs": [
        {
          "internalType": "uint256",
          "name": "",
          "type": "uint256"
        }
      ],
      "stateMutability": "view",
      "type": "function"
    },
    {
      "inputs": [
        {
          "internalType": "uint256",
          "name": "tokenId",
          "type": "uint256"
        }
      ],
      "name": "tokenURI",
      "outputs": [
        {
          "internalType": "string",
          "name": "",
          "type": "string"
        }
      ],
      "stateMutability": "view",
      "type": "function"
    },
    {
      "inputs": [],
      "name": "totalSupply",
      "outputs": [
        {
          "internalType": "uint256",
          "name": "",
          "type": "uint256"
        }
      ],
      "stateMutability": "view",
      "type": "function"
    },
    {
      "inputs": [
        {
          "internalType": "address",
          "name": "from",
          "type": "address"
        },
        {
          "internalType": "address",
          "name": "to",
          "type": "address"
        },
        {
          "internalType": "uint256",
          "name": "tokenId",
          "type": "uint256"
        }
      ],
      "name": "transferFrom",
      "outputs": [],
      "stateMutability": "nonpayable",
      "type": "function"
    },
    {
      "inputs": [
        {
          "internalType": "address",
          "name": "newOwner",
          "type": "address"
        }
      ],
      "name": "transferOwnership",
      "outputs": [],
      "stateMutability": "nonpayable",
      "type": "function"
    }
  ],
  "bytecode": "0x60806040523480156200001157600080fd5b506040516200415e3803806200415e833981810160405281019062000037919062000541565b6040518060400160405280600981526020017f506f6c7973706f727400000000000000000000000000000000000000000000008152506040518060400160405280600481526020017f504f4c590000000000000000000000000000000000000000000000000000000081525033600073ffffffffffffffffffffffffffffffffffffffff168173ffffffffffffffffffffffffffffffffffffffff1603620001195760006040517f1e4fbdf7000000000000000000000000000000000000000000000000000000008152600401620001109190620005f9565b60405180910390fd5b6200012a816200020560201b60201c565b5060018081905550816002908162000143919062000857565b50806003908162000155919062000857565b50505084600d908162000169919062000857565b5083600e8190555082600f8190555081601060006101000a81548173ffffffffffffffffffffffffffffffffffffffff021916908373ffffffffffffffffffffffffffffffffffffffff16021790555080601160006101000a81548173ffffffffffffffffffffffffffffffffffffffff021916908373ffffffffffffffffffffffffffffffffffffffff16021790555050505050506200093e565b60008060009054906101000a900473ffffffffffffffffffffffffffffffffffffffff169050816000806101000a81548173ffffffffffffffffffffffffffffffffffffffff021916908373ffffffffffffffffffffffffffffffffffffffff1602179055508173ffffffffffffffffffffffffffffffffffffffff168173ffffffffffffffffffffffffffffffffffffffff167f8be0079c531659141344cd1fd0a4f28419497f9722a3daafe3b4186f6b6457e060405160405180910390a35050565b6000604051905090565b600080fd5b600080fd5b600080fd5b600080fd5b6000601f19601f8301169050919050565b7f4e487b7100000000000000000000000000000000000000000000000000000000600052604160045260246000fd5b6200033282620002e7565b810181811067ffffffffffffffff82111715620003545762000353620002f8565b5b80604052505050565b600062000369620002c9565b905062000377828262000327565b919050565b600067ffffffffffffffff8211156200039a5762000399620002f8565b5b620003a582620002e7565b9050602081019050919050565b60005b83811015620003d2578082015181840152602081019050620003b5565b60008484015250505050565b6000620003f5620003ef846200037c565b6200035d565b905082815260208101848484011115620004145762000413620002e2565b5b62000421848285620003b2565b509392505050565b600082601f830112620004415762000440620002dd565b5b815162000453848260208601620003de565b91505092915050565b6000819050919050565b62000471816200045c565b81146200047d57600080fd5b50565b600081519050620004918162000466565b92915050565b600073ffffffffffffffffffffffffffffffffffffffff82169050919050565b6000620004c48262000497565b9050919050565b620004d681620004b7565b8114620004e257600080fd5b50565b600081519050620004f681620004cb565b92915050565b6000620005098262000497565b9050919050565b6200051b81620004fc565b81146200052757600080fd5b50565b6000815190506200053b8162000510565b92915050565b600080600080600060a0868803121562000560576200055f620002d3565b5b600086015167ffffffffffffffff811115620005815762000580620002d8565b5b6200058f8882890162000429565b9550506020620005a28882890162000480565b9450506040620005b58882890162000480565b9350506060620005c888828901620004e5565b9250506080620005db888289016200052a565b9150509295509295909350565b620005f381620004fc565b82525050565b6000602082019050620006106000830184620005e8565b92915050565b600081519050919050565b7f4e487b7100000000000000000000000000000000000000000000000000000000600052602260045260246000fd5b600060028204905060018216806200066957607f821691505b6020821081036200067f576200067e62000621565b5b50919050565b60008190508160005260206000209050919050565b60006020601f8301049050919050565b600082821b905092915050565b600060088302620006e97fffffffffffffffffffffffffffffffffffffffffffffffffffffffffffffffff82620006aa565b620006f58683620006aa565b95508019841693508086168417925050509392505050565b6000819050919050565b600062000738620007326200072c846200045c565b6200070d565b6200045c565b9050919050565b6000819050919050565b620007548362000717565b6200076c62000763826200073f565b848454620006b7565b825550505050565b600090565b6200078362000774565b6200079081848462000749565b505050565b5b81811015620007b857620007ac60008262000779565b60018101905062000796565b5050565b601f8211156200080757620007d18162000685565b620007dc846200069a565b81016020851015620007ec578190505b62000804620007fb856200069a565b83018262000795565b50505b505050565b600082821c905092915050565b60006200082c600019846008026200080c565b1980831691505092915050565b600062000847838362000819565b9150826002028217905092915050565b620008628262000616565b67ffffffffffffffff8111156200087e576200087d620002f8565b5b6200088a825462000650565b62000897828285620007bc565b600060209050601f831160018114620008cf5760008415620008ba578287015190505b620008c6858262000839565b86555062000936565b601f198416620008df8662000685565b60005b828110156200090957848901518255600182019150602085019450602081019050620008e2565b8683101562000929578489015162000925601f89168262000819565b8355505b6001600288020188555050505b505050505050565b613810806200094e6000396000f3fe6080604052600436106101ee5760003560e01c80636a326ab11161010d5780639abc8320116100a0578063b88d4fde1161006f578063b88d4fde146106da578063baa9607314610703578063c87b56dd1461072e578063e985e9c51461076b578063f2fde38b146107a8576101ee565b80639abc832014610641578063a0712d681461066c578063a22cb46514610695578063a4de517c146106be576101ee565b80638da5cb5b116100dc5780638da5cb5b1461059757806395d89b41146105c257806398bdf6f5146105ed57806399dcc51814610618576101ee565b80636a326ab1146104ef57806370a0823114610518578063715018a6146105555780637c4db77d1461056c576101ee565b80632f745c591161018557806344a0d68a1161015457806344a0d68a146104235780634f6ccce71461044c57806355f804b3146104895780636352211e146104b2576101ee565b80632f745c59146103695780633013ce29146103a657806342842e0e146103d157806342966c68146103fa576101ee565b806313faede6116101c157806313faede6146102c157806317f632ad146102ec57806318160ddd1461031557806323b872dd14610340576101ee565b806301ffc9a7146101f357806306fdde0314610230578063081812fc1461025b578063095ea7b314610298575b600080fd5b3480156101ff57600080fd5b5061021a600480360381019061021591906128c8565b6107d1565b6040516102279190612910565b60405180910390f35b34801561023c57600080fd5b50610245610973565b60405161025291906129bb565b60405180910390f35b34801561026757600080fd5b50610282600480360381019061027d9190612a13565b610a05565b60405161028f9190612a81565b60405180910390f35b3480156102a457600080fd5b506102bf60048036038101906102ba9190612ac8565b610a21565b005b3480156102cd57600080fd5b506102d6610a37565b6040516102e39190612b17565b60405180910390f35b3480156102f857600080fd5b50610313600480360381019061030e9190612a13565b610a3d565b005b34801561032157600080fd5b5061032a610a4f565b6040516103379190612b17565b60405180910390f35b34801561034c57600080fd5b5061036760048036038101906103629190612b32565b610a5c565b005b34801561037557600080fd5b50610390600480360381019061038b9190612ac8565b610b5e565b60405161039d9190612b17565b60405180910390f35b3480156103b257600080fd5b506103bb610c07565b6040516103c89190612a81565b60405180910390f35b3480156103dd57600080fd5b506103f860048036038101906103f39190612b32565b610c2d565b005b34801561040657600080fd5b50610421600480360381019061041c9190612a13565b610c4d565b005b34801561042f57600080fd5b5061044a60048036038101906104459190612a13565b610cd7565b005b34801561045857600080fd5b50610473600480360381019061046e9190612a13565b610ce9565b6040516104809190612b17565b60405180910390f35b34801561049557600080fd5b506104b060048036038101906104ab9190612cba565b610d5f565b005b3480156104be57600080fd5b506104d960048036038101906104d49190612a13565b610d7a565b6040516104e69190612a81565b60405180910390f35b3480156104fb57600080fd5b5061051660048036038101906105119190612d03565b610d8c565b005b34801561052457600080fd5b5061053f600480360381019061053a9190612d03565b610dd8565b60405161054c9190612b17565b60405180910390f35b34801561056157600080fd5b5061056a610e92565b005b34801561057857600080fd5b50610581610ea6565b60405161058e9190612d51565b60405180910390f35b3480156105a357600080fd5b506105ac610ecc565b6040516105b99190612a81565b60405180910390f35b3480156105ce57600080fd5b506105d7610ef5565b6040516105e491906129bb565b60405180910390f35b3480156105f957600080fd5b50610602610f87565b60405161060f9190612b17565b60405180910390f35b34801561062457600080fd5b5061063f600480360381019061063a9190612d98565b610f8d565b005b34801561064d57600080fd5b50610656610fd9565b60405161066391906129bb565b60405180910390f35b34801561067857600080fd5b50610693600480360381019061068e9190612a13565b611067565b005b3480156106a157600080fd5b506106bc60048036038101906106b79190612df1565b6110fa565b005b6106d860048036038101906106d39190612a13565b611110565b005b3480156106e657600080fd5b5061070160048036038101906106fc9190612ed2565b6111b0565b005b34801561070f57600080fd5b506107186111cd565b6040516107259190612b17565b60405180910390f35b34801561073a57600080fd5b5061075560048036038101906107509190612a13565b6111d3565b60405161076291906129bb565b60405180910390f35b34801561077757600080fd5b50610792600480360381019061078d9190612f55565b61123d565b60405161079f9190612910565b60405180910390f35b3480156107b457600080fd5b506107cf60048036038101906107ca9190612d03565b6112d1565b005b60007f80ac58cd000000000000000000000000000000000000000000000000000000007bffffffffffffffffffffffffffffffffffffffffffffffffffffffff1916827bffffffffffffffffffffffffffffffffffffffffffffffffffffffff1916148061089c57507f01ffc9a7000000000000000000000000000000000000000000000000000000007bffffffffffffffffffffffffffffffffffffffffffffffffffffffff1916827bffffffffffffffffffffffffffffffffffffffffffffffffffffffff1916145b8061090457507f4639107c000000000000000000000000000000000000000000000000000000007bffffffffffffffffffffffffffffffffffffffffffffffffffffffff1916827bffffffffffffffffffffffffffffffffffffffffffffffffffffffff1916145b8061096c57507f780e9d63000000000000000000000000000000000000000000000000000000007bffffffffffffffffffffffffffffffffffffffffffffffffffffffff1916827bffffffffffffffffffffffffffffffffffffffffffffffffffffffff1916145b9050919050565b60606002805461098290612fc4565b80601f01602080910402602001604051908101604052809291908181526020018280546109ae90612fc4565b80156109fb5780601f106109d0576101008083540402835291602001916109fb565b820191906000526020600020905b8154815290600101906020018083116109de57829003601f168201915b5050505050905090565b6000610a1082611357565b50610a1a826113df565b9050919050565b610a338282610a2e61141c565b611424565b5050565b600e5481565b610a45611436565b80600f8190555050565b6000600a80549050905090565b600073ffffffffffffffffffffffffffffffffffffffff168273ffffffffffffffffffffffffffffffffffffffff1603610ace5760006040517f64a0ae92000000000000000000000000000000000000000000000000000000008152600401610ac59190612a81565b60405180910390fd5b6000610ae28383610add61141c565b6114bd565b90508373ffffffffffffffffffffffffffffffffffffffff168173ffffffffffffffffffffffffffffffffffffffff1614610b58578382826040517f64283d7b000000000000000000000000000000000000000000000000000000008152600401610b4f93929190612ff5565b60405180910390fd5b50505050565b6000610b6983610dd8565b8210610bae5782826040517fa57d13dc000000000000000000000000000000000000000000000000000000008152600401610ba592919061302c565b60405180910390fd5b600860008473ffffffffffffffffffffffffffffffffffffffff1673ffffffffffffffffffffffffffffffffffffffff168152602001908152602001600020600083815260200190815260200160002054905092915050565b601160009054906101000a900473ffffffffffffffffffffffffffffffffffffffff1681565b610c48838383604051806020016040528060008152506111b0565b505050565b3373ffffffffffffffffffffffffffffffffffffffff16610c6d826114d3565b73ffffffffffffffffffffffffffffffffffffffff161480610cc257503373ffffffffffffffffffffffffffffffffffffffff16610caa826113df565b73ffffffffffffffffffffffffffffffffffffffff16145b610ccb57600080fd5b610cd481611510565b50565b610cdf611436565b80600e8190555050565b6000610cf3610a4f565b8210610d39576000826040517fa57d13dc000000000000000000000000000000000000000000000000000000008152600401610d3092919061302c565b60405180910390fd5b600a8281548110610d4d57610d4c613055565b5b90600052602060002001549050919050565b610d67611436565b80600d9081610d769190613230565b5050565b6000610d8582611357565b9050919050565b610d94611436565b80601160006101000a81548173ffffffffffffffffffffffffffffffffffffffff021916908373ffffffffffffffffffffffffffffffffffffffff16021790555050565b60008073ffffffffffffffffffffffffffffffffffffffff168273ffffffffffffffffffffffffffffffffffffffff1603610e4b5760006040517f89c62b64000000000000000000000000000000000000000000000000000000008152600401610e429190612a81565b60405180910390fd5b600560008373ffffffffffffffffffffffffffffffffffffffff1673ffffffffffffffffffffffffffffffffffffffff168152602001908152602001600020549050919050565b610e9a611436565b610ea46000611596565b565b601060009054906101000a900473ffffffffffffffffffffffffffffffffffffffff1681565b60008060009054906101000a900473ffffffffffffffffffffffffffffffffffffffff16905090565b606060038054610f0490612fc4565b80601f0160208091040260200160405190810160405280929190818152602001828054610f3090612fc4565b8015610f7d5780601f10610f5257610100808354040283529160200191610f7d565b820191906000526020600020905b815481529060010190602001808311610f6057829003601f168201915b5050505050905090565b600c5481565b610f95611436565b80601060006101000a81548173ffffffffffffffffffffffffffffffffffffffff021916908373ffffffffffffffffffffffffffffffffffffffff16021790555050565b600d8054610fe690612fc4565b80601f016020809104026020016040519081016040528092919081815260200182805461101290612fc4565b801561105f5780601f106110345761010080835404028352916020019161105f565b820191906000526020600020905b81548152906001019060200180831161104257829003601f168201915b505050505081565b6000811161107457600080fd5b6000600e54116110b9576040517f08c379a00000000000000000000000000000000000000000000000000000000081526004016110b09061334e565b60405180910390fd5b600081600e546110c9919061339d565b905060005b828110156110ec576110df3361165a565b80806001019150506110ce565b506110f6816116d8565b5050565b61110c61110561141c565b83836117a0565b5050565b6000811161111d57600080fd5b6000600f5411611162576040517f08c379a00000000000000000000000000000000000000000000000000000000081526004016111599061342b565b60405180910390fd5b600081600f54611172919061339d565b90508034101561118157600080fd5b60005b828110156111a2576111953361165a565b8080600101915050611184565b506111ac8161190f565b5050565b6111bb848484610a5c565b6111c78484848461197b565b50505050565b600f5481565b60606111de82611357565b506000600d80546111ee90612fc4565b90501161120a5760405180602001604052806000815250611236565b600d61121583611b32565b604051602001611226929190613530565b6040516020818303038152906040525b9050919050565b6000600760008473ffffffffffffffffffffffffffffffffffffffff1673ffffffffffffffffffffffffffffffffffffffff16815260200190815260200160002060008373ffffffffffffffffffffffffffffffffffffffff1673ffffffffffffffffffffffffffffffffffffffff16815260200190815260200160002060009054906101000a900460ff16905092915050565b6112d9611436565b600073ffffffffffffffffffffffffffffffffffffffff168173ffffffffffffffffffffffffffffffffffffffff160361134b5760006040517f1e4fbdf70000000000000000000000000000000000000000000000000000000081526004016113429190612a81565b60405180910390fd5b61135481611596565b50565b600080611363836114d3565b9050600073ffffffffffffffffffffffffffffffffffffffff168173ffffffffffffffffffffffffffffffffffffffff16036113d657826040517f7e2732890000000000000000000000000000000000000000000000000000000081526004016113cd9190612b17565b60405180910390fd5b80915050919050565b60006006600083815260200190815260200160002060009054906101000a900473ffffffffffffffffffffffffffffffffffffffff169050919050565b600033905090565b6114318383836001611c00565b505050565b61143e61141c565b73ffffffffffffffffffffffffffffffffffffffff1661145c610ecc565b73ffffffffffffffffffffffffffffffffffffffff16146114bb5761147f61141c565b6040517f118cdaa70000000000000000000000000000000000000000000000000000000081526004016114b29190612a81565b60405180910390fd5b565b60006114ca848484611dc5565b90509392505050565b60006004600083815260200190815260200160002060009054906101000a900473ffffffffffffffffffffffffffffffffffffffff169050919050565b600061151f60008360006114bd565b9050600073ffffffffffffffffffffffffffffffffffffffff168173ffffffffffffffffffffffffffffffffffffffff160361159257816040517f7e2732890000000000000000000000000000000000000000000000000000000081526004016115899190612b17565b60405180910390fd5b5050565b60008060009054906101000a900473ffffffffffffffffffffffffffffffffffffffff169050816000806101000a81548173ffffffffffffffffffffffffffffffffffffffff021916908373ffffffffffffffffffffffffffffffffffffffff1602179055508173ffffffffffffffffffffffffffffffffffffffff168173ffffffffffffffffffffffffffffffffffffffff167f8be0079c531659141344cd1fd0a4f28419497f9722a3daafe3b4186f6b6457e060405160405180910390a35050565b611662611ee2565b6000600c5490506001600c546116789190613563565b600c819055506116888282611f28565b808273ffffffffffffffffffffffffffffffffffffffff167f4cc0a9c4a99ddc700de1af2c9f916a7cbfdb71f14801ccff94061ad1ef8a804060405160405180910390a3506116d5611f46565b50565b601160009054906101000a900473ffffffffffffffffffffffffffffffffffffffff1673ffffffffffffffffffffffffffffffffffffffff166323b872dd33601060009054906101000a900473ffffffffffffffffffffffffffffffffffffffff16846040518463ffffffff1660e01b8152600401611759939291906135ec565b6020604051808303816000875af1158015611778573d6000803e3d6000fd5b505050506040513d601f19601f8201168201806040525081019061179c9190613638565b5050565b600073ffffffffffffffffffffffffffffffffffffffff168273ffffffffffffffffffffffffffffffffffffffff160361181157816040517f5b08ba180000000000000000000000000000000000000000000000000000000081526004016118089190612a81565b60405180910390fd5b80600760008573ffffffffffffffffffffffffffffffffffffffff1673ffffffffffffffffffffffffffffffffffffffff16815260200190815260200160002060008473ffffffffffffffffffffffffffffffffffffffff1673ffffffffffffffffffffffffffffffffffffffff16815260200190815260200160002060006101000a81548160ff0219169083151502179055508173ffffffffffffffffffffffffffffffffffffffff168373ffffffffffffffffffffffffffffffffffffffff167f17307eab39ab6107e8899845ad3d59bd9653f200f220920489ca2b5937696c31836040516119029190612910565b60405180910390a3505050565b601060009054906101000a900473ffffffffffffffffffffffffffffffffffffffff1673ffffffffffffffffffffffffffffffffffffffff166108fc829081150290604051600060405180830381858888f19350505050158015611977573d6000803e3d6000fd5b5050565b60008373ffffffffffffffffffffffffffffffffffffffff163b1115611b2c578273ffffffffffffffffffffffffffffffffffffffff1663150b7a026119bf61141c565b8685856040518563ffffffff1660e01b81526004016119e194939291906136ba565b6020604051808303816000875af1925050508015611a1d57506040513d601f19601f82011682018060405250810190611a1a919061371b565b60015b611aa1573d8060008114611a4d576040519150601f19603f3d011682016040523d82523d6000602084013e611a52565b606091505b506000815103611a9957836040517f64a0ae92000000000000000000000000000000000000000000000000000000008152600401611a909190612a81565b60405180910390fd5b805181602001fd5b63150b7a0260e01b7bffffffffffffffffffffffffffffffffffffffffffffffffffffffff1916817bffffffffffffffffffffffffffffffffffffffffffffffffffffffff191614611b2a57836040517f64a0ae92000000000000000000000000000000000000000000000000000000008152600401611b219190612a81565b60405180910390fd5b505b50505050565b606060006001611b4184611f4f565b01905060008167ffffffffffffffff811115611b6057611b5f612b8f565b5b6040519080825280601f01601f191660200182016040528015611b925781602001600182028036833780820191505090505b509050600082602001820190505b600115611bf5578080600190039150507f3031323334353637383961626364656600000000000000000000000000000000600a86061a8153600a8581611be957611be8613748565b5b04945060008503611ba0575b819350505050919050565b8080611c395750600073ffffffffffffffffffffffffffffffffffffffff168273ffffffffffffffffffffffffffffffffffffffff1614155b15611d6d576000611c4984611357565b9050600073ffffffffffffffffffffffffffffffffffffffff168373ffffffffffffffffffffffffffffffffffffffff1614158015611cb457508273ffffffffffffffffffffffffffffffffffffffff168173ffffffffffffffffffffffffffffffffffffffff1614155b8015611cc75750611cc5818461123d565b155b15611d0957826040517fa9fbf51f000000000000000000000000000000000000000000000000000000008152600401611d009190612a81565b60405180910390fd5b8115611d6b57838573ffffffffffffffffffffffffffffffffffffffff168273ffffffffffffffffffffffffffffffffffffffff167f8c5be1e5ebec7d5bd14f71427d1e84f3dd0314c0f7b2291e5b200ac8c7c3b92560405160405180910390a45b505b836006600085815260200190815260200160002060006101000a81548173ffffffffffffffffffffffffffffffffffffffff021916908373ffffffffffffffffffffffffffffffffffffffff16021790555050505050565b600080611dd38585856120a2565b9050600073ffffffffffffffffffffffffffffffffffffffff168173ffffffffffffffffffffffffffffffffffffffff1603611e1757611e12846122bc565b611e56565b8473ffffffffffffffffffffffffffffffffffffffff168173ffffffffffffffffffffffffffffffffffffffff1614611e5557611e548185612305565b5b5b600073ffffffffffffffffffffffffffffffffffffffff168573ffffffffffffffffffffffffffffffffffffffff1603611e9857611e9384612466565b611ed7565b8473ffffffffffffffffffffffffffffffffffffffff168173ffffffffffffffffffffffffffffffffffffffff1614611ed657611ed58585612537565b5b5b809150509392505050565b600260015403611f1e576040517f3ee5aeb500000000000000000000000000000000000000000000000000000000815260040160405180910390fd5b6002600181905550565b611f428282604051806020016040528060008152506125c2565b5050565b60018081905550565b600080600090507a184f03e93ff9f4daa797ed6e38ed64bf6a1f0100000000000000008310611fad577a184f03e93ff9f4daa797ed6e38ed64bf6a1f0100000000000000008381611fa357611fa2613748565b5b0492506040810190505b6d04ee2d6d415b85acef81000000008310611fea576d04ee2d6d415b85acef81000000008381611fe057611fdf613748565b5b0492506020810190505b662386f26fc10000831061201957662386f26fc10000838161200f5761200e613748565b5b0492506010810190505b6305f5e1008310612042576305f5e100838161203857612037613748565b5b0492506008810190505b612710831061206757612710838161205d5761205c613748565b5b0492506004810190505b6064831061208a57606483816120805761207f613748565b5b0492506002810190505b600a8310612099576001810190505b80915050919050565b6000806120ae846114d3565b9050600073ffffffffffffffffffffffffffffffffffffffff168373ffffffffffffffffffffffffffffffffffffffff16146120f0576120ef8184866125de565b5b600073ffffffffffffffffffffffffffffffffffffffff168173ffffffffffffffffffffffffffffffffffffffff161461218157612132600085600080611c00565b6001600560008373ffffffffffffffffffffffffffffffffffffffff1673ffffffffffffffffffffffffffffffffffffffff168152602001908152602001600020600082825403925050819055505b600073ffffffffffffffffffffffffffffffffffffffff168573ffffffffffffffffffffffffffffffffffffffff1614612204576001600560008773ffffffffffffffffffffffffffffffffffffffff1673ffffffffffffffffffffffffffffffffffffffff168152602001908152602001600020600082825401925050819055505b846004600086815260200190815260200160002060006101000a81548173ffffffffffffffffffffffffffffffffffffffff021916908373ffffffffffffffffffffffffffffffffffffffff160217905550838573ffffffffffffffffffffffffffffffffffffffff168273ffffffffffffffffffffffffffffffffffffffff167fddf252ad1be2c89b69c2b068fc378daa952ba7f163c4a11628f55a4df523b3ef60405160405180910390a4809150509392505050565b600a80549050600b600083815260200190815260200160002081905550600a81908060018154018082558091505060019003906000526020600020016000909190919091505550565b600061231083610dd8565b90506000600960008481526020019081526020016000205490508181146123f5576000600860008673ffffffffffffffffffffffffffffffffffffffff1673ffffffffffffffffffffffffffffffffffffffff168152602001908152602001600020600084815260200190815260200160002054905080600860008773ffffffffffffffffffffffffffffffffffffffff1673ffffffffffffffffffffffffffffffffffffffff168152602001908152602001600020600084815260200190815260200160002081905550816009600083815260200190815260200160002081905550505b6009600084815260200190815260200160002060009055600860008573ffffffffffffffffffffffffffffffffffffffff1673ffffffffffffffffffffffffffffffffffffffff16815260200190815260200160002060008381526020019081526020016000206000905550505050565b60006001600a8054905061247a9190613777565b90506000600b60008481526020019081526020016000205490506000600a83815481106124aa576124a9613055565b5b9060005260206000200154905080600a83815481106124cc576124cb613055565b5b906000526020600020018190555081600b600083815260200190815260200160002081905550600b600085815260200190815260200160002060009055600a80548061251b5761251a6137ab565b5b6001900381819060005260206000200160009055905550505050565b6000600161254484610dd8565b61254e9190613777565b905081600860008573ffffffffffffffffffffffffffffffffffffffff1673ffffffffffffffffffffffffffffffffffffffff168152602001908152602001600020600083815260200190815260200160002081905550806009600084815260200190815260200160002081905550505050565b6125cc83836126a2565b6125d9600084848461197b565b505050565b6125e983838361279b565b61269d57600073ffffffffffffffffffffffffffffffffffffffff168373ffffffffffffffffffffffffffffffffffffffff160361265e57806040517f7e2732890000000000000000000000000000000000000000000000000000000081526004016126559190612b17565b60405180910390fd5b81816040517f177e802f00000000000000000000000000000000000000000000000000000000815260040161269492919061302c565b60405180910390fd5b505050565b600073ffffffffffffffffffffffffffffffffffffffff168273ffffffffffffffffffffffffffffffffffffffff16036127145760006040517f64a0ae9200000000000000000000000000000000000000000000000000000000815260040161270b9190612a81565b60405180910390fd5b6000612722838360006114bd565b9050600073ffffffffffffffffffffffffffffffffffffffff168173ffffffffffffffffffffffffffffffffffffffff16146127965760006040517f73c6ac6e00000000000000000000000000000000000000000000000000000000815260040161278d9190612a81565b60405180910390fd5b505050565b60008073ffffffffffffffffffffffffffffffffffffffff168373ffffffffffffffffffffffffffffffffffffffff161415801561285357508273ffffffffffffffffffffffffffffffffffffffff168473ffffffffffffffffffffffffffffffffffffffff1614806128145750612813848461123d565b5b8061285257508273ffffffffffffffffffffffffffffffffffffffff1661283a836113df565b73ffffffffffffffffffffffffffffffffffffffff16145b5b90509392505050565b6000604051905090565b600080fd5b600080fd5b60007fffffffff0000000000000000000000000000000000000000000000000000000082169050919050565b6128a581612870565b81146128b057600080fd5b50565b6000813590506128c28161289c565b92915050565b6000602082840312156128de576128dd612866565b5b60006128ec848285016128b3565b91505092915050565b60008115159050919050565b61290a816128f5565b82525050565b60006020820190506129256000830184612901565b92915050565b600081519050919050565b600082825260208201905092915050565b60005b8381101561296557808201518184015260208101905061294a565b60008484015250505050565b6000601f19601f8301169050919050565b600061298d8261292b565b6129978185612936565b93506129a7818560208601612947565b6129b081612971565b840191505092915050565b600060208201905081810360008301526129d58184612982565b905092915050565b6000819050919050565b6129f0816129dd565b81146129fb57600080fd5b50565b600081359050612a0d816129e7565b92915050565b600060208284031215612a2957612a28612866565b5b6000612a37848285016129fe565b91505092915050565b600073ffffffffffffffffffffffffffffffffffffffff82169050919050565b6000612a6b82612a40565b9050919050565b612a7b81612a60565b82525050565b6000602082019050612a966000830184612a72565b92915050565b612aa581612a60565b8114612ab057600080fd5b50565b600081359050612ac281612a9c565b92915050565b60008060408385031215612adf57612ade612866565b5b6000612aed85828601612ab3565b9250506020612afe858286016129fe565b9150509250929050565b612b11816129dd565b82525050565b6000602082019050612b2c6000830184612b08565b92915050565b600080600060608486031215612b4b57612b4a612866565b5b6000612b5986828701612ab3565b9350506020612b6a86828701612ab3565b9250506040612b7b868287016129fe565b9150509250925092565b600080fd5b600080fd5b7f4e487b7100000000000000000000000000000000000000000000000000000000600052604160045260246000fd5b612bc782612971565b810181811067ffffffffffffffff82111715612be657612be5612b8f565b5b80604052505050565b6000612bf961285c565b9050612c058282612bbe565b919050565b600067ffffffffffffffff821115612c2557612c24612b8f565b5b612c2e82612971565b9050602081019050919050565b82818337600083830152505050565b6000612c5d612c5884612c0a565b612bef565b905082815260208101848484011115612c7957612c78612b8a565b5b612c84848285612c3b565b509392505050565b600082601f830112612ca157612ca0612b85565b5b8135612cb1848260208601612c4a565b91505092915050565b600060208284031215612cd057612ccf612866565b5b600082013567ffffffffffffffff811115612cee57612ced61286b565b5b612cfa84828501612c8c565b91505092915050565b600060208284031215612d1957612d18612866565b5b6000612d2784828501612ab3565b91505092915050565b6000612d3b82612a40565b9050919050565b612d4b81612d30565b82525050565b6000602082019050612d666000830184612d42565b92915050565b612d7581612d30565b8114612d8057600080fd5b50565b600081359050612d9281612d6c565b92915050565b600060208284031215612dae57612dad612866565b5b6000612dbc84828501612d83565b91505092915050565b612dce816128f5565b8114612dd957600080fd5b50565b600081359050612deb81612dc5565b92915050565b60008060408385031215612e0857612e07612866565b5b6000612e1685828601612ab3565b9250506020612e2785828601612ddc565b9150509250929050565b600067ffffffffffffffff821115612e4c57612e4b612b8f565b5b612e5582612971565b9050602081019050919050565b6000612e75612e7084612e31565b612bef565b905082815260208101848484011115612e9157612e90612b8a565b5b612e9c848285612c3b565b509392505050565b600082601f830112612eb957612eb8612b85565b5b8135612ec9848260208601612e62565b91505092915050565b60008060008060808587031215612eec57612eeb612866565b5b6000612efa87828801612ab3565b9450506020612f0b87828801612ab3565b9350506040612f1c878288016129fe565b925050606085013567ffffffffffffffff811115612f3d57612f3c61286b565b5b612f4987828801612ea4565b91505092959194509250565b60008060408385031215612f6c57612f6b612866565b5b6000612f7a85828601612ab3565b9250506020612f8b85828601612ab3565b9150509250929050565b7f4e487b7100000000000000000000000000000000000000000000000000000000600052602260045260246000fd5b60006002820490506001821680612fdc57607f821691505b602082108103612fef57612fee612f95565b5b50919050565b600060608201905061300a6000830186612a72565b6130176020830185612b08565b6130246040830184612a72565b949350505050565b60006040820190506130416000830185612a72565b61304e6020830184612b08565b9392505050565b7f4e487b7100000000000000000000000000000000000000000000000000000000600052603260045260246000fd5b60008190508160005260206000209050919050565b60006020601f8301049050919050565b600082821b905092915050565b6000600883026130e67fffffffffffffffffffffffffffffffffffffffffffffffffffffffffffffffff826130a9565b6130f086836130a9565b95508019841693508086168417925050509392505050565b6000819050919050565b600061312d613128613123846129dd565b613108565b6129dd565b9050919050565b6000819050919050565b61314783613112565b61315b61315382613134565b8484546130b6565b825550505050565b600090565b613170613163565b61317b81848461313e565b505050565b5b8181101561319f57613194600082613168565b600181019050613181565b5050565b601f8211156131e4576131b581613084565b6131be84613099565b810160208510156131cd578190505b6131e16131d985613099565b830182613180565b50505b505050565b600082821c905092915050565b6000613207600019846008026131e9565b1980831691505092915050565b600061322083836131f6565b9150826002028217905092915050565b6132398261292b565b67ffffffffffffffff81111561325257613251612b8f565b5b61325c8254612fc4565b6132678282856131a3565b600060209050601f83116001811461329a5760008415613288578287015190505b6132928582613214565b8655506132fa565b601f1984166132a886613084565b60005b828110156132d0578489015182556001820191506020850194506020810190506132ab565b868310156132ed57848901516132e9601f8916826131f6565b8355505b6001600288020188555050505b505050505050565b7f4e6f7420666f722073616c652077697468207061796d656e7420746f6b656e00600082015250565b6000613338601f83612936565b915061334382613302565b602082019050919050565b600060208201905081810360008301526133678161332b565b9050919050565b7f4e487b7100000000000000000000000000000000000000000000000000000000600052601160045260246000fd5b60006133a8826129dd565b91506133b3836129dd565b92508282026133c1816129dd565b915082820484148315176133d8576133d761336e565b5b5092915050565b7f4e6f7420666f722073616c652077697468206e617469766520746f6b656e0000600082015250565b6000613415601e83612936565b9150613420826133df565b602082019050919050565b6000602082019050818103600083015261344481613408565b9050919050565b600081905092915050565b6000815461346381612fc4565b61346d818661344b565b94506001821660008114613488576001811461349d576134d0565b60ff19831686528115158202860193506134d0565b6134a685613084565b60005b838110156134c8578154818901526001820191506020810190506134a9565b838801955050505b50505092915050565b60006134e48261292b565b6134ee818561344b565b93506134fe818560208601612947565b80840191505092915050565b7f2e6a736f6e000000000000000000000000000000000000000000000000000000815250565b600061353c8285613456565b915061354882846134d9565b91506135538261350a565b6005820191508190509392505050565b600061356e826129dd565b9150613579836129dd565b92508282019050808211156135915761359061336e565b5b92915050565b60006135b26135ad6135a884612a40565b613108565b612a40565b9050919050565b60006135c482613597565b9050919050565b60006135d6826135b9565b9050919050565b6135e6816135cb565b82525050565b60006060820190506136016000830186612a72565b61360e60208301856135dd565b61361b6040830184612b08565b949350505050565b60008151905061363281612dc5565b92915050565b60006020828403121561364e5761364d612866565b5b600061365c84828501613623565b91505092915050565b600081519050919050565b600082825260208201905092915050565b600061368c82613665565b6136968185613670565b93506136a6818560208601612947565b6136af81612971565b840191505092915050565b60006080820190506136cf6000830187612a72565b6136dc6020830186612a72565b6136e96040830185612b08565b81810360608301526136fb8184613681565b905095945050505050565b6000815190506137158161289c565b92915050565b60006020828403121561373157613730612866565b5b600061373f84828501613706565b91505092915050565b7f4e487b7100000000000000000000000000000000000000000000000000000000600052601260045260246000fd5b6000613782826129dd565b915061378d836129dd565b92508282039050818111156137a5576137a461336e565b5b92915050565b7f4e487b7100000000000000000000000000000000000000000000000000000000600052603160045260246000fdfea26469706673582212201fa55f664e723d16ed3ed042370aedb1e40513ab59f35e4c43083ec5ece3541e64736f6c63430008180033",
  "linkReferences": {},
  "deployedLinkReferences": {}
}