{
  "_format": "hh-sol-artifact-1",
  "contractName": "PolysportNFT",
  "sourceName": "contracts/PolysportNFT.sol",
  "abi": [
    {
      "inputs": [
        {
          "internalType": "string",
          "name": "_baseUri",
          "type": "string"
        },
        {
          "internalType": "uint256",
          "name": "_grades",
          "type": "uint256"
        },
        {
          "internalType": "uint256[]",
          "name": "_cost",
          "type": "uint256[]"
        },
        {
          "internalType": "uint256[]",
          "name": "_nativeCost",
          "type": "uint256[]"
        },
        {
          "internalType": "address payable",
          "name": "_saleWallet",
          "type": "address"
        },
        {
          "internalType": "address payable",
          "name": "_escrowWallet",
          "type": "address"
        },
        {
          "internalType": "address",
          "name": "_paymentToken",
          "type": "address"
        }
      ],
      "stateMutability": "nonpayable",
      "type": "constructor"
    },
    {
      "inputs": [],
      "name": "ERC721EnumerableForbiddenBatchMint",
      "type": "error"
    },
    {
      "inputs": [
        {
          "internalType": "address",
          "name": "sender",
          "type": "address"
        },
        {
          "internalType": "uint256",
          "name": "tokenId",
          "type": "uint256"
        },
        {
          "internalType": "address",
          "name": "owner",
          "type": "address"
        }
      ],
      "name": "ERC721IncorrectOwner",
      "type": "error"
    },
    {
      "inputs": [
        {
          "internalType": "address",
          "name": "operator",
          "type": "address"
        },
        {
          "internalType": "uint256",
          "name": "tokenId",
          "type": "uint256"
        }
      ],
      "name": "ERC721InsufficientApproval",
      "type": "error"
    },
    {
      "inputs": [
        {
          "internalType": "address",
          "name": "approver",
          "type": "address"
        }
      ],
      "name": "ERC721InvalidApprover",
      "type": "error"
    },
    {
      "inputs": [
        {
          "internalType": "address",
          "name": "operator",
          "type": "address"
        }
      ],
      "name": "ERC721InvalidOperator",
      "type": "error"
    },
    {
      "inputs": [
        {
          "internalType": "address",
          "name": "owner",
          "type": "address"
        }
      ],
      "name": "ERC721InvalidOwner",
      "type": "error"
    },
    {
      "inputs": [
        {
          "internalType": "address",
          "name": "receiver",
          "type": "address"
        }
      ],
      "name": "ERC721InvalidReceiver",
      "type": "error"
    },
    {
      "inputs": [
        {
          "internalType": "address",
          "name": "sender",
          "type": "address"
        }
      ],
      "name": "ERC721InvalidSender",
      "type": "error"
    },
    {
      "inputs": [
        {
          "internalType": "uint256",
          "name": "tokenId",
          "type": "uint256"
        }
      ],
      "name": "ERC721NonexistentToken",
      "type": "error"
    },
    {
      "inputs": [
        {
          "internalType": "address",
          "name": "owner",
          "type": "address"
        },
        {
          "internalType": "uint256",
          "name": "index",
          "type": "uint256"
        }
      ],
      "name": "ERC721OutOfBoundsIndex",
      "type": "error"
    },
    {
      "inputs": [
        {
          "internalType": "address",
          "name": "owner",
          "type": "address"
        }
      ],
      "name": "OwnableInvalidOwner",
      "type": "error"
    },
    {
      "inputs": [
        {
          "internalType": "address",
          "name": "account",
          "type": "address"
        }
      ],
      "name": "OwnableUnauthorizedAccount",
      "type": "error"
    },
    {
      "inputs": [],
      "name": "ReentrancyGuardReentrantCall",
      "type": "error"
    },
    {
      "anonymous": false,
      "inputs": [
        {
          "indexed": true,
          "internalType": "address",
          "name": "owner",
          "type": "address"
        },
        {
          "indexed": true,
          "internalType": "address",
          "name": "approved",
          "type": "address"
        },
        {
          "indexed": true,
          "internalType": "uint256",
          "name": "tokenId",
          "type": "uint256"
        }
      ],
      "name": "Approval",
      "type": "event"
    },
    {
      "anonymous": false,
      "inputs": [
        {
          "indexed": true,
          "internalType": "address",
          "name": "owner",
          "type": "address"
        },
        {
          "indexed": true,
          "internalType": "address",
          "name": "operator",
          "type": "address"
        },
        {
          "indexed": false,
          "internalType": "bool",
          "name": "approved",
          "type": "bool"
        }
      ],
      "name": "ApprovalForAll",
      "type": "event"
    },
    {
      "anonymous": false,
      "inputs": [
        {
          "indexed": true,
          "internalType": "address",
          "name": "owner",
          "type": "address"
        },
        {
          "indexed": true,
          "internalType": "uint256",
          "name": "id",
          "type": "uint256"
        }
      ],
      "name": "NFTBurned",
      "type": "event"
    },
    {
      "anonymous": false,
      "inputs": [
        {
          "indexed": true,
          "internalType": "address",
          "name": "purchaser",
          "type": "address"
        },
        {
          "indexed": true,
          "internalType": "uint256",
          "name": "id",
          "type": "uint256"
        },
        {
          "indexed": true,
          "internalType": "uint256",
          "name": "grade",
          "type": "uint256"
        }
      ],
      "name": "NFTMinted",
      "type": "event"
    },
    {
      "anonymous": false,
      "inputs": [
        {
          "indexed": true,
          "internalType": "address",
          "name": "previousOwner",
          "type": "address"
        },
        {
          "indexed": true,
          "internalType": "address",
          "name": "newOwner",
          "type": "address"
        }
      ],
      "name": "OwnershipTransferred",
      "type": "event"
    },
    {
      "anonymous": false,
      "inputs": [
        {
          "indexed": true,
          "internalType": "address",
          "name": "from",
          "type": "address"
        },
        {
          "indexed": true,
          "internalType": "address",
          "name": "to",
          "type": "address"
        },
        {
          "indexed": true,
          "internalType": "uint256",
          "name": "tokenId",
          "type": "uint256"
        }
      ],
      "name": "Transfer",
      "type": "event"
    },
    {
      "inputs": [
        {
          "internalType": "address",
          "name": "to",
          "type": "address"
        },
        {
          "internalType": "uint256",
          "name": "tokenId",
          "type": "uint256"
        }
      ],
      "name": "approve",
      "outputs": [],
      "stateMutability": "nonpayable",
      "type": "function"
    },
    {
      "inputs": [
        {
          "internalType": "address",
          "name": "owner",
          "type": "address"
        }
      ],
      "name": "balanceOf",
      "outputs": [
        {
          "internalType": "uint256",
          "name": "",
          "type": "uint256"
        }
      ],
      "stateMutability": "view",
      "type": "function"
    },
    {
      "inputs": [],
      "name": "baseUri",
      "outputs": [
        {
          "internalType": "string",
          "name": "",
          "type": "string"
        }
      ],
      "stateMutability": "view",
      "type": "function"
    },
    {
      "inputs": [
        {
          "internalType": "uint256",
          "name": "tokenId",
          "type": "uint256"
        }
      ],
      "name": "burn",
      "outputs": [],
      "stateMutability": "nonpayable",
      "type": "function"
    },
    {
      "inputs": [
        {
          "internalType": "uint256",
          "name": "",
          "type": "uint256"
        }
      ],
      "name": "cost",
      "outputs": [
        {
          "internalType": "uint256",
          "name": "",
          "type": "uint256"
        }
      ],
      "stateMutability": "view",
      "type": "function"
    },
    {
      "inputs": [],
      "name": "escrowWallet",
      "outputs": [
        {
          "internalType": "address payable",
          "name": "",
          "type": "address"
        }
      ],
      "stateMutability": "view",
      "type": "function"
    },
    {
      "inputs": [
        {
          "internalType": "uint256",
          "name": "tokenId",
          "type": "uint256"
        }
      ],
      "name": "getApproved",
      "outputs": [
        {
          "internalType": "address",
          "name": "",
          "type": "address"
        }
      ],
      "stateMutability": "view",
      "type": "function"
    },
    {
      "inputs": [
        {
          "internalType": "address",
          "name": "owner",
          "type": "address"
        },
        {
          "internalType": "address",
          "name": "operator",
          "type": "address"
        }
      ],
      "name": "isApprovedForAll",
      "outputs": [
        {
          "internalType": "bool",
          "name": "",
          "type": "bool"
        }
      ],
      "stateMutability": "view",
      "type": "function"
    },
    {
      "inputs": [
        {
          "internalType": "uint256",
          "name": "_mintAmount",
          "type": "uint256"
        },
        {
          "internalType": "uint256",
          "name": "_grade",
          "type": "uint256"
        }
      ],
      "name": "mint",
      "outputs": [],
      "stateMutability": "nonpayable",
      "type": "function"
    },
    {
      "inputs": [
        {
          "internalType": "uint256",
          "name": "_mintAmount",
          "type": "uint256"
        },
        {
          "internalType": "uint256",
          "name": "_grade",
          "type": "uint256"
        }
      ],
      "name": "mintWithNative",
      "outputs": [],
      "stateMutability": "payable",
      "type": "function"
    },
    {
      "inputs": [],
      "name": "name",
      "outputs": [
        {
          "internalType": "string",
          "name": "",
          "type": "string"
        }
      ],
      "stateMutability": "view",
      "type": "function"
    },
    {
      "inputs": [
        {
          "internalType": "uint256",
          "name": "",
          "type": "uint256"
        }
      ],
      "name": "nativeCost",
      "outputs": [
        {
          "internalType": "uint256",
          "name": "",
          "type": "uint256"
        }
      ],
      "stateMutability": "view",
      "type": "function"
    },
    {
      "inputs": [],
      "name": "owner",
      "outputs": [
        {
          "internalType": "address",
          "name": "",
          "type": "address"
        }
      ],
      "stateMutability": "view",
      "type": "function"
    },
    {
      "inputs": [
        {
          "internalType": "uint256",
          "name": "tokenId",
          "type": "uint256"
        }
      ],
      "name": "ownerOf",
      "outputs": [
        {
          "internalType": "address",
          "name": "",
          "type": "address"
        }
      ],
      "stateMutability": "view",
      "type": "function"
    },
    {
      "inputs": [],
      "name": "paymentToken",
      "outputs": [
        {
          "internalType": "address",
          "name": "",
          "type": "address"
        }
      ],
      "stateMutability": "view",
      "type": "function"
    },
    {
      "inputs": [],
      "name": "renounceOwnership",
      "outputs": [],
      "stateMutability": "nonpayable",
      "type": "function"
    },
    {
      "inputs": [
        {
          "internalType": "address",
          "name": "from",
          "type": "address"
        },
        {
          "internalType": "address",
          "name": "to",
          "type": "address"
        },
        {
          "internalType": "uint256",
          "name": "tokenId",
          "type": "uint256"
        }
      ],
      "name": "safeTransferFrom",
      "outputs": [],
      "stateMutability": "nonpayable",
      "type": "function"
    },
    {
      "inputs": [
        {
          "internalType": "address",
          "name": "from",
          "type": "address"
        },
        {
          "internalType": "address",
          "name": "to",
          "type": "address"
        },
        {
          "internalType": "uint256",
          "name": "tokenId",
          "type": "uint256"
        },
        {
          "internalType": "bytes",
          "name": "data",
          "type": "bytes"
        }
      ],
      "name": "safeTransferFrom",
      "outputs": [],
      "stateMutability": "nonpayable",
      "type": "function"
    },
    {
      "inputs": [],
      "name": "saleWallet",
      "outputs": [
        {
          "internalType": "address payable",
          "name": "",
          "type": "address"
        }
      ],
      "stateMutability": "view",
      "type": "function"
    },
    {
      "inputs": [
        {
          "internalType": "address",
          "name": "operator",
          "type": "address"
        },
        {
          "internalType": "bool",
          "name": "approved",
          "type": "bool"
        }
      ],
      "name": "setApprovalForAll",
      "outputs": [],
      "stateMutability": "nonpayable",
      "type": "function"
    },
    {
      "inputs": [
        {
          "internalType": "string",
          "name": "_baseUri",
          "type": "string"
        }
      ],
      "name": "setBaseURI",
      "outputs": [],
      "stateMutability": "nonpayable",
      "type": "function"
    },
    {
      "inputs": [
        {
          "internalType": "uint256",
          "name": "_grade",
          "type": "uint256"
        },
        {
          "internalType": "uint256",
          "name": "_cost",
          "type": "uint256"
        }
      ],
      "name": "setCost",
      "outputs": [],
      "stateMutability": "nonpayable",
      "type": "function"
    },
    {
      "inputs": [
        {
          "internalType": "uint256",
          "name": "_grade",
          "type": "uint256"
        },
        {
          "internalType": "uint256",
          "name": "_nativeCost",
          "type": "uint256"
        }
      ],
      "name": "setNativeCost",
      "outputs": [],
      "stateMutability": "nonpayable",
      "type": "function"
    },
    {
      "inputs": [
        {
          "internalType": "address",
          "name": "_paymentToken",
          "type": "address"
        }
      ],
      "name": "setPaymentToken",
      "outputs": [],
      "stateMutability": "nonpayable",
      "type": "function"
    },
    {
      "inputs": [
        {
          "internalType": "address payable",
          "name": "_saleWallet",
          "type": "address"
        }
      ],
      "name": "setSaleWallet",
      "outputs": [],
      "stateMutability": "nonpayable",
      "type": "function"
    },
    {
      "inputs": [
        {
          "internalType": "bytes4",
          "name": "interfaceId",
          "type": "bytes4"
        }
      ],
      "name": "supportsInterface",
      "outputs": [
        {
          "internalType": "bool",
          "name": "",
          "type": "bool"
        }
      ],
      "stateMutability": "pure",
      "type": "function"
    },
    {
      "inputs": [],
      "name": "symbol",
      "outputs": [
        {
          "internalType": "string",
          "name": "",
          "type": "string"
        }
      ],
      "stateMutability": "view",
      "type": "function"
    },
    {
      "inputs": [
        {
          "internalType": "uint256",
          "name": "index",
          "type": "uint256"
        }
      ],
      "name": "tokenByIndex",
      "outputs": [
        {
          "internalType": "uint256",
          "name": "",
          "type": "uint256"
        }
      ],
      "stateMutability": "view",
      "type": "function"
    },
    {
      "inputs": [],
      "name": "tokenIdCounter",
      "outputs": [
        {
          "internalType": "uint256",
          "name": "",
          "type": "uint256"
        }
      ],
      "stateMutability": "view",
      "type": "function"
    },
    {
      "inputs": [
        {
          "internalType": "address",
          "name": "owner",
          "type": "address"
        },
        {
          "internalType": "uint256",
          "name": "index",
          "type": "uint256"
        }
      ],
      "name": "tokenOfOwnerByIndex",
      "outputs": [
        {
          "internalType": "uint256",
          "name": "",
          "type": "uint256"
        }
      ],
      "stateMutability": "view",
      "type": "function"
    },
    {
      "inputs": [
        {
          "internalType": "uint256",
          "name": "tokenId",
          "type": "uint256"
        }
      ],
      "name": "tokenURI",
      "outputs": [
        {
          "internalType": "string",
          "name": "",
          "type": "string"
        }
      ],
      "stateMutability": "view",
      "type": "function"
    },
    {
      "inputs": [],
      "name": "totalSupply",
      "outputs": [
        {
          "internalType": "uint256",
          "name": "",
          "type": "uint256"
        }
      ],
      "stateMutability": "view",
      "type": "function"
    },
    {
      "inputs": [
        {
          "internalType": "address",
          "name": "from",
          "type": "address"
        },
        {
          "internalType": "address",
          "name": "to",
          "type": "address"
        },
        {
          "internalType": "uint256",
          "name": "tokenId",
          "type": "uint256"
        }
      ],
      "name": "transferFrom",
      "outputs": [],
      "stateMutability": "nonpayable",
      "type": "function"
    },
    {
      "inputs": [
        {
          "internalType": "address",
          "name": "newOwner",
          "type": "address"
        }
      ],
      "name": "transferOwnership",
      "outputs": [],
      "stateMutability": "nonpayable",
      "type": "function"
    }
  ],
  "bytecode": "0x60806040523480156200001157600080fd5b50604051620045fb380380620045fb8339818101604052810190620000379190620006d6565b6040518060400160405280600981526020017f506f6c7973706f727400000000000000000000000000000000000000000000008152506040518060400160405280600481526020017f504f4c590000000000000000000000000000000000000000000000000000000081525033600073ffffffffffffffffffffffffffffffffffffffff168173ffffffffffffffffffffffffffffffffffffffff1603620001195760006040517f1e4fbdf7000000000000000000000000000000000000000000000000000000008152600401620001109190620007f7565b60405180910390fd5b6200012a81620002bf60201b60201c565b5060018081905550816002908162000143919062000a55565b50806003908162000155919062000a55565b50505086600d908162000169919062000a55565b5060005b86811015620001ee578581815181106200018c576200018b62000b3c565b5b6020026020010151600e600083815260200190815260200160002081905550848181518110620001c157620001c062000b3c565b5b6020026020010151600f60008381526020019081526020016000208190555080806001019150506200016d565b5082601060006101000a81548173ffffffffffffffffffffffffffffffffffffffff021916908373ffffffffffffffffffffffffffffffffffffffff16021790555081601160006101000a81548173ffffffffffffffffffffffffffffffffffffffff021916908373ffffffffffffffffffffffffffffffffffffffff16021790555080601260006101000a81548173ffffffffffffffffffffffffffffffffffffffff021916908373ffffffffffffffffffffffffffffffffffffffff1602179055505050505050505062000b6b565b60008060009054906101000a900473ffffffffffffffffffffffffffffffffffffffff169050816000806101000a81548173ffffffffffffffffffffffffffffffffffffffff021916908373ffffffffffffffffffffffffffffffffffffffff1602179055508173ffffffffffffffffffffffffffffffffffffffff168173ffffffffffffffffffffffffffffffffffffffff167f8be0079c531659141344cd1fd0a4f28419497f9722a3daafe3b4186f6b6457e060405160405180910390a35050565b6000604051905090565b600080fd5b600080fd5b600080fd5b600080fd5b6000601f19601f8301169050919050565b7f4e487b7100000000000000000000000000000000000000000000000000000000600052604160045260246000fd5b620003ec82620003a1565b810181811067ffffffffffffffff821117156200040e576200040d620003b2565b5b80604052505050565b60006200042362000383565b9050620004318282620003e1565b919050565b600067ffffffffffffffff821115620004545762000453620003b2565b5b6200045f82620003a1565b9050602081019050919050565b60005b838110156200048c5780820151818401526020810190506200046f565b60008484015250505050565b6000620004af620004a98462000436565b62000417565b905082815260208101848484011115620004ce57620004cd6200039c565b5b620004db8482856200046c565b509392505050565b600082601f830112620004fb57620004fa62000397565b5b81516200050d84826020860162000498565b91505092915050565b6000819050919050565b6200052b8162000516565b81146200053757600080fd5b50565b6000815190506200054b8162000520565b92915050565b600067ffffffffffffffff8211156200056f576200056e620003b2565b5b602082029050602081019050919050565b600080fd5b60006200059c620005968462000551565b62000417565b90508083825260208201905060208402830185811115620005c257620005c162000580565b5b835b81811015620005ef5780620005da88826200053a565b845260208401935050602081019050620005c4565b5050509392505050565b600082601f83011262000611576200061062000397565b5b81516200062384826020860162000585565b91505092915050565b600073ffffffffffffffffffffffffffffffffffffffff82169050919050565b600062000659826200062c565b9050919050565b6200066b816200064c565b81146200067757600080fd5b50565b6000815190506200068b8162000660565b92915050565b60006200069e826200062c565b9050919050565b620006b08162000691565b8114620006bc57600080fd5b50565b600081519050620006d081620006a5565b92915050565b600080600080600080600060e0888a031215620006f857620006f76200038d565b5b600088015167ffffffffffffffff81111562000719576200071862000392565b5b620007278a828b01620004e3565b97505060206200073a8a828b016200053a565b965050604088015167ffffffffffffffff8111156200075e576200075d62000392565b5b6200076c8a828b01620005f9565b955050606088015167ffffffffffffffff81111562000790576200078f62000392565b5b6200079e8a828b01620005f9565b9450506080620007b18a828b016200067a565b93505060a0620007c48a828b016200067a565b92505060c0620007d78a828b01620006bf565b91505092959891949750929550565b620007f18162000691565b82525050565b60006020820190506200080e6000830184620007e6565b92915050565b600081519050919050565b7f4e487b7100000000000000000000000000000000000000000000000000000000600052602260045260246000fd5b600060028204905060018216806200086757607f821691505b6020821081036200087d576200087c6200081f565b5b50919050565b60008190508160005260206000209050919050565b60006020601f8301049050919050565b600082821b905092915050565b600060088302620008e77fffffffffffffffffffffffffffffffffffffffffffffffffffffffffffffffff82620008a8565b620008f38683620008a8565b95508019841693508086168417925050509392505050565b6000819050919050565b600062000936620009306200092a8462000516565b6200090b565b62000516565b9050919050565b6000819050919050565b620009528362000915565b6200096a62000961826200093d565b848454620008b5565b825550505050565b600090565b6200098162000972565b6200098e81848462000947565b505050565b5b81811015620009b657620009aa60008262000977565b60018101905062000994565b5050565b601f82111562000a0557620009cf8162000883565b620009da8462000898565b81016020851015620009ea578190505b62000a02620009f98562000898565b83018262000993565b50505b505050565b600082821c905092915050565b600062000a2a6000198460080262000a0a565b1980831691505092915050565b600062000a45838362000a17565b9150826002028217905092915050565b62000a608262000814565b67ffffffffffffffff81111562000a7c5762000a7b620003b2565b5b62000a8882546200084e565b62000a95828285620009ba565b600060209050601f83116001811462000acd576000841562000ab8578287015190505b62000ac4858262000a37565b86555062000b34565b601f19841662000add8662000883565b60005b8281101562000b075784890151825560018201915060208501945060208101905062000ae0565b8683101562000b27578489015162000b23601f89168262000a17565b8355505b6001600288020188555050505b505050505050565b7f4e487b7100000000000000000000000000000000000000000000000000000000600052603260045260246000fd5b613a808062000b7b6000396000f3fe6080604052600436106101f95760003560e01c806370a082311161010d578063967f4503116100a0578063a22cb4651161006f578063a22cb46514610736578063b88d4fde1461075f578063c87b56dd14610788578063e985e9c5146107c5578063f2fde38b14610802576101f9565b8063967f45031461069b57806398bdf6f5146106b757806399dcc518146106e25780639abc83201461070b576101f9565b80638da5cb5b116100dc5780638da5cb5b146105dd5780639097548d1461060857806392d3be791461064557806395d89b4114610670576101f9565b806370a0823114610535578063715018a6146105725780637696e088146105895780637c4db77d146105b2576101f9565b80632f745c59116101905780634f6ccce71161015f5780634f6ccce71461042c57806355f804b3146104695780636352211e14610492578063663d2269146104cf5780636a326ab11461050c576101f9565b80632f745c59146103725780633013ce29146103af57806342842e0e146103da57806342966c6814610403576101f9565b80630fa8d85c116101cc5780630fa8d85c146102cc57806318160ddd146102f55780631b2ef1ca1461032057806323b872dd14610349576101f9565b806301ffc9a7146101fe57806306fdde031461023b578063081812fc14610266578063095ea7b3146102a3575b600080fd5b34801561020a57600080fd5b5061022560048036038101906102209190612ad0565b61082b565b6040516102329190612b18565b60405180910390f35b34801561024757600080fd5b506102506109cd565b60405161025d9190612bc3565b60405180910390f35b34801561027257600080fd5b5061028d60048036038101906102889190612c1b565b610a5f565b60405161029a9190612c89565b60405180910390f35b3480156102af57600080fd5b506102ca60048036038101906102c59190612cd0565b610a7b565b005b3480156102d857600080fd5b506102f360048036038101906102ee9190612d10565b610a91565b005b34801561030157600080fd5b5061030a610ab5565b6040516103179190612d5f565b60405180910390f35b34801561032c57600080fd5b5061034760048036038101906103429190612d10565b610ac2565b005b34801561035557600080fd5b50610370600480360381019061036b9190612d7a565b610bec565b005b34801561037e57600080fd5b5061039960048036038101906103949190612cd0565b610cee565b6040516103a69190612d5f565b60405180910390f35b3480156103bb57600080fd5b506103c4610d97565b6040516103d19190612c89565b60405180910390f35b3480156103e657600080fd5b5061040160048036038101906103fc9190612d7a565b610dbd565b005b34801561040f57600080fd5b5061042a60048036038101906104259190612c1b565b610ddd565b005b34801561043857600080fd5b50610453600480360381019061044e9190612c1b565b610eb9565b6040516104609190612d5f565b60405180910390f35b34801561047557600080fd5b50610490600480360381019061048b9190612f02565b610f2f565b005b34801561049e57600080fd5b506104b960048036038101906104b49190612c1b565b610f4a565b6040516104c69190612c89565b60405180910390f35b3480156104db57600080fd5b506104f660048036038101906104f19190612c1b565b610f5c565b6040516105039190612d5f565b60405180910390f35b34801561051857600080fd5b50610533600480360381019061052e9190612f4b565b610f74565b005b34801561054157600080fd5b5061055c60048036038101906105579190612f4b565b610fc0565b6040516105699190612d5f565b60405180910390f35b34801561057e57600080fd5b5061058761107a565b005b34801561059557600080fd5b506105b060048036038101906105ab9190612d10565b61108e565b005b3480156105be57600080fd5b506105c76110b2565b6040516105d49190612f99565b60405180910390f35b3480156105e957600080fd5b506105f26110d8565b6040516105ff9190612c89565b60405180910390f35b34801561061457600080fd5b5061062f600480360381019061062a9190612c1b565b611101565b60405161063c9190612d5f565b60405180910390f35b34801561065157600080fd5b5061065a611119565b6040516106679190612f99565b60405180910390f35b34801561067c57600080fd5b5061068561113f565b6040516106929190612bc3565b60405180910390f35b6106b560048036038101906106b09190612d10565b6111d1565b005b3480156106c357600080fd5b506106cc611308565b6040516106d99190612d5f565b60405180910390f35b3480156106ee57600080fd5b5061070960048036038101906107049190612fe0565b61130e565b005b34801561071757600080fd5b5061072061135a565b60405161072d9190612bc3565b60405180910390f35b34801561074257600080fd5b5061075d60048036038101906107589190613039565b6113e8565b005b34801561076b57600080fd5b506107866004803603810190610781919061311a565b6113fe565b005b34801561079457600080fd5b506107af60048036038101906107aa9190612c1b565b61141b565b6040516107bc9190612bc3565b60405180910390f35b3480156107d157600080fd5b506107ec60048036038101906107e7919061319d565b611485565b6040516107f99190612b18565b60405180910390f35b34801561080e57600080fd5b5061082960048036038101906108249190612f4b565b611519565b005b60007f80ac58cd000000000000000000000000000000000000000000000000000000007bffffffffffffffffffffffffffffffffffffffffffffffffffffffff1916827bffffffffffffffffffffffffffffffffffffffffffffffffffffffff191614806108f657507f01ffc9a7000000000000000000000000000000000000000000000000000000007bffffffffffffffffffffffffffffffffffffffffffffffffffffffff1916827bffffffffffffffffffffffffffffffffffffffffffffffffffffffff1916145b8061095e57507fcfc7d8a1000000000000000000000000000000000000000000000000000000007bffffffffffffffffffffffffffffffffffffffffffffffffffffffff1916827bffffffffffffffffffffffffffffffffffffffffffffffffffffffff1916145b806109c657507f780e9d63000000000000000000000000000000000000000000000000000000007bffffffffffffffffffffffffffffffffffffffffffffffffffffffff1916827bffffffffffffffffffffffffffffffffffffffffffffffffffffffff1916145b9050919050565b6060600280546109dc9061320c565b80601f0160208091040260200160405190810160405280929190818152602001828054610a089061320c565b8015610a555780601f10610a2a57610100808354040283529160200191610a55565b820191906000526020600020905b815481529060010190602001808311610a3857829003601f168201915b5050505050905090565b6000610a6a8261159f565b50610a7482611627565b9050919050565b610a8d8282610a88611664565b61166c565b5050565b610a9961167e565b80600f6000848152602001908152602001600020819055505050565b6000600a80549050905090565b60008211610acf57600080fd5b6000600e60008381526020019081526020016000205411610b25576040517f08c379a0000000000000000000000000000000000000000000000000000000008152600401610b1c906132af565b60405180910390fd5b600082600e600084815260200190815260200160002054610b4691906132fe565b905060005b83811015610b6a57610b5d3384611705565b8080600101915050610b4b565b50610baf6004600583610b7d919061336f565b610b8791906132fe565b601160009054906101000a900473ffffffffffffffffffffffffffffffffffffffff16611785565b610be7600582610bbf919061336f565b601060009054906101000a900473ffffffffffffffffffffffffffffffffffffffff16611785565b505050565b600073ffffffffffffffffffffffffffffffffffffffff168273ffffffffffffffffffffffffffffffffffffffff1603610c5e5760006040517f64a0ae92000000000000000000000000000000000000000000000000000000008152600401610c559190612c89565b60405180910390fd5b6000610c728383610c6d611664565b61182c565b90508373ffffffffffffffffffffffffffffffffffffffff168173ffffffffffffffffffffffffffffffffffffffff1614610ce8578382826040517f64283d7b000000000000000000000000000000000000000000000000000000008152600401610cdf939291906133a0565b60405180910390fd5b50505050565b6000610cf983610fc0565b8210610d3e5782826040517fa57d13dc000000000000000000000000000000000000000000000000000000008152600401610d359291906133d7565b60405180910390fd5b600860008473ffffffffffffffffffffffffffffffffffffffff1673ffffffffffffffffffffffffffffffffffffffff168152602001908152602001600020600083815260200190815260200160002054905092915050565b601260009054906101000a900473ffffffffffffffffffffffffffffffffffffffff1681565b610dd8838383604051806020016040528060008152506113fe565b505050565b3373ffffffffffffffffffffffffffffffffffffffff16610dfd82611842565b73ffffffffffffffffffffffffffffffffffffffff161480610e5257503373ffffffffffffffffffffffffffffffffffffffff16610e3a82611627565b73ffffffffffffffffffffffffffffffffffffffff16145b610e5b57600080fd5b6000610e6682611842565b9050610e718261187f565b818173ffffffffffffffffffffffffffffffffffffffff167fd6a6bcd88cdc4656d5f4e14e7dfbc9bc3f2f9811f8d6b508f3bee7d999d4d41c60405160405180910390a35050565b6000610ec3610ab5565b8210610f09576000826040517fa57d13dc000000000000000000000000000000000000000000000000000000008152600401610f009291906133d7565b60405180910390fd5b600a8281548110610f1d57610f1c613400565b5b90600052602060002001549050919050565b610f3761167e565b80600d9081610f4691906135db565b5050565b6000610f558261159f565b9050919050565b600f6020528060005260406000206000915090505481565b610f7c61167e565b80601260006101000a81548173ffffffffffffffffffffffffffffffffffffffff021916908373ffffffffffffffffffffffffffffffffffffffff16021790555050565b60008073ffffffffffffffffffffffffffffffffffffffff168273ffffffffffffffffffffffffffffffffffffffff16036110335760006040517f89c62b6400000000000000000000000000000000000000000000000000000000815260040161102a9190612c89565b60405180910390fd5b600560008373ffffffffffffffffffffffffffffffffffffffff1673ffffffffffffffffffffffffffffffffffffffff168152602001908152602001600020549050919050565b61108261167e565b61108c6000611905565b565b61109661167e565b80600e6000848152602001908152602001600020819055505050565b601060009054906101000a900473ffffffffffffffffffffffffffffffffffffffff1681565b60008060009054906101000a900473ffffffffffffffffffffffffffffffffffffffff16905090565b600e6020528060005260406000206000915090505481565b601160009054906101000a900473ffffffffffffffffffffffffffffffffffffffff1681565b60606003805461114e9061320c565b80601f016020809104026020016040519081016040528092919081815260200182805461117a9061320c565b80156111c75780601f1061119c576101008083540402835291602001916111c7565b820191906000526020600020905b8154815290600101906020018083116111aa57829003601f168201915b5050505050905090565b600082116111de57600080fd5b6000600f60008381526020019081526020016000205411611234576040517f08c379a000000000000000000000000000000000000000000000000000000000815260040161122b9061371f565b60405180910390fd5b600082600f60008481526020019081526020016000205461125591906132fe565b90508034101561126457600080fd5b60005b83811015611286576112793384611705565b8080600101915050611267565b506112cb6004600583611299919061336f565b6112a391906132fe565b601160009054906101000a900473ffffffffffffffffffffffffffffffffffffffff166119c9565b6113036005826112db919061336f565b601060009054906101000a900473ffffffffffffffffffffffffffffffffffffffff166119c9565b505050565b600c5481565b61131661167e565b80601060006101000a81548173ffffffffffffffffffffffffffffffffffffffff021916908373ffffffffffffffffffffffffffffffffffffffff16021790555050565b600d80546113679061320c565b80601f01602080910402602001604051908101604052809291908181526020018280546113939061320c565b80156113e05780601f106113b5576101008083540402835291602001916113e0565b820191906000526020600020905b8154815290600101906020018083116113c357829003601f168201915b505050505081565b6113fa6113f3611664565b8383611a14565b5050565b611409848484610bec565b61141584848484611b83565b50505050565b60606114268261159f565b506000600d80546114369061320c565b905011611452576040518060200160405280600081525061147e565b600d61145d83611d3a565b60405160200161146e929190613824565b6040516020818303038152906040525b9050919050565b6000600760008473ffffffffffffffffffffffffffffffffffffffff1673ffffffffffffffffffffffffffffffffffffffff16815260200190815260200160002060008373ffffffffffffffffffffffffffffffffffffffff1673ffffffffffffffffffffffffffffffffffffffff16815260200190815260200160002060009054906101000a900460ff16905092915050565b61152161167e565b600073ffffffffffffffffffffffffffffffffffffffff168173ffffffffffffffffffffffffffffffffffffffff16036115935760006040517f1e4fbdf700000000000000000000000000000000000000000000000000000000815260040161158a9190612c89565b60405180910390fd5b61159c81611905565b50565b6000806115ab83611842565b9050600073ffffffffffffffffffffffffffffffffffffffff168173ffffffffffffffffffffffffffffffffffffffff160361161e57826040517f7e2732890000000000000000000000000000000000000000000000000000000081526004016116159190612d5f565b60405180910390fd5b80915050919050565b60006006600083815260200190815260200160002060009054906101000a900473ffffffffffffffffffffffffffffffffffffffff169050919050565b600033905090565b6116798383836001611e08565b505050565b611686611664565b73ffffffffffffffffffffffffffffffffffffffff166116a46110d8565b73ffffffffffffffffffffffffffffffffffffffff1614611703576116c7611664565b6040517f118cdaa70000000000000000000000000000000000000000000000000000000081526004016116fa9190612c89565b60405180910390fd5b565b61170d611fcd565b6000600c5490506001600c546117239190613857565b600c819055506117338382612013565b81818473ffffffffffffffffffffffffffffffffffffffff167f3a8a89b59a31c39a36febecb987e0657ab7b7c73b60ebacb44dcb9886c2d5c8a60405160405180910390a450611781612031565b5050565b601260009054906101000a900473ffffffffffffffffffffffffffffffffffffffff1673ffffffffffffffffffffffffffffffffffffffff166323b872dd3383856040518463ffffffff1660e01b81526004016117e49392919061388b565b6020604051808303816000875af1158015611803573d6000803e3d6000fd5b505050506040513d601f19601f8201168201806040525081019061182791906138d7565b505050565b600061183984848461203a565b90509392505050565b60006004600083815260200190815260200160002060009054906101000a900473ffffffffffffffffffffffffffffffffffffffff169050919050565b600061188e600083600061182c565b9050600073ffffffffffffffffffffffffffffffffffffffff168173ffffffffffffffffffffffffffffffffffffffff160361190157816040517f7e2732890000000000000000000000000000000000000000000000000000000081526004016118f89190612d5f565b60405180910390fd5b5050565b60008060009054906101000a900473ffffffffffffffffffffffffffffffffffffffff169050816000806101000a81548173ffffffffffffffffffffffffffffffffffffffff021916908373ffffffffffffffffffffffffffffffffffffffff1602179055508173ffffffffffffffffffffffffffffffffffffffff168173ffffffffffffffffffffffffffffffffffffffff167f8be0079c531659141344cd1fd0a4f28419497f9722a3daafe3b4186f6b6457e060405160405180910390a35050565b8073ffffffffffffffffffffffffffffffffffffffff166108fc839081150290604051600060405180830381858888f19350505050158015611a0f573d6000803e3d6000fd5b505050565b600073ffffffffffffffffffffffffffffffffffffffff168273ffffffffffffffffffffffffffffffffffffffff1603611a8557816040517f5b08ba18000000000000000000000000000000000000000000000000000000008152600401611a7c9190612c89565b60405180910390fd5b80600760008573ffffffffffffffffffffffffffffffffffffffff1673ffffffffffffffffffffffffffffffffffffffff16815260200190815260200160002060008473ffffffffffffffffffffffffffffffffffffffff1673ffffffffffffffffffffffffffffffffffffffff16815260200190815260200160002060006101000a81548160ff0219169083151502179055508173ffffffffffffffffffffffffffffffffffffffff168373ffffffffffffffffffffffffffffffffffffffff167f17307eab39ab6107e8899845ad3d59bd9653f200f220920489ca2b5937696c3183604051611b769190612b18565b60405180910390a3505050565b60008373ffffffffffffffffffffffffffffffffffffffff163b1115611d34578273ffffffffffffffffffffffffffffffffffffffff1663150b7a02611bc7611664565b8685856040518563ffffffff1660e01b8152600401611be99493929190613959565b6020604051808303816000875af1925050508015611c2557506040513d601f19601f82011682018060405250810190611c2291906139ba565b60015b611ca9573d8060008114611c55576040519150601f19603f3d011682016040523d82523d6000602084013e611c5a565b606091505b506000815103611ca157836040517f64a0ae92000000000000000000000000000000000000000000000000000000008152600401611c989190612c89565b60405180910390fd5b805181602001fd5b63150b7a0260e01b7bffffffffffffffffffffffffffffffffffffffffffffffffffffffff1916817bffffffffffffffffffffffffffffffffffffffffffffffffffffffff191614611d3257836040517f64a0ae92000000000000000000000000000000000000000000000000000000008152600401611d299190612c89565b60405180910390fd5b505b50505050565b606060006001611d4984612157565b01905060008167ffffffffffffffff811115611d6857611d67612dd7565b5b6040519080825280601f01601f191660200182016040528015611d9a5781602001600182028036833780820191505090505b509050600082602001820190505b600115611dfd578080600190039150507f3031323334353637383961626364656600000000000000000000000000000000600a86061a8153600a8581611df157611df0613340565b5b04945060008503611da8575b819350505050919050565b8080611e415750600073ffffffffffffffffffffffffffffffffffffffff168273ffffffffffffffffffffffffffffffffffffffff1614155b15611f75576000611e518461159f565b9050600073ffffffffffffffffffffffffffffffffffffffff168373ffffffffffffffffffffffffffffffffffffffff1614158015611ebc57508273ffffffffffffffffffffffffffffffffffffffff168173ffffffffffffffffffffffffffffffffffffffff1614155b8015611ecf5750611ecd8184611485565b155b15611f1157826040517fa9fbf51f000000000000000000000000000000000000000000000000000000008152600401611f089190612c89565b60405180910390fd5b8115611f7357838573ffffffffffffffffffffffffffffffffffffffff168273ffffffffffffffffffffffffffffffffffffffff167f8c5be1e5ebec7d5bd14f71427d1e84f3dd0314c0f7b2291e5b200ac8c7c3b92560405160405180910390a45b505b836006600085815260200190815260200160002060006101000a81548173ffffffffffffffffffffffffffffffffffffffff021916908373ffffffffffffffffffffffffffffffffffffffff16021790555050505050565b600260015403612009576040517f3ee5aeb500000000000000000000000000000000000000000000000000000000815260040160405180910390fd5b6002600181905550565b61202d8282604051806020016040528060008152506122aa565b5050565b60018081905550565b6000806120488585856122c6565b9050600073ffffffffffffffffffffffffffffffffffffffff168173ffffffffffffffffffffffffffffffffffffffff160361208c57612087846124e0565b6120cb565b8473ffffffffffffffffffffffffffffffffffffffff168173ffffffffffffffffffffffffffffffffffffffff16146120ca576120c98185612529565b5b5b600073ffffffffffffffffffffffffffffffffffffffff168573ffffffffffffffffffffffffffffffffffffffff160361210d576121088461268a565b61214c565b8473ffffffffffffffffffffffffffffffffffffffff168173ffffffffffffffffffffffffffffffffffffffff161461214b5761214a858561275b565b5b5b809150509392505050565b600080600090507a184f03e93ff9f4daa797ed6e38ed64bf6a1f01000000000000000083106121b5577a184f03e93ff9f4daa797ed6e38ed64bf6a1f01000000000000000083816121ab576121aa613340565b5b0492506040810190505b6d04ee2d6d415b85acef810000000083106121f2576d04ee2d6d415b85acef810000000083816121e8576121e7613340565b5b0492506020810190505b662386f26fc10000831061222157662386f26fc10000838161221757612216613340565b5b0492506010810190505b6305f5e100831061224a576305f5e10083816122405761223f613340565b5b0492506008810190505b612710831061226f57612710838161226557612264613340565b5b0492506004810190505b60648310612292576064838161228857612287613340565b5b0492506002810190505b600a83106122a1576001810190505b80915050919050565b6122b483836127e6565b6122c16000848484611b83565b505050565b6000806122d284611842565b9050600073ffffffffffffffffffffffffffffffffffffffff168373ffffffffffffffffffffffffffffffffffffffff1614612314576123138184866128df565b5b600073ffffffffffffffffffffffffffffffffffffffff168173ffffffffffffffffffffffffffffffffffffffff16146123a557612356600085600080611e08565b6001600560008373ffffffffffffffffffffffffffffffffffffffff1673ffffffffffffffffffffffffffffffffffffffff168152602001908152602001600020600082825403925050819055505b600073ffffffffffffffffffffffffffffffffffffffff168573ffffffffffffffffffffffffffffffffffffffff1614612428576001600560008773ffffffffffffffffffffffffffffffffffffffff1673ffffffffffffffffffffffffffffffffffffffff168152602001908152602001600020600082825401925050819055505b846004600086815260200190815260200160002060006101000a81548173ffffffffffffffffffffffffffffffffffffffff021916908373ffffffffffffffffffffffffffffffffffffffff160217905550838573ffffffffffffffffffffffffffffffffffffffff168273ffffffffffffffffffffffffffffffffffffffff167fddf252ad1be2c89b69c2b068fc378daa952ba7f163c4a11628f55a4df523b3ef60405160405180910390a4809150509392505050565b600a80549050600b600083815260200190815260200160002081905550600a81908060018154018082558091505060019003906000526020600020016000909190919091505550565b600061253483610fc0565b9050600060096000848152602001908152602001600020549050818114612619576000600860008673ffffffffffffffffffffffffffffffffffffffff1673ffffffffffffffffffffffffffffffffffffffff168152602001908152602001600020600084815260200190815260200160002054905080600860008773ffffffffffffffffffffffffffffffffffffffff1673ffffffffffffffffffffffffffffffffffffffff168152602001908152602001600020600084815260200190815260200160002081905550816009600083815260200190815260200160002081905550505b6009600084815260200190815260200160002060009055600860008573ffffffffffffffffffffffffffffffffffffffff1673ffffffffffffffffffffffffffffffffffffffff16815260200190815260200160002060008381526020019081526020016000206000905550505050565b60006001600a8054905061269e91906139e7565b90506000600b60008481526020019081526020016000205490506000600a83815481106126ce576126cd613400565b5b9060005260206000200154905080600a83815481106126f0576126ef613400565b5b906000526020600020018190555081600b600083815260200190815260200160002081905550600b600085815260200190815260200160002060009055600a80548061273f5761273e613a1b565b5b6001900381819060005260206000200160009055905550505050565b6000600161276884610fc0565b61277291906139e7565b905081600860008573ffffffffffffffffffffffffffffffffffffffff1673ffffffffffffffffffffffffffffffffffffffff168152602001908152602001600020600083815260200190815260200160002081905550806009600084815260200190815260200160002081905550505050565b600073ffffffffffffffffffffffffffffffffffffffff168273ffffffffffffffffffffffffffffffffffffffff16036128585760006040517f64a0ae9200000000000000000000000000000000000000000000000000000000815260040161284f9190612c89565b60405180910390fd5b60006128668383600061182c565b9050600073ffffffffffffffffffffffffffffffffffffffff168173ffffffffffffffffffffffffffffffffffffffff16146128da5760006040517f73c6ac6e0000000000000000000000000000000000000000000000000000000081526004016128d19190612c89565b60405180910390fd5b505050565b6128ea8383836129a3565b61299e57600073ffffffffffffffffffffffffffffffffffffffff168373ffffffffffffffffffffffffffffffffffffffff160361295f57806040517f7e2732890000000000000000000000000000000000000000000000000000000081526004016129569190612d5f565b60405180910390fd5b81816040517f177e802f0000000000000000000000000000000000000000000000000000000081526004016129959291906133d7565b60405180910390fd5b505050565b60008073ffffffffffffffffffffffffffffffffffffffff168373ffffffffffffffffffffffffffffffffffffffff1614158015612a5b57508273ffffffffffffffffffffffffffffffffffffffff168473ffffffffffffffffffffffffffffffffffffffff161480612a1c5750612a1b8484611485565b5b80612a5a57508273ffffffffffffffffffffffffffffffffffffffff16612a4283611627565b73ffffffffffffffffffffffffffffffffffffffff16145b5b90509392505050565b6000604051905090565b600080fd5b600080fd5b60007fffffffff0000000000000000000000000000000000000000000000000000000082169050919050565b612aad81612a78565b8114612ab857600080fd5b50565b600081359050612aca81612aa4565b92915050565b600060208284031215612ae657612ae5612a6e565b5b6000612af484828501612abb565b91505092915050565b60008115159050919050565b612b1281612afd565b82525050565b6000602082019050612b2d6000830184612b09565b92915050565b600081519050919050565b600082825260208201905092915050565b60005b83811015612b6d578082015181840152602081019050612b52565b60008484015250505050565b6000601f19601f8301169050919050565b6000612b9582612b33565b612b9f8185612b3e565b9350612baf818560208601612b4f565b612bb881612b79565b840191505092915050565b60006020820190508181036000830152612bdd8184612b8a565b905092915050565b6000819050919050565b612bf881612be5565b8114612c0357600080fd5b50565b600081359050612c1581612bef565b92915050565b600060208284031215612c3157612c30612a6e565b5b6000612c3f84828501612c06565b91505092915050565b600073ffffffffffffffffffffffffffffffffffffffff82169050919050565b6000612c7382612c48565b9050919050565b612c8381612c68565b82525050565b6000602082019050612c9e6000830184612c7a565b92915050565b612cad81612c68565b8114612cb857600080fd5b50565b600081359050612cca81612ca4565b92915050565b60008060408385031215612ce757612ce6612a6e565b5b6000612cf585828601612cbb565b9250506020612d0685828601612c06565b9150509250929050565b60008060408385031215612d2757612d26612a6e565b5b6000612d3585828601612c06565b9250506020612d4685828601612c06565b9150509250929050565b612d5981612be5565b82525050565b6000602082019050612d746000830184612d50565b92915050565b600080600060608486031215612d9357612d92612a6e565b5b6000612da186828701612cbb565b9350506020612db286828701612cbb565b9250506040612dc386828701612c06565b9150509250925092565b600080fd5b600080fd5b7f4e487b7100000000000000000000000000000000000000000000000000000000600052604160045260246000fd5b612e0f82612b79565b810181811067ffffffffffffffff82111715612e2e57612e2d612dd7565b5b80604052505050565b6000612e41612a64565b9050612e4d8282612e06565b919050565b600067ffffffffffffffff821115612e6d57612e6c612dd7565b5b612e7682612b79565b9050602081019050919050565b82818337600083830152505050565b6000612ea5612ea084612e52565b612e37565b905082815260208101848484011115612ec157612ec0612dd2565b5b612ecc848285612e83565b509392505050565b600082601f830112612ee957612ee8612dcd565b5b8135612ef9848260208601612e92565b91505092915050565b600060208284031215612f1857612f17612a6e565b5b600082013567ffffffffffffffff811115612f3657612f35612a73565b5b612f4284828501612ed4565b91505092915050565b600060208284031215612f6157612f60612a6e565b5b6000612f6f84828501612cbb565b91505092915050565b6000612f8382612c48565b9050919050565b612f9381612f78565b82525050565b6000602082019050612fae6000830184612f8a565b92915050565b612fbd81612f78565b8114612fc857600080fd5b50565b600081359050612fda81612fb4565b92915050565b600060208284031215612ff657612ff5612a6e565b5b600061300484828501612fcb565b91505092915050565b61301681612afd565b811461302157600080fd5b50565b6000813590506130338161300d565b92915050565b600080604083850312156130505761304f612a6e565b5b600061305e85828601612cbb565b925050602061306f85828601613024565b9150509250929050565b600067ffffffffffffffff82111561309457613093612dd7565b5b61309d82612b79565b9050602081019050919050565b60006130bd6130b884613079565b612e37565b9050828152602081018484840111156130d9576130d8612dd2565b5b6130e4848285612e83565b509392505050565b600082601f83011261310157613100612dcd565b5b81356131118482602086016130aa565b91505092915050565b6000806000806080858703121561313457613133612a6e565b5b600061314287828801612cbb565b945050602061315387828801612cbb565b935050604061316487828801612c06565b925050606085013567ffffffffffffffff81111561318557613184612a73565b5b613191878288016130ec565b91505092959194509250565b600080604083850312156131b4576131b3612a6e565b5b60006131c285828601612cbb565b92505060206131d385828601612cbb565b9150509250929050565b7f4e487b7100000000000000000000000000000000000000000000000000000000600052602260045260246000fd5b6000600282049050600182168061322457607f821691505b602082108103613237576132366131dd565b5b50919050565b7f4e6f7420666f722073616c652077697468207061796d656e7420746f6b656e2060008201527f6174207468697320677261646500000000000000000000000000000000000000602082015250565b6000613299602d83612b3e565b91506132a48261323d565b604082019050919050565b600060208201905081810360008301526132c88161328c565b9050919050565b7f4e487b7100000000000000000000000000000000000000000000000000000000600052601160045260246000fd5b600061330982612be5565b915061331483612be5565b925082820261332281612be5565b91508282048414831517613339576133386132cf565b5b5092915050565b7f4e487b7100000000000000000000000000000000000000000000000000000000600052601260045260246000fd5b600061337a82612be5565b915061338583612be5565b92508261339557613394613340565b5b828204905092915050565b60006060820190506133b56000830186612c7a565b6133c26020830185612d50565b6133cf6040830184612c7a565b949350505050565b60006040820190506133ec6000830185612c7a565b6133f96020830184612d50565b9392505050565b7f4e487b7100000000000000000000000000000000000000000000000000000000600052603260045260246000fd5b60008190508160005260206000209050919050565b60006020601f8301049050919050565b600082821b905092915050565b6000600883026134917fffffffffffffffffffffffffffffffffffffffffffffffffffffffffffffffff82613454565b61349b8683613454565b95508019841693508086168417925050509392505050565b6000819050919050565b60006134d86134d36134ce84612be5565b6134b3565b612be5565b9050919050565b6000819050919050565b6134f2836134bd565b6135066134fe826134df565b848454613461565b825550505050565b600090565b61351b61350e565b6135268184846134e9565b505050565b5b8181101561354a5761353f600082613513565b60018101905061352c565b5050565b601f82111561358f576135608161342f565b61356984613444565b81016020851015613578578190505b61358c61358485613444565b83018261352b565b50505b505050565b600082821c905092915050565b60006135b260001984600802613594565b1980831691505092915050565b60006135cb83836135a1565b9150826002028217905092915050565b6135e482612b33565b67ffffffffffffffff8111156135fd576135fc612dd7565b5b613607825461320c565b61361282828561354e565b600060209050601f8311600181146136455760008415613633578287015190505b61363d85826135bf565b8655506136a5565b601f1984166136538661342f565b60005b8281101561367b57848901518255600182019150602085019450602081019050613656565b868310156136985784890151613694601f8916826135a1565b8355505b6001600288020188555050505b505050505050565b7f4e6f7420666f722073616c652077697468206e617469766520746f6b656e206160008201527f7420746869732067726164650000000000000000000000000000000000000000602082015250565b6000613709602c83612b3e565b9150613714826136ad565b604082019050919050565b60006020820190508181036000830152613738816136fc565b9050919050565b600081905092915050565b600081546137578161320c565b613761818661373f565b9450600182166000811461377c5760018114613791576137c4565b60ff19831686528115158202860193506137c4565b61379a8561342f565b60005b838110156137bc5781548189015260018201915060208101905061379d565b838801955050505b50505092915050565b60006137d882612b33565b6137e2818561373f565b93506137f2818560208601612b4f565b80840191505092915050565b7f2e6a736f6e000000000000000000000000000000000000000000000000000000815250565b6000613830828561374a565b915061383c82846137cd565b9150613847826137fe565b6005820191508190509392505050565b600061386282612be5565b915061386d83612be5565b9250828201905080821115613885576138846132cf565b5b92915050565b60006060820190506138a06000830186612c7a565b6138ad6020830185612c7a565b6138ba6040830184612d50565b949350505050565b6000815190506138d18161300d565b92915050565b6000602082840312156138ed576138ec612a6e565b5b60006138fb848285016138c2565b91505092915050565b600081519050919050565b600082825260208201905092915050565b600061392b82613904565b613935818561390f565b9350613945818560208601612b4f565b61394e81612b79565b840191505092915050565b600060808201905061396e6000830187612c7a565b61397b6020830186612c7a565b6139886040830185612d50565b818103606083015261399a8184613920565b905095945050505050565b6000815190506139b481612aa4565b92915050565b6000602082840312156139d0576139cf612a6e565b5b60006139de848285016139a5565b91505092915050565b60006139f282612be5565b91506139fd83612be5565b9250828203905081811115613a1557613a146132cf565b5b92915050565b7f4e487b7100000000000000000000000000000000000000000000000000000000600052603160045260246000fdfea264697066735822122057c68b7aef913aa3a73f2f66cc3f8df0c5d4a5a405c1802017b06777b663001464736f6c63430008180033",
  "linkReferences": {},
  "deployedLinkReferences": {}
}